{
	"data": {
		"bytecode": {
			"linkReferences": {},
			"object": "60a06040523480156200001157600080fd5b50604080518082018252600981527f524f536c6179657273000000000000000000000000000000000000000000000060208083019182528351808501909452600384527f524f5300000000000000000000000000000000000000000000000000000000009084015281519192916200008c916000916200023d565b508051620000a29060019060208401906200023d565b5050600b805460ff1916905550620000c560003364010000000062000157810204565b620000fa7f65d7a28e3265b37a6474929f336521b332c1681b933f6cb9f3376673440d862a3364010000000062000157810204565b6200012f7f9f2df0fed2c77648de5860a4cc508cd0818c85b8b8a1ab4ceeef8d981c8956a63364010000000062000157810204565b600a608052600e8054600160a060020a03191633179055662386f26fc10000600f5562000339565b6200016c828264010000000062000170810204565b5050565b6200018582826401000000006200020e810204565b6200016c576000828152600c60209081526040808320600160a060020a03851684529091529020805460ff19166001179055620001ca64010000000062000239810204565b600160a060020a031681600160a060020a0316837f2f8788117e7eff1d82e926ec794901d17c78024a50270940304540a733656f0d60405160405180910390a45050565b6000918252600c60209081526040808420600160a060020a0393909316845291905290205460ff1690565b3390565b8280546200024b90620002e3565b90600052602060002090601f0160209004810192826200026f5760008555620002ba565b82601f106200028a57805160ff1916838001178555620002ba565b82800160010185558215620002ba579182015b82811115620002ba5782518255916020019190600101906200029d565b50620002c8929150620002cc565b5090565b5b80821115620002c85760008155600101620002cd565b600281046001821680620002f857607f821691505b6020821081141562000333577f4e487b7100000000000000000000000000000000000000000000000000000000600052602260045260246000fd5b50919050565b60805161309f620003556000396000610908015261309f6000f3fe60806040526004361061023b576000357c0100000000000000000000000000000000000000000000000000000000900480636352211e11610140578063b88d4fde116100c8578063d85d3d271161008c578063d85d3d2714610628578063e39ff19f1461063b578063e63ab1e91461064e578063e985e9c514610663578063eddd0d9c1461068357610275565b8063b88d4fde1461059e578063c87b56dd146105be578063ce606ee0146105de578063d5391393146105f3578063d547741f1461060857610275565b80638456cb591161010f5780638456cb591461051f57806391d148541461053457806395d89b4114610554578063a217fddf14610569578063a22cb4651461057e57610275565b80636352211e146104b557806370a08231146104d55780637266f938146104f55780637a5caab31461050a57610275565b80632f745c59116101c357806342842e0e1161019257806342842e0e1461042057806342966c68146104405780634f6ccce71461046057806351cff8d9146104805780635c975abb146104a057610275565b80632f745c59146103b6578063355274ea146103d657806336568abe146103eb5780633f4ba83a1461040b57610275565b806312065fe01161020a57806312065fe01461031f57806318160ddd1461034157806323b872dd14610356578063248a9ca3146103765780632f2ff15d1461039657610275565b806301ffc9a71461027a57806306fdde03146102b0578063081812fc146102d2578063095ea7b3146102ff57610275565b36610275576102486106a3565b3410156102735760405160e560020a62461bcd02815260040161026a90612cc0565b60405180910390fd5b005b600080fd5b34801561028657600080fd5b5061029a6102953660046123c5565b6106a9565b6040516102a79190612572565b60405180910390f35b3480156102bc57600080fd5b506102c56106bc565b6040516102a79190612586565b3480156102de57600080fd5b506102f26102ed366004612389565b61074e565b6040516102a79190612522565b34801561030b57600080fd5b5061027361031a36600461235e565b610794565b34801561032b57600080fd5b50610334610832565b6040516102a7919061257d565b34801561034d57600080fd5b50610334610837565b34801561036257600080fd5b50610273610371366004612270565b61083d565b34801561038257600080fd5b50610334610391366004612389565b610878565b3480156103a257600080fd5b506102736103b13660046123a1565b61088d565b3480156103c257600080fd5b506103346103d136600461235e565b6108b1565b3480156103e257600080fd5b50610334610906565b3480156103f757600080fd5b506102736104063660046123a1565b61092a565b34801561041757600080fd5b50610273610973565b34801561042c57600080fd5b5061027361043b366004612270565b6109ab565b34801561044c57600080fd5b5061027361045b366004612389565b6109c6565b34801561046c57600080fd5b5061033461047b366004612389565b6109f9565b34801561048c57600080fd5b5061027361049b36600461221c565b610a5a565b3480156104ac57600080fd5b5061029a610aa5565b3480156104c157600080fd5b506102f26104d0366004612389565b610aae565b3480156104e157600080fd5b506103346104f036600461221c565b610ae6565b34801561050157600080fd5b506102f2610b2d565b34801561051657600080fd5b506103346106a3565b34801561052b57600080fd5b50610273610b31565b34801561054057600080fd5b5061029a61054f3660046123a1565b610b66565b34801561056057600080fd5b506102c5610b91565b34801561057557600080fd5b50610334610ba0565b34801561058a57600080fd5b5061027361059936600461232d565b610ba5565b3480156105aa57600080fd5b506102736105b93660046122b0565b610c76565b3480156105ca57600080fd5b506102c56105d9366004612389565b610cb8565b3480156105ea57600080fd5b506102f2610cc3565b3480156105ff57600080fd5b50610334610cd2565b34801561061457600080fd5b506102736106233660046123a1565b610cf6565b6102736106363660046123fd565b610d15565b61027361064936600461221c565b610d9b565b34801561065a57600080fd5b50610334610e1a565b34801561066f57600080fd5b5061029a61067e366004612238565b610e3e565b34801561068f57600080fd5b5061027361069e366004612389565b610e6c565b600f5490565b60006106b482610ee5565b90505b919050565b6060600080546106cb90612f36565b80601f01602080910402602001604051908101604052809291908181526020018280546106f790612f36565b80156107445780601f1061071957610100808354040283529160200191610744565b820191906000526020600020905b81548152906001019060200180831161072757829003601f168201915b5050505050905090565b600061075982610f23565b6107785760405160e560020a62461bcd02815260040161026a90612b4c565b50600090815260046020526040902054600160a060020a031690565b600061079f82610aae565b905080600160a060020a031683600160a060020a031614156107d65760405160e560020a62461bcd02815260040161026a90612c63565b80600160a060020a03166107e8610f40565b600160a060020a0316148061080457506108048161067e610f40565b6108235760405160e560020a62461bcd02815260040161026a906128e9565b61082d8383610f44565b505050565b303190565b60085490565b61084e610848610f40565b82610fbf565b61086d5760405160e560020a62461bcd02815260040161026a90612d1d565b61082d838383611047565b6000908152600c602052604090206001015490565b61089682610878565b6108a7816108a2610f40565b611187565b61082d83836111ee565b60006108bc83610ae6565b82106108dd5760405160e560020a62461bcd02815260040161026a90612605565b50600160a060020a03919091166000908152600660209081526040808320938352929052205490565b7f000000000000000000000000000000000000000000000000000000000000000090565b610932610f40565b600160a060020a031681600160a060020a0316146109655760405160e560020a62461bcd02815260040161026a90612e34565b61096f8282611275565b5050565b7f65d7a28e3265b37a6474929f336521b332c1681b933f6cb9f3376673440d862a6109a0816108a2610f40565b6109a86112fa565b50565b61082d83838360405180602001604052806000815250610c76565b6109d1610848610f40565b6109f05760405160e560020a62461bcd02815260040161026a90612dd7565b6109a88161136b565b6000610a03610837565b8210610a245760405160e560020a62461bcd02815260040161026a90612d7a565b60088281548110610a485760e060020a634e487b7102600052603260045260246000fd5b90600052602060002001549050919050565b6000610a68816108a2610f40565b81600160a060020a03166108fc610a7d610832565b6040518115909202916000818181858888f1935050505015801561082d573d6000803e3d6000fd5b600b5460ff1690565b600081815260026020526040812054600160a060020a0316806106b45760405160e560020a62461bcd02815260040161026a906129a3565b6000600160a060020a038216610b115760405160e560020a62461bcd02815260040161026a90612946565b50600160a060020a031660009081526003602052604090205490565b3090565b7f65d7a28e3265b37a6474929f336521b332c1681b933f6cb9f3376673440d862a610b5e816108a2610f40565b6109a8611374565b6000918252600c60209081526040808420600160a060020a0393909316845291905290205460ff1690565b6060600180546106cb90612f36565b600081565b610bad610f40565b600160a060020a031682600160a060020a03161415610be15760405160e560020a62461bcd02815260040161026a9061278a565b8060056000610bee610f40565b600160a060020a03908116825260208083019390935260409182016000908120918716808252919093529120805460ff191692151592909217909155610c32610f40565b600160a060020a03167f17307eab39ab6107e8899845ad3d59bd9653f200f220920489ca2b5937696c3183604051610c6a9190612572565b60405180910390a35050565b610c87610c81610f40565b83610fbf565b610ca65760405160e560020a62461bcd02815260040161026a90612d1d565b610cb2848484846113d2565b50505050565b60606106b482611408565b600e54600160a060020a031681565b7f9f2df0fed2c77648de5860a4cc508cd0818c85b8b8a1ab4ceeef8d981c8956a681565b610cff82610878565b610d0b816108a2610f40565b61082d8383611275565b610d1d610906565b610d25610837565b1115610d465760405160e560020a62461bcd02815260040161026a9061281e565b600f54341015610d6b5760405160e560020a62461bcd02815260040161026a9061288c565b610d75600d611524565b610d8833610d83600d61152d565b611531565b6109a8610d95600d61152d565b8261154b565b600081600160a060020a031634604051610db49061249e565b60006040518083038185875af1925050503d8060008114610df1576040519150601f19603f3d011682016040523d82523d6000602084013e610df6565b606091505b505090508061096f5760405160e560020a62461bcd02815260040161026a906126bf565b7f65d7a28e3265b37a6474929f336521b332c1681b933f6cb9f3376673440d862a81565b600160a060020a03918216600090815260056020908152604080832093909416825291909152205460ff1690565b6000610e7a816108a2610f40565b610e85600033610b66565b610ea45760405160e560020a62461bcd02815260040161026a90612a5d565b600f8290556040517f7b7f9c0a5d008930272b5f3d461abc63bd19e74a0b0a0caa3f9b8136c2ce228c90610ed990849061257d565b60405180910390a15050565b6000600160e060020a031982167f7965db0b0000000000000000000000000000000000000000000000000000000014806106b457506106b482611592565b600090815260026020526040902054600160a060020a0316151590565b3390565b6000818152600460205260409020805473ffffffffffffffffffffffffffffffffffffffff1916600160a060020a0384169081179091558190610f8682610aae565b600160a060020a03167f8c5be1e5ebec7d5bd14f71427d1e84f3dd0314c0f7b2291e5b200ac8c7c3b92560405160405180910390a45050565b6000610fca82610f23565b610fe95760405160e560020a62461bcd02815260040161026a906127c1565b6000610ff483610aae565b905080600160a060020a031684600160a060020a0316148061102f575083600160a060020a03166110248461074e565b600160a060020a0316145b8061103f575061103f8185610e3e565b949350505050565b82600160a060020a031661105a82610aae565b600160a060020a0316146110835760405160e560020a62461bcd02815260040161026a90612ba9565b600160a060020a0382166110ac5760405160e560020a62461bcd02815260040161026a9061272d565b6110b78383836115d0565b6110c2600082610f44565b600160a060020a03831660009081526003602052604081208054600192906110eb908490612edc565b9091555050600160a060020a0382166000908152600360205260408120805460019290611119908490612e91565b9091555050600081815260026020526040808220805473ffffffffffffffffffffffffffffffffffffffff1916600160a060020a0386811691821790925591518493918716917fddf252ad1be2c89b69c2b068fc378daa952ba7f163c4a11628f55a4df523b3ef91a4505050565b6111918282610b66565b61096f576111a981600160a060020a03166014611603565b6111b4836020611603565b6040516020016111c59291906124a1565b60408051601f198184030181529082905260e560020a62461bcd02825261026a91600401612586565b6111f88282610b66565b61096f576000828152600c60209081526040808320600160a060020a03851684529091529020805460ff19166001179055611231610f40565b600160a060020a031681600160a060020a0316837f2f8788117e7eff1d82e926ec794901d17c78024a50270940304540a733656f0d60405160405180910390a45050565b61127f8282610b66565b1561096f576000828152600c60209081526040808320600160a060020a03851684529091529020805460ff191690556112b6610f40565b600160a060020a031681600160a060020a0316837ff6391f5c32d9c69d2a47ea670b442974b53935d1edc7fd64eb21e047a839171b60405160405180910390a45050565b611302610aa5565b6113215760405160e560020a62461bcd02815260040161026a906125ce565b600b805460ff191690557f5db9ee0a495bf2e6ff9c91a7834c1ba4fdd244a5e8aa4e537bd38aeae4b073aa611354610f40565b6040516113619190612522565b60405180910390a1565b6109a881611831565b61137c610aa5565b1561139c5760405160e560020a62461bcd02815260040161026a90612855565b600b805460ff191660011790557f62e78cea01bee320cd4e420270b5ea74000d11b0c9f74754ebdbfc544b05a258611354610f40565b6113dd848484611047565b6113e984848484611871565b610cb25760405160e560020a62461bcd02815260040161026a90612662565b606061141382610f23565b6114325760405160e560020a62461bcd02815260040161026a90612aef565b6000828152600a60205260408120805461144b90612f36565b80601f016020809104026020016040519081016040528092919081815260200182805461147790612f36565b80156114c45780601f10611499576101008083540402835291602001916114c4565b820191906000526020600020905b8154815290600101906020018083116114a757829003601f168201915b5050505050905060006114d56119c4565b90508051600014156114e9575090506106b7565b81511561151b57808260405160200161150392919061246f565b604051602081830303815290604052925050506106b7565b61103f846119e4565b80546001019055565b5490565b61096f828260405180602001604052806000815250611a69565b61155482610f23565b6115735760405160e560020a62461bcd02815260040161026a90612a00565b6000828152600a60209081526040909120825161082d928401906120db565b6000600160e060020a031982167f780e9d630000000000000000000000000000000000000000000000000000000014806106b457506106b482611a9f565b6115d8610aa5565b156115f85760405160e560020a62461bcd02815260040161026a90612855565b61082d838383611b11565b60606000611612836002612ebd565b61161d906002612e91565b67ffffffffffffffff8111156116465760e060020a634e487b7102600052604160045260246000fd5b6040519080825280601f01601f191660200182016040528015611670576020820181803683370190505b5090507f3000000000000000000000000000000000000000000000000000000000000000816000815181106116b85760e060020a634e487b7102600052603260045260246000fd5b6020010190600160f860020a031916908160001a9053507f7800000000000000000000000000000000000000000000000000000000000000816001815181106117145760e060020a634e487b7102600052603260045260246000fd5b6020010190600160f860020a031916908160001a9053506000611738846002612ebd565b611743906001612e91565b90505b6001811115611808577f303132333435363738396162636465660000000000000000000000000000000085600f16601081106117955760e060020a634e487b7102600052603260045260246000fd5b1a7f0100000000000000000000000000000000000000000000000000000000000000028282815181106117db5760e060020a634e487b7102600052603260045260246000fd5b6020010190600160f860020a031916908160001a90535060109094049361180181612f1f565b9050611746565b50831561182a5760405160e560020a62461bcd02815260040161026a90612599565b9392505050565b61183a81611b9a565b6000818152600a60205260409020805461185390612f36565b1590506109a8576000818152600a602052604081206109a89161215f565b600061188584600160a060020a0316611c4e565b156119b95783600160a060020a031663150b7a026118a1610f40565b8786866040518563ffffffff167c01000000000000000000000000000000000000000000000000000000000281526004016118df9493929190612536565b602060405180830381600087803b1580156118f957600080fd5b505af1925050508015611929575060408051601f3d908101601f19168201909252611926918101906123e1565b60015b611986573d808015611957576040519150601f19603f3d011682016040523d82523d6000602084013e61195c565b606091505b50805161197e5760405160e560020a62461bcd02815260040161026a90612662565b805181602001fd5b600160e060020a0319167f150b7a020000000000000000000000000000000000000000000000000000000014905061103f565b506001949350505050565b606060405180608001604052806050815260200161301a60509139905090565b60606119ef82610f23565b611a0e5760405160e560020a62461bcd02815260040161026a90612c06565b6000611a186119c4565b90506000815111611a38576040518060200160405280600081525061182a565b80611a4284611c54565b604051602001611a5392919061246f565b6040516020818303038152906040529392505050565b611a738383611db0565b611a806000848484611871565b61082d5760405160e560020a62461bcd02815260040161026a90612662565b6000600160e060020a031982167f80ac58cd000000000000000000000000000000000000000000000000000000001480611b025750600160e060020a031982167f5b5e139f00000000000000000000000000000000000000000000000000000000145b806106b457506106b482611ea2565b611b1c83838361082d565b600160a060020a038316611b3857611b3381611ed4565b611b5b565b81600160a060020a031683600160a060020a031614611b5b57611b5b8382611f18565b600160a060020a038216611b7757611b7281611fb5565b61082d565b82600160a060020a031682600160a060020a03161461082d5761082d8282612097565b6000611ba582610aae565b9050611bb3816000846115d0565b611bbe600083610f44565b600160a060020a0381166000908152600360205260408120805460019290611be7908490612edc565b9091555050600082815260026020526040808220805473ffffffffffffffffffffffffffffffffffffffff1916905551839190600160a060020a038416907fddf252ad1be2c89b69c2b068fc378daa952ba7f163c4a11628f55a4df523b3ef908390a45050565b3b151590565b606081611c95575060408051808201909152600181527f300000000000000000000000000000000000000000000000000000000000000060208201526106b7565b8160005b8115611cbf5780611ca981612f74565b9150611cb89050600a83612ea9565b9150611c99565b60008167ffffffffffffffff811115611ceb5760e060020a634e487b7102600052604160045260246000fd5b6040519080825280601f01601f191660200182016040528015611d15576020820181803683370190505b5090505b841561103f57611d2a600183612edc565b9150611d37600a86612f8f565b611d42906030612e91565b7f010000000000000000000000000000000000000000000000000000000000000002818381518110611d875760e060020a634e487b7102600052603260045260246000fd5b6020010190600160f860020a031916908160001a905350611da9600a86612ea9565b9450611d19565b600160a060020a038216611dd95760405160e560020a62461bcd02815260040161026a90612aba565b611de281610f23565b15611e025760405160e560020a62461bcd02815260040161026a906126f6565b611e0e600083836115d0565b600160a060020a0382166000908152600360205260408120805460019290611e37908490612e91565b9091555050600081815260026020526040808220805473ffffffffffffffffffffffffffffffffffffffff1916600160a060020a03861690811790915590518392907fddf252ad1be2c89b69c2b068fc378daa952ba7f163c4a11628f55a4df523b3ef908290a45050565b600160e060020a031981167f01ffc9a70000000000000000000000000000000000000000000000000000000014919050565b600880546000838152600960205260408120829055600182018355919091527ff3f7a9fe364faab93b216da50a3214154f22a0a2b415b23a84c8169e8b636ee30155565b60006001611f2584610ae6565b611f2f9190612edc565b600083815260076020526040902054909150808214611f8257600160a060020a03841660009081526006602090815260408083208584528252808320548484528184208190558352600790915290208190555b506000918252600760209081526040808420849055600160a060020a039094168352600681528383209183525290812055565b600854600090611fc790600190612edc565b600083815260096020526040812054600880549394509092849081106120005760e060020a634e487b7102600052603260045260246000fd5b9060005260206000200154905080600883815481106120325760e060020a634e487b7102600052603260045260246000fd5b600091825260208083209091019290925582815260099091526040808220849055858252812055600880548061207b5760e060020a634e487b7102600052603160045260246000fd5b6001900381819060005260206000200160009055905550505050565b60006120a283610ae6565b600160a060020a039093166000908152600660209081526040808320868452825280832085905593825260079052919091209190915550565b8280546120e790612f36565b90600052602060002090601f016020900481019282612109576000855561214f565b82601f1061212257805160ff191683800117855561214f565b8280016001018555821561214f579182015b8281111561214f578251825591602001919060010190612134565b5061215b929150612197565b5090565b50805461216b90612f36565b6000825580601f1061217d57506109a8565b601f0160209004906000526020600020908101906109a891905b5b8082111561215b5760008155600101612198565b600067ffffffffffffffff808411156121c7576121c7612fd5565b604051601f8501601f1916810160200182811182821017156121eb576121eb612fd5565b60405284815291508183850186101561220357600080fd5b8484602083013760006020868301015250509392505050565b60006020828403121561222d578081fd5b813561182a81612fee565b6000806040838503121561224a578081fd5b823561225581612fee565b9150602083013561226581612fee565b809150509250929050565b600080600060608486031215612284578081fd5b833561228f81612fee565b9250602084013561229f81612fee565b929592945050506040919091013590565b600080600080608085870312156122c5578081fd5b84356122d081612fee565b935060208501356122e081612fee565b925060408501359150606085013567ffffffffffffffff811115612302578182fd5b8501601f81018713612312578182fd5b612321878235602084016121ac565b91505092959194509250565b6000806040838503121561233f578182fd5b823561234a81612fee565b915060208301358015158114612265578182fd5b60008060408385031215612370578182fd5b823561237b81612fee565b946020939093013593505050565b60006020828403121561239a578081fd5b5035919050565b600080604083850312156123b3578182fd5b82359150602083013561226581612fee565b6000602082840312156123d6578081fd5b813561182a81613003565b6000602082840312156123f2578081fd5b815161182a81613003565b60006020828403121561240e578081fd5b813567ffffffffffffffff811115612424578182fd5b8201601f81018413612434578182fd5b61103f848235602084016121ac565b6000815180845261245b816020860160208601612ef3565b601f01601f19169290920160200192915050565b60008351612481818460208801612ef3565b835190830190612495818360208801612ef3565b01949350505050565b90565b60007f416363657373436f6e74726f6c3a206163636f756e7420000000000000000000825283516124d9816017850160208801612ef3565b7f206973206d697373696e6720726f6c65200000000000000000000000000000006017918401918201528351612516816028840160208801612ef3565b01602801949350505050565b600160a060020a0391909116815260200190565b6000600160a060020a038087168352808616602084015250836040830152608060608301526125686080830184612443565b9695505050505050565b901515815260200190565b90815260200190565b60006020825261182a6020830184612443565b6020808252818101527f537472696e67733a20686578206c656e67746820696e73756666696369656e74604082015260600190565b60208082526014908201527f5061757361626c653a206e6f7420706175736564000000000000000000000000604082015260600190565b6020808252602b908201527f455243373231456e756d657261626c653a206f776e657220696e646578206f7560408201527f74206f6620626f756e6473000000000000000000000000000000000000000000606082015260800190565b60208082526032908201527f4552433732313a207472616e7366657220746f206e6f6e20455243373231526560408201527f63656976657220696d706c656d656e7465720000000000000000000000000000606082015260800190565b6020808252600f908201527f46616c69656420746f2073656e64210000000000000000000000000000000000604082015260600190565b6020808252601c908201527f4552433732313a20746f6b656e20616c7265616479206d696e74656400000000604082015260600190565b60208082526024908201527f4552433732313a207472616e7366657220746f20746865207a65726f2061646460408201527f7265737300000000000000000000000000000000000000000000000000000000606082015260800190565b60208082526019908201527f4552433732313a20617070726f766520746f2063616c6c657200000000000000604082015260600190565b6020808252602c908201527f4552433732313a206f70657261746f7220717565727920666f72206e6f6e657860408201527f697374656e7420746f6b656e0000000000000000000000000000000000000000606082015260800190565b60208082526017908201527f455243373231204361703a206361702072656163686564000000000000000000604082015260600190565b60208082526010908201527f5061757361626c653a2070617573656400000000000000000000000000000000604082015260600190565b60208082526021908201527f4e6f7420656e6f756768204554482073656e743a20636865636b20707269636560408201527f2e00000000000000000000000000000000000000000000000000000000000000606082015260800190565b60208082526038908201527f4552433732313a20617070726f76652063616c6c6572206973206e6f74206f7760408201527f6e6572206e6f7220617070726f76656420666f7220616c6c0000000000000000606082015260800190565b6020808252602a908201527f4552433732313a2062616c616e636520717565727920666f7220746865207a6560408201527f726f206164647265737300000000000000000000000000000000000000000000606082015260800190565b60208082526029908201527f4552433732313a206f776e657220717565727920666f72206e6f6e657869737460408201527f656e7420746f6b656e0000000000000000000000000000000000000000000000606082015260800190565b6020808252602e908201527f45524337323155524953746f726167653a2055524920736574206f66206e6f6e60408201527f6578697374656e7420746f6b656e000000000000000000000000000000000000606082015260800190565b6020808252602b908201527f43616c6c6572206d75737420686176652061646d696e20726f6c6520746f207360408201527f6574206d696e7420666565000000000000000000000000000000000000000000606082015260800190565b6020808252818101527f4552433732313a206d696e7420746f20746865207a65726f2061646472657373604082015260600190565b60208082526031908201527f45524337323155524953746f726167653a2055524920717565727920666f722060408201527f6e6f6e6578697374656e7420746f6b656e000000000000000000000000000000606082015260800190565b6020808252602c908201527f4552433732313a20617070726f76656420717565727920666f72206e6f6e657860408201527f697374656e7420746f6b656e0000000000000000000000000000000000000000606082015260800190565b60208082526029908201527f4552433732313a207472616e73666572206f6620746f6b656e2074686174206960408201527f73206e6f74206f776e0000000000000000000000000000000000000000000000606082015260800190565b6020808252602f908201527f4552433732314d657461646174613a2055524920717565727920666f72206e6f60408201527f6e6578697374656e7420746f6b656e0000000000000000000000000000000000606082015260800190565b60208082526021908201527f4552433732313a20617070726f76616c20746f2063757272656e74206f776e6560408201527f7200000000000000000000000000000000000000000000000000000000000000606082015260800190565b60208082526027908201527f496e73756666696369656e7442616c616e63652c20636865636b20796f75722060408201527f62616c616e636500000000000000000000000000000000000000000000000000606082015260800190565b60208082526031908201527f4552433732313a207472616e736665722063616c6c6572206973206e6f74206f60408201527f776e6572206e6f7220617070726f766564000000000000000000000000000000606082015260800190565b6020808252602c908201527f455243373231456e756d657261626c653a20676c6f62616c20696e646578206f60408201527f7574206f6620626f756e64730000000000000000000000000000000000000000606082015260800190565b60208082526030908201527f4552433732314275726e61626c653a2063616c6c6572206973206e6f74206f7760408201527f6e6572206e6f7220617070726f76656400000000000000000000000000000000606082015260800190565b6020808252602f908201527f416363657373436f6e74726f6c3a2063616e206f6e6c792072656e6f756e636560408201527f20726f6c657320666f722073656c660000000000000000000000000000000000606082015260800190565b60008219821115612ea457612ea4612fa3565b500190565b600082612eb857612eb8612fbc565b500490565b6000816000190483118215151615612ed757612ed7612fa3565b500290565b600082821015612eee57612eee612fa3565b500390565b60005b83811015612f0e578181015183820152602001612ef6565b83811115610cb25750506000910152565b600081612f2e57612f2e612fa3565b506000190190565b600281046001821680612f4a57607f821691505b60208210811415612f6e5760e060020a634e487b7102600052602260045260246000fd5b50919050565b6000600019821415612f8857612f88612fa3565b5060010190565b600082612f9e57612f9e612fbc565b500690565b60e060020a634e487b7102600052601160045260246000fd5b60e060020a634e487b7102600052601260045260246000fd5b60e060020a634e487b7102600052604160045260246000fd5b600160a060020a03811681146109a857600080fd5b600160e060020a0319811681146109a857600080fdfe68747470733a2f2f676174657761792e70696e6174612e636c6f75642f697066732f516d524c7246356e4d4d73716b70675757536765504b4e56553270695748537a6a4756484273524b393564696f37a2646970667358221220b3777c964d0c7a2f739f04c1e9d698fdf3dbba185e0793a483ff6acf6a5faf4564736f6c63430008000033",
			"opcodes": "PUSH1 0xA0 PUSH1 0x40 MSTORE CALLVALUE DUP1 ISZERO PUSH3 0x11 JUMPI PUSH1 0x0 DUP1 REVERT JUMPDEST POP PUSH1 0x40 DUP1 MLOAD DUP1 DUP3 ADD DUP3 MSTORE PUSH1 0x9 DUP2 MSTORE PUSH32 0x524F536C61796572730000000000000000000000000000000000000000000000 PUSH1 0x20 DUP1 DUP4 ADD SWAP2 DUP3 MSTORE DUP4 MLOAD DUP1 DUP6 ADD SWAP1 SWAP5 MSTORE PUSH1 0x3 DUP5 MSTORE PUSH32 0x524F530000000000000000000000000000000000000000000000000000000000 SWAP1 DUP5 ADD MSTORE DUP2 MLOAD SWAP2 SWAP3 SWAP2 PUSH3 0x8C SWAP2 PUSH1 0x0 SWAP2 PUSH3 0x23D JUMP JUMPDEST POP DUP1 MLOAD PUSH3 0xA2 SWAP1 PUSH1 0x1 SWAP1 PUSH1 0x20 DUP5 ADD SWAP1 PUSH3 0x23D JUMP JUMPDEST POP POP PUSH1 0xB DUP1 SLOAD PUSH1 0xFF NOT AND SWAP1 SSTORE POP PUSH3 0xC5 PUSH1 0x0 CALLER PUSH5 0x100000000 PUSH3 0x157 DUP2 MUL DIV JUMP JUMPDEST PUSH3 0xFA PUSH32 0x65D7A28E3265B37A6474929F336521B332C1681B933F6CB9F3376673440D862A CALLER PUSH5 0x100000000 PUSH3 0x157 DUP2 MUL DIV JUMP JUMPDEST PUSH3 0x12F PUSH32 0x9F2DF0FED2C77648DE5860A4CC508CD0818C85B8B8A1AB4CEEEF8D981C8956A6 CALLER PUSH5 0x100000000 PUSH3 0x157 DUP2 MUL DIV JUMP JUMPDEST PUSH1 0xA PUSH1 0x80 MSTORE PUSH1 0xE DUP1 SLOAD PUSH1 0x1 PUSH1 0xA0 PUSH1 0x2 EXP SUB NOT AND CALLER OR SWAP1 SSTORE PUSH7 0x2386F26FC10000 PUSH1 0xF SSTORE PUSH3 0x339 JUMP JUMPDEST PUSH3 0x16C DUP3 DUP3 PUSH5 0x100000000 PUSH3 0x170 DUP2 MUL DIV JUMP JUMPDEST POP POP JUMP JUMPDEST PUSH3 0x185 DUP3 DUP3 PUSH5 0x100000000 PUSH3 0x20E DUP2 MUL DIV JUMP JUMPDEST PUSH3 0x16C JUMPI PUSH1 0x0 DUP3 DUP2 MSTORE PUSH1 0xC PUSH1 0x20 SWAP1 DUP2 MSTORE PUSH1 0x40 DUP1 DUP4 KECCAK256 PUSH1 0x1 PUSH1 0xA0 PUSH1 0x2 EXP SUB DUP6 AND DUP5 MSTORE SWAP1 SWAP2 MSTORE SWAP1 KECCAK256 DUP1 SLOAD PUSH1 0xFF NOT AND PUSH1 0x1 OR SWAP1 SSTORE PUSH3 0x1CA PUSH5 0x100000000 PUSH3 0x239 DUP2 MUL DIV JUMP JUMPDEST PUSH1 0x1 PUSH1 0xA0 PUSH1 0x2 EXP SUB AND DUP2 PUSH1 0x1 PUSH1 0xA0 PUSH1 0x2 EXP SUB AND DUP4 PUSH32 0x2F8788117E7EFF1D82E926EC794901D17C78024A50270940304540A733656F0D PUSH1 0x40 MLOAD PUSH1 0x40 MLOAD DUP1 SWAP2 SUB SWAP1 LOG4 POP POP JUMP JUMPDEST PUSH1 0x0 SWAP2 DUP3 MSTORE PUSH1 0xC PUSH1 0x20 SWAP1 DUP2 MSTORE PUSH1 0x40 DUP1 DUP5 KECCAK256 PUSH1 0x1 PUSH1 0xA0 PUSH1 0x2 EXP SUB SWAP4 SWAP1 SWAP4 AND DUP5 MSTORE SWAP2 SWAP1 MSTORE SWAP1 KECCAK256 SLOAD PUSH1 0xFF AND SWAP1 JUMP JUMPDEST CALLER SWAP1 JUMP JUMPDEST DUP3 DUP1 SLOAD PUSH3 0x24B SWAP1 PUSH3 0x2E3 JUMP JUMPDEST SWAP1 PUSH1 0x0 MSTORE PUSH1 0x20 PUSH1 0x0 KECCAK256 SWAP1 PUSH1 0x1F ADD PUSH1 0x20 SWAP1 DIV DUP2 ADD SWAP3 DUP3 PUSH3 0x26F JUMPI PUSH1 0x0 DUP6 SSTORE PUSH3 0x2BA JUMP JUMPDEST DUP3 PUSH1 0x1F LT PUSH3 0x28A JUMPI DUP1 MLOAD PUSH1 0xFF NOT AND DUP4 DUP1 ADD OR DUP6 SSTORE PUSH3 0x2BA JUMP JUMPDEST DUP3 DUP1 ADD PUSH1 0x1 ADD DUP6 SSTORE DUP3 ISZERO PUSH3 0x2BA JUMPI SWAP2 DUP3 ADD JUMPDEST DUP3 DUP2 GT ISZERO PUSH3 0x2BA JUMPI DUP3 MLOAD DUP3 SSTORE SWAP2 PUSH1 0x20 ADD SWAP2 SWAP1 PUSH1 0x1 ADD SWAP1 PUSH3 0x29D JUMP JUMPDEST POP PUSH3 0x2C8 SWAP3 SWAP2 POP PUSH3 0x2CC JUMP JUMPDEST POP SWAP1 JUMP JUMPDEST JUMPDEST DUP1 DUP3 GT ISZERO PUSH3 0x2C8 JUMPI PUSH1 0x0 DUP2 SSTORE PUSH1 0x1 ADD PUSH3 0x2CD JUMP JUMPDEST PUSH1 0x2 DUP2 DIV PUSH1 0x1 DUP3 AND DUP1 PUSH3 0x2F8 JUMPI PUSH1 0x7F DUP3 AND SWAP2 POP JUMPDEST PUSH1 0x20 DUP3 LT DUP2 EQ ISZERO PUSH3 0x333 JUMPI PUSH32 0x4E487B7100000000000000000000000000000000000000000000000000000000 PUSH1 0x0 MSTORE PUSH1 0x22 PUSH1 0x4 MSTORE PUSH1 0x24 PUSH1 0x0 REVERT JUMPDEST POP SWAP2 SWAP1 POP JUMP JUMPDEST PUSH1 0x80 MLOAD PUSH2 0x309F PUSH3 0x355 PUSH1 0x0 CODECOPY PUSH1 0x0 PUSH2 0x908 ADD MSTORE PUSH2 0x309F PUSH1 0x0 RETURN INVALID PUSH1 0x80 PUSH1 0x40 MSTORE PUSH1 0x4 CALLDATASIZE LT PUSH2 0x23B JUMPI PUSH1 0x0 CALLDATALOAD PUSH29 0x100000000000000000000000000000000000000000000000000000000 SWAP1 DIV DUP1 PUSH4 0x6352211E GT PUSH2 0x140 JUMPI DUP1 PUSH4 0xB88D4FDE GT PUSH2 0xC8 JUMPI DUP1 PUSH4 0xD85D3D27 GT PUSH2 0x8C JUMPI DUP1 PUSH4 0xD85D3D27 EQ PUSH2 0x628 JUMPI DUP1 PUSH4 0xE39FF19F EQ PUSH2 0x63B JUMPI DUP1 PUSH4 0xE63AB1E9 EQ PUSH2 0x64E JUMPI DUP1 PUSH4 0xE985E9C5 EQ PUSH2 0x663 JUMPI DUP1 PUSH4 0xEDDD0D9C EQ PUSH2 0x683 JUMPI PUSH2 0x275 JUMP JUMPDEST DUP1 PUSH4 0xB88D4FDE EQ PUSH2 0x59E JUMPI DUP1 PUSH4 0xC87B56DD EQ PUSH2 0x5BE JUMPI DUP1 PUSH4 0xCE606EE0 EQ PUSH2 0x5DE JUMPI DUP1 PUSH4 0xD5391393 EQ PUSH2 0x5F3 JUMPI DUP1 PUSH4 0xD547741F EQ PUSH2 0x608 JUMPI PUSH2 0x275 JUMP JUMPDEST DUP1 PUSH4 0x8456CB59 GT PUSH2 0x10F JUMPI DUP1 PUSH4 0x8456CB59 EQ PUSH2 0x51F JUMPI DUP1 PUSH4 0x91D14854 EQ PUSH2 0x534 JUMPI DUP1 PUSH4 0x95D89B41 EQ PUSH2 0x554 JUMPI DUP1 PUSH4 0xA217FDDF EQ PUSH2 0x569 JUMPI DUP1 PUSH4 0xA22CB465 EQ PUSH2 0x57E JUMPI PUSH2 0x275 JUMP JUMPDEST DUP1 PUSH4 0x6352211E EQ PUSH2 0x4B5 JUMPI DUP1 PUSH4 0x70A08231 EQ PUSH2 0x4D5 JUMPI DUP1 PUSH4 0x7266F938 EQ PUSH2 0x4F5 JUMPI DUP1 PUSH4 0x7A5CAAB3 EQ PUSH2 0x50A JUMPI PUSH2 0x275 JUMP JUMPDEST DUP1 PUSH4 0x2F745C59 GT PUSH2 0x1C3 JUMPI DUP1 PUSH4 0x42842E0E GT PUSH2 0x192 JUMPI DUP1 PUSH4 0x42842E0E EQ PUSH2 0x420 JUMPI DUP1 PUSH4 0x42966C68 EQ PUSH2 0x440 JUMPI DUP1 PUSH4 0x4F6CCCE7 EQ PUSH2 0x460 JUMPI DUP1 PUSH4 0x51CFF8D9 EQ PUSH2 0x480 JUMPI DUP1 PUSH4 0x5C975ABB EQ PUSH2 0x4A0 JUMPI PUSH2 0x275 JUMP JUMPDEST DUP1 PUSH4 0x2F745C59 EQ PUSH2 0x3B6 JUMPI DUP1 PUSH4 0x355274EA EQ PUSH2 0x3D6 JUMPI DUP1 PUSH4 0x36568ABE EQ PUSH2 0x3EB JUMPI DUP1 PUSH4 0x3F4BA83A EQ PUSH2 0x40B JUMPI PUSH2 0x275 JUMP JUMPDEST DUP1 PUSH4 0x12065FE0 GT PUSH2 0x20A JUMPI DUP1 PUSH4 0x12065FE0 EQ PUSH2 0x31F JUMPI DUP1 PUSH4 0x18160DDD EQ PUSH2 0x341 JUMPI DUP1 PUSH4 0x23B872DD EQ PUSH2 0x356 JUMPI DUP1 PUSH4 0x248A9CA3 EQ PUSH2 0x376 JUMPI DUP1 PUSH4 0x2F2FF15D EQ PUSH2 0x396 JUMPI PUSH2 0x275 JUMP JUMPDEST DUP1 PUSH4 0x1FFC9A7 EQ PUSH2 0x27A JUMPI DUP1 PUSH4 0x6FDDE03 EQ PUSH2 0x2B0 JUMPI DUP1 PUSH4 0x81812FC EQ PUSH2 0x2D2 JUMPI DUP1 PUSH4 0x95EA7B3 EQ PUSH2 0x2FF JUMPI PUSH2 0x275 JUMP JUMPDEST CALLDATASIZE PUSH2 0x275 JUMPI PUSH2 0x248 PUSH2 0x6A3 JUMP JUMPDEST CALLVALUE LT ISZERO PUSH2 0x273 JUMPI PUSH1 0x40 MLOAD PUSH1 0xE5 PUSH1 0x2 EXP PUSH3 0x461BCD MUL DUP2 MSTORE PUSH1 0x4 ADD PUSH2 0x26A SWAP1 PUSH2 0x2CC0 JUMP JUMPDEST PUSH1 0x40 MLOAD DUP1 SWAP2 SUB SWAP1 REVERT JUMPDEST STOP JUMPDEST PUSH1 0x0 DUP1 REVERT JUMPDEST CALLVALUE DUP1 ISZERO PUSH2 0x286 JUMPI PUSH1 0x0 DUP1 REVERT JUMPDEST POP PUSH2 0x29A PUSH2 0x295 CALLDATASIZE PUSH1 0x4 PUSH2 0x23C5 JUMP JUMPDEST PUSH2 0x6A9 JUMP JUMPDEST PUSH1 0x40 MLOAD PUSH2 0x2A7 SWAP2 SWAP1 PUSH2 0x2572 JUMP JUMPDEST PUSH1 0x40 MLOAD DUP1 SWAP2 SUB SWAP1 RETURN JUMPDEST CALLVALUE DUP1 ISZERO PUSH2 0x2BC JUMPI PUSH1 0x0 DUP1 REVERT JUMPDEST POP PUSH2 0x2C5 PUSH2 0x6BC JUMP JUMPDEST PUSH1 0x40 MLOAD PUSH2 0x2A7 SWAP2 SWAP1 PUSH2 0x2586 JUMP JUMPDEST CALLVALUE DUP1 ISZERO PUSH2 0x2DE JUMPI PUSH1 0x0 DUP1 REVERT JUMPDEST POP PUSH2 0x2F2 PUSH2 0x2ED CALLDATASIZE PUSH1 0x4 PUSH2 0x2389 JUMP JUMPDEST PUSH2 0x74E JUMP JUMPDEST PUSH1 0x40 MLOAD PUSH2 0x2A7 SWAP2 SWAP1 PUSH2 0x2522 JUMP JUMPDEST CALLVALUE DUP1 ISZERO PUSH2 0x30B JUMPI PUSH1 0x0 DUP1 REVERT JUMPDEST POP PUSH2 0x273 PUSH2 0x31A CALLDATASIZE PUSH1 0x4 PUSH2 0x235E JUMP JUMPDEST PUSH2 0x794 JUMP JUMPDEST CALLVALUE DUP1 ISZERO PUSH2 0x32B JUMPI PUSH1 0x0 DUP1 REVERT JUMPDEST POP PUSH2 0x334 PUSH2 0x832 JUMP JUMPDEST PUSH1 0x40 MLOAD PUSH2 0x2A7 SWAP2 SWAP1 PUSH2 0x257D JUMP JUMPDEST CALLVALUE DUP1 ISZERO PUSH2 0x34D JUMPI PUSH1 0x0 DUP1 REVERT JUMPDEST POP PUSH2 0x334 PUSH2 0x837 JUMP JUMPDEST CALLVALUE DUP1 ISZERO PUSH2 0x362 JUMPI PUSH1 0x0 DUP1 REVERT JUMPDEST POP PUSH2 0x273 PUSH2 0x371 CALLDATASIZE PUSH1 0x4 PUSH2 0x2270 JUMP JUMPDEST PUSH2 0x83D JUMP JUMPDEST CALLVALUE DUP1 ISZERO PUSH2 0x382 JUMPI PUSH1 0x0 DUP1 REVERT JUMPDEST POP PUSH2 0x334 PUSH2 0x391 CALLDATASIZE PUSH1 0x4 PUSH2 0x2389 JUMP JUMPDEST PUSH2 0x878 JUMP JUMPDEST CALLVALUE DUP1 ISZERO PUSH2 0x3A2 JUMPI PUSH1 0x0 DUP1 REVERT JUMPDEST POP PUSH2 0x273 PUSH2 0x3B1 CALLDATASIZE PUSH1 0x4 PUSH2 0x23A1 JUMP JUMPDEST PUSH2 0x88D JUMP JUMPDEST CALLVALUE DUP1 ISZERO PUSH2 0x3C2 JUMPI PUSH1 0x0 DUP1 REVERT JUMPDEST POP PUSH2 0x334 PUSH2 0x3D1 CALLDATASIZE PUSH1 0x4 PUSH2 0x235E JUMP JUMPDEST PUSH2 0x8B1 JUMP JUMPDEST CALLVALUE DUP1 ISZERO PUSH2 0x3E2 JUMPI PUSH1 0x0 DUP1 REVERT JUMPDEST POP PUSH2 0x334 PUSH2 0x906 JUMP JUMPDEST CALLVALUE DUP1 ISZERO PUSH2 0x3F7 JUMPI PUSH1 0x0 DUP1 REVERT JUMPDEST POP PUSH2 0x273 PUSH2 0x406 CALLDATASIZE PUSH1 0x4 PUSH2 0x23A1 JUMP JUMPDEST PUSH2 0x92A JUMP JUMPDEST CALLVALUE DUP1 ISZERO PUSH2 0x417 JUMPI PUSH1 0x0 DUP1 REVERT JUMPDEST POP PUSH2 0x273 PUSH2 0x973 JUMP JUMPDEST CALLVALUE DUP1 ISZERO PUSH2 0x42C JUMPI PUSH1 0x0 DUP1 REVERT JUMPDEST POP PUSH2 0x273 PUSH2 0x43B CALLDATASIZE PUSH1 0x4 PUSH2 0x2270 JUMP JUMPDEST PUSH2 0x9AB JUMP JUMPDEST CALLVALUE DUP1 ISZERO PUSH2 0x44C JUMPI PUSH1 0x0 DUP1 REVERT JUMPDEST POP PUSH2 0x273 PUSH2 0x45B CALLDATASIZE PUSH1 0x4 PUSH2 0x2389 JUMP JUMPDEST PUSH2 0x9C6 JUMP JUMPDEST CALLVALUE DUP1 ISZERO PUSH2 0x46C JUMPI PUSH1 0x0 DUP1 REVERT JUMPDEST POP PUSH2 0x334 PUSH2 0x47B CALLDATASIZE PUSH1 0x4 PUSH2 0x2389 JUMP JUMPDEST PUSH2 0x9F9 JUMP JUMPDEST CALLVALUE DUP1 ISZERO PUSH2 0x48C JUMPI PUSH1 0x0 DUP1 REVERT JUMPDEST POP PUSH2 0x273 PUSH2 0x49B CALLDATASIZE PUSH1 0x4 PUSH2 0x221C JUMP JUMPDEST PUSH2 0xA5A JUMP JUMPDEST CALLVALUE DUP1 ISZERO PUSH2 0x4AC JUMPI PUSH1 0x0 DUP1 REVERT JUMPDEST POP PUSH2 0x29A PUSH2 0xAA5 JUMP JUMPDEST CALLVALUE DUP1 ISZERO PUSH2 0x4C1 JUMPI PUSH1 0x0 DUP1 REVERT JUMPDEST POP PUSH2 0x2F2 PUSH2 0x4D0 CALLDATASIZE PUSH1 0x4 PUSH2 0x2389 JUMP JUMPDEST PUSH2 0xAAE JUMP JUMPDEST CALLVALUE DUP1 ISZERO PUSH2 0x4E1 JUMPI PUSH1 0x0 DUP1 REVERT JUMPDEST POP PUSH2 0x334 PUSH2 0x4F0 CALLDATASIZE PUSH1 0x4 PUSH2 0x221C JUMP JUMPDEST PUSH2 0xAE6 JUMP JUMPDEST CALLVALUE DUP1 ISZERO PUSH2 0x501 JUMPI PUSH1 0x0 DUP1 REVERT JUMPDEST POP PUSH2 0x2F2 PUSH2 0xB2D JUMP JUMPDEST CALLVALUE DUP1 ISZERO PUSH2 0x516 JUMPI PUSH1 0x0 DUP1 REVERT JUMPDEST POP PUSH2 0x334 PUSH2 0x6A3 JUMP JUMPDEST CALLVALUE DUP1 ISZERO PUSH2 0x52B JUMPI PUSH1 0x0 DUP1 REVERT JUMPDEST POP PUSH2 0x273 PUSH2 0xB31 JUMP JUMPDEST CALLVALUE DUP1 ISZERO PUSH2 0x540 JUMPI PUSH1 0x0 DUP1 REVERT JUMPDEST POP PUSH2 0x29A PUSH2 0x54F CALLDATASIZE PUSH1 0x4 PUSH2 0x23A1 JUMP JUMPDEST PUSH2 0xB66 JUMP JUMPDEST CALLVALUE DUP1 ISZERO PUSH2 0x560 JUMPI PUSH1 0x0 DUP1 REVERT JUMPDEST POP PUSH2 0x2C5 PUSH2 0xB91 JUMP JUMPDEST CALLVALUE DUP1 ISZERO PUSH2 0x575 JUMPI PUSH1 0x0 DUP1 REVERT JUMPDEST POP PUSH2 0x334 PUSH2 0xBA0 JUMP JUMPDEST CALLVALUE DUP1 ISZERO PUSH2 0x58A JUMPI PUSH1 0x0 DUP1 REVERT JUMPDEST POP PUSH2 0x273 PUSH2 0x599 CALLDATASIZE PUSH1 0x4 PUSH2 0x232D JUMP JUMPDEST PUSH2 0xBA5 JUMP JUMPDEST CALLVALUE DUP1 ISZERO PUSH2 0x5AA JUMPI PUSH1 0x0 DUP1 REVERT JUMPDEST POP PUSH2 0x273 PUSH2 0x5B9 CALLDATASIZE PUSH1 0x4 PUSH2 0x22B0 JUMP JUMPDEST PUSH2 0xC76 JUMP JUMPDEST CALLVALUE DUP1 ISZERO PUSH2 0x5CA JUMPI PUSH1 0x0 DUP1 REVERT JUMPDEST POP PUSH2 0x2C5 PUSH2 0x5D9 CALLDATASIZE PUSH1 0x4 PUSH2 0x2389 JUMP JUMPDEST PUSH2 0xCB8 JUMP JUMPDEST CALLVALUE DUP1 ISZERO PUSH2 0x5EA JUMPI PUSH1 0x0 DUP1 REVERT JUMPDEST POP PUSH2 0x2F2 PUSH2 0xCC3 JUMP JUMPDEST CALLVALUE DUP1 ISZERO PUSH2 0x5FF JUMPI PUSH1 0x0 DUP1 REVERT JUMPDEST POP PUSH2 0x334 PUSH2 0xCD2 JUMP JUMPDEST CALLVALUE DUP1 ISZERO PUSH2 0x614 JUMPI PUSH1 0x0 DUP1 REVERT JUMPDEST POP PUSH2 0x273 PUSH2 0x623 CALLDATASIZE PUSH1 0x4 PUSH2 0x23A1 JUMP JUMPDEST PUSH2 0xCF6 JUMP JUMPDEST PUSH2 0x273 PUSH2 0x636 CALLDATASIZE PUSH1 0x4 PUSH2 0x23FD JUMP JUMPDEST PUSH2 0xD15 JUMP JUMPDEST PUSH2 0x273 PUSH2 0x649 CALLDATASIZE PUSH1 0x4 PUSH2 0x221C JUMP JUMPDEST PUSH2 0xD9B JUMP JUMPDEST CALLVALUE DUP1 ISZERO PUSH2 0x65A JUMPI PUSH1 0x0 DUP1 REVERT JUMPDEST POP PUSH2 0x334 PUSH2 0xE1A JUMP JUMPDEST CALLVALUE DUP1 ISZERO PUSH2 0x66F JUMPI PUSH1 0x0 DUP1 REVERT JUMPDEST POP PUSH2 0x29A PUSH2 0x67E CALLDATASIZE PUSH1 0x4 PUSH2 0x2238 JUMP JUMPDEST PUSH2 0xE3E JUMP JUMPDEST CALLVALUE DUP1 ISZERO PUSH2 0x68F JUMPI PUSH1 0x0 DUP1 REVERT JUMPDEST POP PUSH2 0x273 PUSH2 0x69E CALLDATASIZE PUSH1 0x4 PUSH2 0x2389 JUMP JUMPDEST PUSH2 0xE6C JUMP JUMPDEST PUSH1 0xF SLOAD SWAP1 JUMP JUMPDEST PUSH1 0x0 PUSH2 0x6B4 DUP3 PUSH2 0xEE5 JUMP JUMPDEST SWAP1 POP JUMPDEST SWAP2 SWAP1 POP JUMP JUMPDEST PUSH1 0x60 PUSH1 0x0 DUP1 SLOAD PUSH2 0x6CB SWAP1 PUSH2 0x2F36 JUMP JUMPDEST DUP1 PUSH1 0x1F ADD PUSH1 0x20 DUP1 SWAP2 DIV MUL PUSH1 0x20 ADD PUSH1 0x40 MLOAD SWAP1 DUP2 ADD PUSH1 0x40 MSTORE DUP1 SWAP3 SWAP2 SWAP1 DUP2 DUP2 MSTORE PUSH1 0x20 ADD DUP3 DUP1 SLOAD PUSH2 0x6F7 SWAP1 PUSH2 0x2F36 JUMP JUMPDEST DUP1 ISZERO PUSH2 0x744 JUMPI DUP1 PUSH1 0x1F LT PUSH2 0x719 JUMPI PUSH2 0x100 DUP1 DUP4 SLOAD DIV MUL DUP4 MSTORE SWAP2 PUSH1 0x20 ADD SWAP2 PUSH2 0x744 JUMP JUMPDEST DUP3 ADD SWAP2 SWAP1 PUSH1 0x0 MSTORE PUSH1 0x20 PUSH1 0x0 KECCAK256 SWAP1 JUMPDEST DUP2 SLOAD DUP2 MSTORE SWAP1 PUSH1 0x1 ADD SWAP1 PUSH1 0x20 ADD DUP1 DUP4 GT PUSH2 0x727 JUMPI DUP3 SWAP1 SUB PUSH1 0x1F AND DUP3 ADD SWAP2 JUMPDEST POP POP POP POP POP SWAP1 POP SWAP1 JUMP JUMPDEST PUSH1 0x0 PUSH2 0x759 DUP3 PUSH2 0xF23 JUMP JUMPDEST PUSH2 0x778 JUMPI PUSH1 0x40 MLOAD PUSH1 0xE5 PUSH1 0x2 EXP PUSH3 0x461BCD MUL DUP2 MSTORE PUSH1 0x4 ADD PUSH2 0x26A SWAP1 PUSH2 0x2B4C JUMP JUMPDEST POP PUSH1 0x0 SWAP1 DUP2 MSTORE PUSH1 0x4 PUSH1 0x20 MSTORE PUSH1 0x40 SWAP1 KECCAK256 SLOAD PUSH1 0x1 PUSH1 0xA0 PUSH1 0x2 EXP SUB AND SWAP1 JUMP JUMPDEST PUSH1 0x0 PUSH2 0x79F DUP3 PUSH2 0xAAE JUMP JUMPDEST SWAP1 POP DUP1 PUSH1 0x1 PUSH1 0xA0 PUSH1 0x2 EXP SUB AND DUP4 PUSH1 0x1 PUSH1 0xA0 PUSH1 0x2 EXP SUB AND EQ ISZERO PUSH2 0x7D6 JUMPI PUSH1 0x40 MLOAD PUSH1 0xE5 PUSH1 0x2 EXP PUSH3 0x461BCD MUL DUP2 MSTORE PUSH1 0x4 ADD PUSH2 0x26A SWAP1 PUSH2 0x2C63 JUMP JUMPDEST DUP1 PUSH1 0x1 PUSH1 0xA0 PUSH1 0x2 EXP SUB AND PUSH2 0x7E8 PUSH2 0xF40 JUMP JUMPDEST PUSH1 0x1 PUSH1 0xA0 PUSH1 0x2 EXP SUB AND EQ DUP1 PUSH2 0x804 JUMPI POP PUSH2 0x804 DUP2 PUSH2 0x67E PUSH2 0xF40 JUMP JUMPDEST PUSH2 0x823 JUMPI PUSH1 0x40 MLOAD PUSH1 0xE5 PUSH1 0x2 EXP PUSH3 0x461BCD MUL DUP2 MSTORE PUSH1 0x4 ADD PUSH2 0x26A SWAP1 PUSH2 0x28E9 JUMP JUMPDEST PUSH2 0x82D DUP4 DUP4 PUSH2 0xF44 JUMP JUMPDEST POP POP POP JUMP JUMPDEST ADDRESS BALANCE SWAP1 JUMP JUMPDEST PUSH1 0x8 SLOAD SWAP1 JUMP JUMPDEST PUSH2 0x84E PUSH2 0x848 PUSH2 0xF40 JUMP JUMPDEST DUP3 PUSH2 0xFBF JUMP JUMPDEST PUSH2 0x86D JUMPI PUSH1 0x40 MLOAD PUSH1 0xE5 PUSH1 0x2 EXP PUSH3 0x461BCD MUL DUP2 MSTORE PUSH1 0x4 ADD PUSH2 0x26A SWAP1 PUSH2 0x2D1D JUMP JUMPDEST PUSH2 0x82D DUP4 DUP4 DUP4 PUSH2 0x1047 JUMP JUMPDEST PUSH1 0x0 SWAP1 DUP2 MSTORE PUSH1 0xC PUSH1 0x20 MSTORE PUSH1 0x40 SWAP1 KECCAK256 PUSH1 0x1 ADD SLOAD SWAP1 JUMP JUMPDEST PUSH2 0x896 DUP3 PUSH2 0x878 JUMP JUMPDEST PUSH2 0x8A7 DUP2 PUSH2 0x8A2 PUSH2 0xF40 JUMP JUMPDEST PUSH2 0x1187 JUMP JUMPDEST PUSH2 0x82D DUP4 DUP4 PUSH2 0x11EE JUMP JUMPDEST PUSH1 0x0 PUSH2 0x8BC DUP4 PUSH2 0xAE6 JUMP JUMPDEST DUP3 LT PUSH2 0x8DD JUMPI PUSH1 0x40 MLOAD PUSH1 0xE5 PUSH1 0x2 EXP PUSH3 0x461BCD MUL DUP2 MSTORE PUSH1 0x4 ADD PUSH2 0x26A SWAP1 PUSH2 0x2605 JUMP JUMPDEST POP PUSH1 0x1 PUSH1 0xA0 PUSH1 0x2 EXP SUB SWAP2 SWAP1 SWAP2 AND PUSH1 0x0 SWAP1 DUP2 MSTORE PUSH1 0x6 PUSH1 0x20 SWAP1 DUP2 MSTORE PUSH1 0x40 DUP1 DUP4 KECCAK256 SWAP4 DUP4 MSTORE SWAP3 SWAP1 MSTORE KECCAK256 SLOAD SWAP1 JUMP JUMPDEST PUSH32 0x0 SWAP1 JUMP JUMPDEST PUSH2 0x932 PUSH2 0xF40 JUMP JUMPDEST PUSH1 0x1 PUSH1 0xA0 PUSH1 0x2 EXP SUB AND DUP2 PUSH1 0x1 PUSH1 0xA0 PUSH1 0x2 EXP SUB AND EQ PUSH2 0x965 JUMPI PUSH1 0x40 MLOAD PUSH1 0xE5 PUSH1 0x2 EXP PUSH3 0x461BCD MUL DUP2 MSTORE PUSH1 0x4 ADD PUSH2 0x26A SWAP1 PUSH2 0x2E34 JUMP JUMPDEST PUSH2 0x96F DUP3 DUP3 PUSH2 0x1275 JUMP JUMPDEST POP POP JUMP JUMPDEST PUSH32 0x65D7A28E3265B37A6474929F336521B332C1681B933F6CB9F3376673440D862A PUSH2 0x9A0 DUP2 PUSH2 0x8A2 PUSH2 0xF40 JUMP JUMPDEST PUSH2 0x9A8 PUSH2 0x12FA JUMP JUMPDEST POP JUMP JUMPDEST PUSH2 0x82D DUP4 DUP4 DUP4 PUSH1 0x40 MLOAD DUP1 PUSH1 0x20 ADD PUSH1 0x40 MSTORE DUP1 PUSH1 0x0 DUP2 MSTORE POP PUSH2 0xC76 JUMP JUMPDEST PUSH2 0x9D1 PUSH2 0x848 PUSH2 0xF40 JUMP JUMPDEST PUSH2 0x9F0 JUMPI PUSH1 0x40 MLOAD PUSH1 0xE5 PUSH1 0x2 EXP PUSH3 0x461BCD MUL DUP2 MSTORE PUSH1 0x4 ADD PUSH2 0x26A SWAP1 PUSH2 0x2DD7 JUMP JUMPDEST PUSH2 0x9A8 DUP2 PUSH2 0x136B JUMP JUMPDEST PUSH1 0x0 PUSH2 0xA03 PUSH2 0x837 JUMP JUMPDEST DUP3 LT PUSH2 0xA24 JUMPI PUSH1 0x40 MLOAD PUSH1 0xE5 PUSH1 0x2 EXP PUSH3 0x461BCD MUL DUP2 MSTORE PUSH1 0x4 ADD PUSH2 0x26A SWAP1 PUSH2 0x2D7A JUMP JUMPDEST PUSH1 0x8 DUP3 DUP2 SLOAD DUP2 LT PUSH2 0xA48 JUMPI PUSH1 0xE0 PUSH1 0x2 EXP PUSH4 0x4E487B71 MUL PUSH1 0x0 MSTORE PUSH1 0x32 PUSH1 0x4 MSTORE PUSH1 0x24 PUSH1 0x0 REVERT JUMPDEST SWAP1 PUSH1 0x0 MSTORE PUSH1 0x20 PUSH1 0x0 KECCAK256 ADD SLOAD SWAP1 POP SWAP2 SWAP1 POP JUMP JUMPDEST PUSH1 0x0 PUSH2 0xA68 DUP2 PUSH2 0x8A2 PUSH2 0xF40 JUMP JUMPDEST DUP2 PUSH1 0x1 PUSH1 0xA0 PUSH1 0x2 EXP SUB AND PUSH2 0x8FC PUSH2 0xA7D PUSH2 0x832 JUMP JUMPDEST PUSH1 0x40 MLOAD DUP2 ISZERO SWAP1 SWAP3 MUL SWAP2 PUSH1 0x0 DUP2 DUP2 DUP2 DUP6 DUP9 DUP9 CALL SWAP4 POP POP POP POP ISZERO DUP1 ISZERO PUSH2 0x82D JUMPI RETURNDATASIZE PUSH1 0x0 DUP1 RETURNDATACOPY RETURNDATASIZE PUSH1 0x0 REVERT JUMPDEST PUSH1 0xB SLOAD PUSH1 0xFF AND SWAP1 JUMP JUMPDEST PUSH1 0x0 DUP2 DUP2 MSTORE PUSH1 0x2 PUSH1 0x20 MSTORE PUSH1 0x40 DUP2 KECCAK256 SLOAD PUSH1 0x1 PUSH1 0xA0 PUSH1 0x2 EXP SUB AND DUP1 PUSH2 0x6B4 JUMPI PUSH1 0x40 MLOAD PUSH1 0xE5 PUSH1 0x2 EXP PUSH3 0x461BCD MUL DUP2 MSTORE PUSH1 0x4 ADD PUSH2 0x26A SWAP1 PUSH2 0x29A3 JUMP JUMPDEST PUSH1 0x0 PUSH1 0x1 PUSH1 0xA0 PUSH1 0x2 EXP SUB DUP3 AND PUSH2 0xB11 JUMPI PUSH1 0x40 MLOAD PUSH1 0xE5 PUSH1 0x2 EXP PUSH3 0x461BCD MUL DUP2 MSTORE PUSH1 0x4 ADD PUSH2 0x26A SWAP1 PUSH2 0x2946 JUMP JUMPDEST POP PUSH1 0x1 PUSH1 0xA0 PUSH1 0x2 EXP SUB AND PUSH1 0x0 SWAP1 DUP2 MSTORE PUSH1 0x3 PUSH1 0x20 MSTORE PUSH1 0x40 SWAP1 KECCAK256 SLOAD SWAP1 JUMP JUMPDEST ADDRESS SWAP1 JUMP JUMPDEST PUSH32 0x65D7A28E3265B37A6474929F336521B332C1681B933F6CB9F3376673440D862A PUSH2 0xB5E DUP2 PUSH2 0x8A2 PUSH2 0xF40 JUMP JUMPDEST PUSH2 0x9A8 PUSH2 0x1374 JUMP JUMPDEST PUSH1 0x0 SWAP2 DUP3 MSTORE PUSH1 0xC PUSH1 0x20 SWAP1 DUP2 MSTORE PUSH1 0x40 DUP1 DUP5 KECCAK256 PUSH1 0x1 PUSH1 0xA0 PUSH1 0x2 EXP SUB SWAP4 SWAP1 SWAP4 AND DUP5 MSTORE SWAP2 SWAP1 MSTORE SWAP1 KECCAK256 SLOAD PUSH1 0xFF AND SWAP1 JUMP JUMPDEST PUSH1 0x60 PUSH1 0x1 DUP1 SLOAD PUSH2 0x6CB SWAP1 PUSH2 0x2F36 JUMP JUMPDEST PUSH1 0x0 DUP2 JUMP JUMPDEST PUSH2 0xBAD PUSH2 0xF40 JUMP JUMPDEST PUSH1 0x1 PUSH1 0xA0 PUSH1 0x2 EXP SUB AND DUP3 PUSH1 0x1 PUSH1 0xA0 PUSH1 0x2 EXP SUB AND EQ ISZERO PUSH2 0xBE1 JUMPI PUSH1 0x40 MLOAD PUSH1 0xE5 PUSH1 0x2 EXP PUSH3 0x461BCD MUL DUP2 MSTORE PUSH1 0x4 ADD PUSH2 0x26A SWAP1 PUSH2 0x278A JUMP JUMPDEST DUP1 PUSH1 0x5 PUSH1 0x0 PUSH2 0xBEE PUSH2 0xF40 JUMP JUMPDEST PUSH1 0x1 PUSH1 0xA0 PUSH1 0x2 EXP SUB SWAP1 DUP2 AND DUP3 MSTORE PUSH1 0x20 DUP1 DUP4 ADD SWAP4 SWAP1 SWAP4 MSTORE PUSH1 0x40 SWAP2 DUP3 ADD PUSH1 0x0 SWAP1 DUP2 KECCAK256 SWAP2 DUP8 AND DUP1 DUP3 MSTORE SWAP2 SWAP1 SWAP4 MSTORE SWAP2 KECCAK256 DUP1 SLOAD PUSH1 0xFF NOT AND SWAP3 ISZERO ISZERO SWAP3 SWAP1 SWAP3 OR SWAP1 SWAP2 SSTORE PUSH2 0xC32 PUSH2 0xF40 JUMP JUMPDEST PUSH1 0x1 PUSH1 0xA0 PUSH1 0x2 EXP SUB AND PUSH32 0x17307EAB39AB6107E8899845AD3D59BD9653F200F220920489CA2B5937696C31 DUP4 PUSH1 0x40 MLOAD PUSH2 0xC6A SWAP2 SWAP1 PUSH2 0x2572 JUMP JUMPDEST PUSH1 0x40 MLOAD DUP1 SWAP2 SUB SWAP1 LOG3 POP POP JUMP JUMPDEST PUSH2 0xC87 PUSH2 0xC81 PUSH2 0xF40 JUMP JUMPDEST DUP4 PUSH2 0xFBF JUMP JUMPDEST PUSH2 0xCA6 JUMPI PUSH1 0x40 MLOAD PUSH1 0xE5 PUSH1 0x2 EXP PUSH3 0x461BCD MUL DUP2 MSTORE PUSH1 0x4 ADD PUSH2 0x26A SWAP1 PUSH2 0x2D1D JUMP JUMPDEST PUSH2 0xCB2 DUP5 DUP5 DUP5 DUP5 PUSH2 0x13D2 JUMP JUMPDEST POP POP POP POP JUMP JUMPDEST PUSH1 0x60 PUSH2 0x6B4 DUP3 PUSH2 0x1408 JUMP JUMPDEST PUSH1 0xE SLOAD PUSH1 0x1 PUSH1 0xA0 PUSH1 0x2 EXP SUB AND DUP2 JUMP JUMPDEST PUSH32 0x9F2DF0FED2C77648DE5860A4CC508CD0818C85B8B8A1AB4CEEEF8D981C8956A6 DUP2 JUMP JUMPDEST PUSH2 0xCFF DUP3 PUSH2 0x878 JUMP JUMPDEST PUSH2 0xD0B DUP2 PUSH2 0x8A2 PUSH2 0xF40 JUMP JUMPDEST PUSH2 0x82D DUP4 DUP4 PUSH2 0x1275 JUMP JUMPDEST PUSH2 0xD1D PUSH2 0x906 JUMP JUMPDEST PUSH2 0xD25 PUSH2 0x837 JUMP JUMPDEST GT ISZERO PUSH2 0xD46 JUMPI PUSH1 0x40 MLOAD PUSH1 0xE5 PUSH1 0x2 EXP PUSH3 0x461BCD MUL DUP2 MSTORE PUSH1 0x4 ADD PUSH2 0x26A SWAP1 PUSH2 0x281E JUMP JUMPDEST PUSH1 0xF SLOAD CALLVALUE LT ISZERO PUSH2 0xD6B JUMPI PUSH1 0x40 MLOAD PUSH1 0xE5 PUSH1 0x2 EXP PUSH3 0x461BCD MUL DUP2 MSTORE PUSH1 0x4 ADD PUSH2 0x26A SWAP1 PUSH2 0x288C JUMP JUMPDEST PUSH2 0xD75 PUSH1 0xD PUSH2 0x1524 JUMP JUMPDEST PUSH2 0xD88 CALLER PUSH2 0xD83 PUSH1 0xD PUSH2 0x152D JUMP JUMPDEST PUSH2 0x1531 JUMP JUMPDEST PUSH2 0x9A8 PUSH2 0xD95 PUSH1 0xD PUSH2 0x152D JUMP JUMPDEST DUP3 PUSH2 0x154B JUMP JUMPDEST PUSH1 0x0 DUP2 PUSH1 0x1 PUSH1 0xA0 PUSH1 0x2 EXP SUB AND CALLVALUE PUSH1 0x40 MLOAD PUSH2 0xDB4 SWAP1 PUSH2 0x249E JUMP JUMPDEST PUSH1 0x0 PUSH1 0x40 MLOAD DUP1 DUP4 SUB DUP2 DUP6 DUP8 GAS CALL SWAP3 POP POP POP RETURNDATASIZE DUP1 PUSH1 0x0 DUP2 EQ PUSH2 0xDF1 JUMPI PUSH1 0x40 MLOAD SWAP2 POP PUSH1 0x1F NOT PUSH1 0x3F RETURNDATASIZE ADD AND DUP3 ADD PUSH1 0x40 MSTORE RETURNDATASIZE DUP3 MSTORE RETURNDATASIZE PUSH1 0x0 PUSH1 0x20 DUP5 ADD RETURNDATACOPY PUSH2 0xDF6 JUMP JUMPDEST PUSH1 0x60 SWAP2 POP JUMPDEST POP POP SWAP1 POP DUP1 PUSH2 0x96F JUMPI PUSH1 0x40 MLOAD PUSH1 0xE5 PUSH1 0x2 EXP PUSH3 0x461BCD MUL DUP2 MSTORE PUSH1 0x4 ADD PUSH2 0x26A SWAP1 PUSH2 0x26BF JUMP JUMPDEST PUSH32 0x65D7A28E3265B37A6474929F336521B332C1681B933F6CB9F3376673440D862A DUP2 JUMP JUMPDEST PUSH1 0x1 PUSH1 0xA0 PUSH1 0x2 EXP SUB SWAP2 DUP3 AND PUSH1 0x0 SWAP1 DUP2 MSTORE PUSH1 0x5 PUSH1 0x20 SWAP1 DUP2 MSTORE PUSH1 0x40 DUP1 DUP4 KECCAK256 SWAP4 SWAP1 SWAP5 AND DUP3 MSTORE SWAP2 SWAP1 SWAP2 MSTORE KECCAK256 SLOAD PUSH1 0xFF AND SWAP1 JUMP JUMPDEST PUSH1 0x0 PUSH2 0xE7A DUP2 PUSH2 0x8A2 PUSH2 0xF40 JUMP JUMPDEST PUSH2 0xE85 PUSH1 0x0 CALLER PUSH2 0xB66 JUMP JUMPDEST PUSH2 0xEA4 JUMPI PUSH1 0x40 MLOAD PUSH1 0xE5 PUSH1 0x2 EXP PUSH3 0x461BCD MUL DUP2 MSTORE PUSH1 0x4 ADD PUSH2 0x26A SWAP1 PUSH2 0x2A5D JUMP JUMPDEST PUSH1 0xF DUP3 SWAP1 SSTORE PUSH1 0x40 MLOAD PUSH32 0x7B7F9C0A5D008930272B5F3D461ABC63BD19E74A0B0A0CAA3F9B8136C2CE228C SWAP1 PUSH2 0xED9 SWAP1 DUP5 SWAP1 PUSH2 0x257D JUMP JUMPDEST PUSH1 0x40 MLOAD DUP1 SWAP2 SUB SWAP1 LOG1 POP POP JUMP JUMPDEST PUSH1 0x0 PUSH1 0x1 PUSH1 0xE0 PUSH1 0x2 EXP SUB NOT DUP3 AND PUSH32 0x7965DB0B00000000000000000000000000000000000000000000000000000000 EQ DUP1 PUSH2 0x6B4 JUMPI POP PUSH2 0x6B4 DUP3 PUSH2 0x1592 JUMP JUMPDEST PUSH1 0x0 SWAP1 DUP2 MSTORE PUSH1 0x2 PUSH1 0x20 MSTORE PUSH1 0x40 SWAP1 KECCAK256 SLOAD PUSH1 0x1 PUSH1 0xA0 PUSH1 0x2 EXP SUB AND ISZERO ISZERO SWAP1 JUMP JUMPDEST CALLER SWAP1 JUMP JUMPDEST PUSH1 0x0 DUP2 DUP2 MSTORE PUSH1 0x4 PUSH1 0x20 MSTORE PUSH1 0x40 SWAP1 KECCAK256 DUP1 SLOAD PUSH20 0xFFFFFFFFFFFFFFFFFFFFFFFFFFFFFFFFFFFFFFFF NOT AND PUSH1 0x1 PUSH1 0xA0 PUSH1 0x2 EXP SUB DUP5 AND SWAP1 DUP2 OR SWAP1 SWAP2 SSTORE DUP2 SWAP1 PUSH2 0xF86 DUP3 PUSH2 0xAAE JUMP JUMPDEST PUSH1 0x1 PUSH1 0xA0 PUSH1 0x2 EXP SUB AND PUSH32 0x8C5BE1E5EBEC7D5BD14F71427D1E84F3DD0314C0F7B2291E5B200AC8C7C3B925 PUSH1 0x40 MLOAD PUSH1 0x40 MLOAD DUP1 SWAP2 SUB SWAP1 LOG4 POP POP JUMP JUMPDEST PUSH1 0x0 PUSH2 0xFCA DUP3 PUSH2 0xF23 JUMP JUMPDEST PUSH2 0xFE9 JUMPI PUSH1 0x40 MLOAD PUSH1 0xE5 PUSH1 0x2 EXP PUSH3 0x461BCD MUL DUP2 MSTORE PUSH1 0x4 ADD PUSH2 0x26A SWAP1 PUSH2 0x27C1 JUMP JUMPDEST PUSH1 0x0 PUSH2 0xFF4 DUP4 PUSH2 0xAAE JUMP JUMPDEST SWAP1 POP DUP1 PUSH1 0x1 PUSH1 0xA0 PUSH1 0x2 EXP SUB AND DUP5 PUSH1 0x1 PUSH1 0xA0 PUSH1 0x2 EXP SUB AND EQ DUP1 PUSH2 0x102F JUMPI POP DUP4 PUSH1 0x1 PUSH1 0xA0 PUSH1 0x2 EXP SUB AND PUSH2 0x1024 DUP5 PUSH2 0x74E JUMP JUMPDEST PUSH1 0x1 PUSH1 0xA0 PUSH1 0x2 EXP SUB AND EQ JUMPDEST DUP1 PUSH2 0x103F JUMPI POP PUSH2 0x103F DUP2 DUP6 PUSH2 0xE3E JUMP JUMPDEST SWAP5 SWAP4 POP POP POP POP JUMP JUMPDEST DUP3 PUSH1 0x1 PUSH1 0xA0 PUSH1 0x2 EXP SUB AND PUSH2 0x105A DUP3 PUSH2 0xAAE JUMP JUMPDEST PUSH1 0x1 PUSH1 0xA0 PUSH1 0x2 EXP SUB AND EQ PUSH2 0x1083 JUMPI PUSH1 0x40 MLOAD PUSH1 0xE5 PUSH1 0x2 EXP PUSH3 0x461BCD MUL DUP2 MSTORE PUSH1 0x4 ADD PUSH2 0x26A SWAP1 PUSH2 0x2BA9 JUMP JUMPDEST PUSH1 0x1 PUSH1 0xA0 PUSH1 0x2 EXP SUB DUP3 AND PUSH2 0x10AC JUMPI PUSH1 0x40 MLOAD PUSH1 0xE5 PUSH1 0x2 EXP PUSH3 0x461BCD MUL DUP2 MSTORE PUSH1 0x4 ADD PUSH2 0x26A SWAP1 PUSH2 0x272D JUMP JUMPDEST PUSH2 0x10B7 DUP4 DUP4 DUP4 PUSH2 0x15D0 JUMP JUMPDEST PUSH2 0x10C2 PUSH1 0x0 DUP3 PUSH2 0xF44 JUMP JUMPDEST PUSH1 0x1 PUSH1 0xA0 PUSH1 0x2 EXP SUB DUP4 AND PUSH1 0x0 SWAP1 DUP2 MSTORE PUSH1 0x3 PUSH1 0x20 MSTORE PUSH1 0x40 DUP2 KECCAK256 DUP1 SLOAD PUSH1 0x1 SWAP3 SWAP1 PUSH2 0x10EB SWAP1 DUP5 SWAP1 PUSH2 0x2EDC JUMP JUMPDEST SWAP1 SWAP2 SSTORE POP POP PUSH1 0x1 PUSH1 0xA0 PUSH1 0x2 EXP SUB DUP3 AND PUSH1 0x0 SWAP1 DUP2 MSTORE PUSH1 0x3 PUSH1 0x20 MSTORE PUSH1 0x40 DUP2 KECCAK256 DUP1 SLOAD PUSH1 0x1 SWAP3 SWAP1 PUSH2 0x1119 SWAP1 DUP5 SWAP1 PUSH2 0x2E91 JUMP JUMPDEST SWAP1 SWAP2 SSTORE POP POP PUSH1 0x0 DUP2 DUP2 MSTORE PUSH1 0x2 PUSH1 0x20 MSTORE PUSH1 0x40 DUP1 DUP3 KECCAK256 DUP1 SLOAD PUSH20 0xFFFFFFFFFFFFFFFFFFFFFFFFFFFFFFFFFFFFFFFF NOT AND PUSH1 0x1 PUSH1 0xA0 PUSH1 0x2 EXP SUB DUP7 DUP2 AND SWAP2 DUP3 OR SWAP1 SWAP3 SSTORE SWAP2 MLOAD DUP5 SWAP4 SWAP2 DUP8 AND SWAP2 PUSH32 0xDDF252AD1BE2C89B69C2B068FC378DAA952BA7F163C4A11628F55A4DF523B3EF SWAP2 LOG4 POP POP POP JUMP JUMPDEST PUSH2 0x1191 DUP3 DUP3 PUSH2 0xB66 JUMP JUMPDEST PUSH2 0x96F JUMPI PUSH2 0x11A9 DUP2 PUSH1 0x1 PUSH1 0xA0 PUSH1 0x2 EXP SUB AND PUSH1 0x14 PUSH2 0x1603 JUMP JUMPDEST PUSH2 0x11B4 DUP4 PUSH1 0x20 PUSH2 0x1603 JUMP JUMPDEST PUSH1 0x40 MLOAD PUSH1 0x20 ADD PUSH2 0x11C5 SWAP3 SWAP2 SWAP1 PUSH2 0x24A1 JUMP JUMPDEST PUSH1 0x40 DUP1 MLOAD PUSH1 0x1F NOT DUP2 DUP5 SUB ADD DUP2 MSTORE SWAP1 DUP3 SWAP1 MSTORE PUSH1 0xE5 PUSH1 0x2 EXP PUSH3 0x461BCD MUL DUP3 MSTORE PUSH2 0x26A SWAP2 PUSH1 0x4 ADD PUSH2 0x2586 JUMP JUMPDEST PUSH2 0x11F8 DUP3 DUP3 PUSH2 0xB66 JUMP JUMPDEST PUSH2 0x96F JUMPI PUSH1 0x0 DUP3 DUP2 MSTORE PUSH1 0xC PUSH1 0x20 SWAP1 DUP2 MSTORE PUSH1 0x40 DUP1 DUP4 KECCAK256 PUSH1 0x1 PUSH1 0xA0 PUSH1 0x2 EXP SUB DUP6 AND DUP5 MSTORE SWAP1 SWAP2 MSTORE SWAP1 KECCAK256 DUP1 SLOAD PUSH1 0xFF NOT AND PUSH1 0x1 OR SWAP1 SSTORE PUSH2 0x1231 PUSH2 0xF40 JUMP JUMPDEST PUSH1 0x1 PUSH1 0xA0 PUSH1 0x2 EXP SUB AND DUP2 PUSH1 0x1 PUSH1 0xA0 PUSH1 0x2 EXP SUB AND DUP4 PUSH32 0x2F8788117E7EFF1D82E926EC794901D17C78024A50270940304540A733656F0D PUSH1 0x40 MLOAD PUSH1 0x40 MLOAD DUP1 SWAP2 SUB SWAP1 LOG4 POP POP JUMP JUMPDEST PUSH2 0x127F DUP3 DUP3 PUSH2 0xB66 JUMP JUMPDEST ISZERO PUSH2 0x96F JUMPI PUSH1 0x0 DUP3 DUP2 MSTORE PUSH1 0xC PUSH1 0x20 SWAP1 DUP2 MSTORE PUSH1 0x40 DUP1 DUP4 KECCAK256 PUSH1 0x1 PUSH1 0xA0 PUSH1 0x2 EXP SUB DUP6 AND DUP5 MSTORE SWAP1 SWAP2 MSTORE SWAP1 KECCAK256 DUP1 SLOAD PUSH1 0xFF NOT AND SWAP1 SSTORE PUSH2 0x12B6 PUSH2 0xF40 JUMP JUMPDEST PUSH1 0x1 PUSH1 0xA0 PUSH1 0x2 EXP SUB AND DUP2 PUSH1 0x1 PUSH1 0xA0 PUSH1 0x2 EXP SUB AND DUP4 PUSH32 0xF6391F5C32D9C69D2A47EA670B442974B53935D1EDC7FD64EB21E047A839171B PUSH1 0x40 MLOAD PUSH1 0x40 MLOAD DUP1 SWAP2 SUB SWAP1 LOG4 POP POP JUMP JUMPDEST PUSH2 0x1302 PUSH2 0xAA5 JUMP JUMPDEST PUSH2 0x1321 JUMPI PUSH1 0x40 MLOAD PUSH1 0xE5 PUSH1 0x2 EXP PUSH3 0x461BCD MUL DUP2 MSTORE PUSH1 0x4 ADD PUSH2 0x26A SWAP1 PUSH2 0x25CE JUMP JUMPDEST PUSH1 0xB DUP1 SLOAD PUSH1 0xFF NOT AND SWAP1 SSTORE PUSH32 0x5DB9EE0A495BF2E6FF9C91A7834C1BA4FDD244A5E8AA4E537BD38AEAE4B073AA PUSH2 0x1354 PUSH2 0xF40 JUMP JUMPDEST PUSH1 0x40 MLOAD PUSH2 0x1361 SWAP2 SWAP1 PUSH2 0x2522 JUMP JUMPDEST PUSH1 0x40 MLOAD DUP1 SWAP2 SUB SWAP1 LOG1 JUMP JUMPDEST PUSH2 0x9A8 DUP2 PUSH2 0x1831 JUMP JUMPDEST PUSH2 0x137C PUSH2 0xAA5 JUMP JUMPDEST ISZERO PUSH2 0x139C JUMPI PUSH1 0x40 MLOAD PUSH1 0xE5 PUSH1 0x2 EXP PUSH3 0x461BCD MUL DUP2 MSTORE PUSH1 0x4 ADD PUSH2 0x26A SWAP1 PUSH2 0x2855 JUMP JUMPDEST PUSH1 0xB DUP1 SLOAD PUSH1 0xFF NOT AND PUSH1 0x1 OR SWAP1 SSTORE PUSH32 0x62E78CEA01BEE320CD4E420270B5EA74000D11B0C9F74754EBDBFC544B05A258 PUSH2 0x1354 PUSH2 0xF40 JUMP JUMPDEST PUSH2 0x13DD DUP5 DUP5 DUP5 PUSH2 0x1047 JUMP JUMPDEST PUSH2 0x13E9 DUP5 DUP5 DUP5 DUP5 PUSH2 0x1871 JUMP JUMPDEST PUSH2 0xCB2 JUMPI PUSH1 0x40 MLOAD PUSH1 0xE5 PUSH1 0x2 EXP PUSH3 0x461BCD MUL DUP2 MSTORE PUSH1 0x4 ADD PUSH2 0x26A SWAP1 PUSH2 0x2662 JUMP JUMPDEST PUSH1 0x60 PUSH2 0x1413 DUP3 PUSH2 0xF23 JUMP JUMPDEST PUSH2 0x1432 JUMPI PUSH1 0x40 MLOAD PUSH1 0xE5 PUSH1 0x2 EXP PUSH3 0x461BCD MUL DUP2 MSTORE PUSH1 0x4 ADD PUSH2 0x26A SWAP1 PUSH2 0x2AEF JUMP JUMPDEST PUSH1 0x0 DUP3 DUP2 MSTORE PUSH1 0xA PUSH1 0x20 MSTORE PUSH1 0x40 DUP2 KECCAK256 DUP1 SLOAD PUSH2 0x144B SWAP1 PUSH2 0x2F36 JUMP JUMPDEST DUP1 PUSH1 0x1F ADD PUSH1 0x20 DUP1 SWAP2 DIV MUL PUSH1 0x20 ADD PUSH1 0x40 MLOAD SWAP1 DUP2 ADD PUSH1 0x40 MSTORE DUP1 SWAP3 SWAP2 SWAP1 DUP2 DUP2 MSTORE PUSH1 0x20 ADD DUP3 DUP1 SLOAD PUSH2 0x1477 SWAP1 PUSH2 0x2F36 JUMP JUMPDEST DUP1 ISZERO PUSH2 0x14C4 JUMPI DUP1 PUSH1 0x1F LT PUSH2 0x1499 JUMPI PUSH2 0x100 DUP1 DUP4 SLOAD DIV MUL DUP4 MSTORE SWAP2 PUSH1 0x20 ADD SWAP2 PUSH2 0x14C4 JUMP JUMPDEST DUP3 ADD SWAP2 SWAP1 PUSH1 0x0 MSTORE PUSH1 0x20 PUSH1 0x0 KECCAK256 SWAP1 JUMPDEST DUP2 SLOAD DUP2 MSTORE SWAP1 PUSH1 0x1 ADD SWAP1 PUSH1 0x20 ADD DUP1 DUP4 GT PUSH2 0x14A7 JUMPI DUP3 SWAP1 SUB PUSH1 0x1F AND DUP3 ADD SWAP2 JUMPDEST POP POP POP POP POP SWAP1 POP PUSH1 0x0 PUSH2 0x14D5 PUSH2 0x19C4 JUMP JUMPDEST SWAP1 POP DUP1 MLOAD PUSH1 0x0 EQ ISZERO PUSH2 0x14E9 JUMPI POP SWAP1 POP PUSH2 0x6B7 JUMP JUMPDEST DUP2 MLOAD ISZERO PUSH2 0x151B JUMPI DUP1 DUP3 PUSH1 0x40 MLOAD PUSH1 0x20 ADD PUSH2 0x1503 SWAP3 SWAP2 SWAP1 PUSH2 0x246F JUMP JUMPDEST PUSH1 0x40 MLOAD PUSH1 0x20 DUP2 DUP4 SUB SUB DUP2 MSTORE SWAP1 PUSH1 0x40 MSTORE SWAP3 POP POP POP PUSH2 0x6B7 JUMP JUMPDEST PUSH2 0x103F DUP5 PUSH2 0x19E4 JUMP JUMPDEST DUP1 SLOAD PUSH1 0x1 ADD SWAP1 SSTORE JUMP JUMPDEST SLOAD SWAP1 JUMP JUMPDEST PUSH2 0x96F DUP3 DUP3 PUSH1 0x40 MLOAD DUP1 PUSH1 0x20 ADD PUSH1 0x40 MSTORE DUP1 PUSH1 0x0 DUP2 MSTORE POP PUSH2 0x1A69 JUMP JUMPDEST PUSH2 0x1554 DUP3 PUSH2 0xF23 JUMP JUMPDEST PUSH2 0x1573 JUMPI PUSH1 0x40 MLOAD PUSH1 0xE5 PUSH1 0x2 EXP PUSH3 0x461BCD MUL DUP2 MSTORE PUSH1 0x4 ADD PUSH2 0x26A SWAP1 PUSH2 0x2A00 JUMP JUMPDEST PUSH1 0x0 DUP3 DUP2 MSTORE PUSH1 0xA PUSH1 0x20 SWAP1 DUP2 MSTORE PUSH1 0x40 SWAP1 SWAP2 KECCAK256 DUP3 MLOAD PUSH2 0x82D SWAP3 DUP5 ADD SWAP1 PUSH2 0x20DB JUMP JUMPDEST PUSH1 0x0 PUSH1 0x1 PUSH1 0xE0 PUSH1 0x2 EXP SUB NOT DUP3 AND PUSH32 0x780E9D6300000000000000000000000000000000000000000000000000000000 EQ DUP1 PUSH2 0x6B4 JUMPI POP PUSH2 0x6B4 DUP3 PUSH2 0x1A9F JUMP JUMPDEST PUSH2 0x15D8 PUSH2 0xAA5 JUMP JUMPDEST ISZERO PUSH2 0x15F8 JUMPI PUSH1 0x40 MLOAD PUSH1 0xE5 PUSH1 0x2 EXP PUSH3 0x461BCD MUL DUP2 MSTORE PUSH1 0x4 ADD PUSH2 0x26A SWAP1 PUSH2 0x2855 JUMP JUMPDEST PUSH2 0x82D DUP4 DUP4 DUP4 PUSH2 0x1B11 JUMP JUMPDEST PUSH1 0x60 PUSH1 0x0 PUSH2 0x1612 DUP4 PUSH1 0x2 PUSH2 0x2EBD JUMP JUMPDEST PUSH2 0x161D SWAP1 PUSH1 0x2 PUSH2 0x2E91 JUMP JUMPDEST PUSH8 0xFFFFFFFFFFFFFFFF DUP2 GT ISZERO PUSH2 0x1646 JUMPI PUSH1 0xE0 PUSH1 0x2 EXP PUSH4 0x4E487B71 MUL PUSH1 0x0 MSTORE PUSH1 0x41 PUSH1 0x4 MSTORE PUSH1 0x24 PUSH1 0x0 REVERT JUMPDEST PUSH1 0x40 MLOAD SWAP1 DUP1 DUP3 MSTORE DUP1 PUSH1 0x1F ADD PUSH1 0x1F NOT AND PUSH1 0x20 ADD DUP3 ADD PUSH1 0x40 MSTORE DUP1 ISZERO PUSH2 0x1670 JUMPI PUSH1 0x20 DUP3 ADD DUP2 DUP1 CALLDATASIZE DUP4 CALLDATACOPY ADD SWAP1 POP JUMPDEST POP SWAP1 POP PUSH32 0x3000000000000000000000000000000000000000000000000000000000000000 DUP2 PUSH1 0x0 DUP2 MLOAD DUP2 LT PUSH2 0x16B8 JUMPI PUSH1 0xE0 PUSH1 0x2 EXP PUSH4 0x4E487B71 MUL PUSH1 0x0 MSTORE PUSH1 0x32 PUSH1 0x4 MSTORE PUSH1 0x24 PUSH1 0x0 REVERT JUMPDEST PUSH1 0x20 ADD ADD SWAP1 PUSH1 0x1 PUSH1 0xF8 PUSH1 0x2 EXP SUB NOT AND SWAP1 DUP2 PUSH1 0x0 BYTE SWAP1 MSTORE8 POP PUSH32 0x7800000000000000000000000000000000000000000000000000000000000000 DUP2 PUSH1 0x1 DUP2 MLOAD DUP2 LT PUSH2 0x1714 JUMPI PUSH1 0xE0 PUSH1 0x2 EXP PUSH4 0x4E487B71 MUL PUSH1 0x0 MSTORE PUSH1 0x32 PUSH1 0x4 MSTORE PUSH1 0x24 PUSH1 0x0 REVERT JUMPDEST PUSH1 0x20 ADD ADD SWAP1 PUSH1 0x1 PUSH1 0xF8 PUSH1 0x2 EXP SUB NOT AND SWAP1 DUP2 PUSH1 0x0 BYTE SWAP1 MSTORE8 POP PUSH1 0x0 PUSH2 0x1738 DUP5 PUSH1 0x2 PUSH2 0x2EBD JUMP JUMPDEST PUSH2 0x1743 SWAP1 PUSH1 0x1 PUSH2 0x2E91 JUMP JUMPDEST SWAP1 POP JUMPDEST PUSH1 0x1 DUP2 GT ISZERO PUSH2 0x1808 JUMPI PUSH32 0x3031323334353637383961626364656600000000000000000000000000000000 DUP6 PUSH1 0xF AND PUSH1 0x10 DUP2 LT PUSH2 0x1795 JUMPI PUSH1 0xE0 PUSH1 0x2 EXP PUSH4 0x4E487B71 MUL PUSH1 0x0 MSTORE PUSH1 0x32 PUSH1 0x4 MSTORE PUSH1 0x24 PUSH1 0x0 REVERT JUMPDEST BYTE PUSH32 0x100000000000000000000000000000000000000000000000000000000000000 MUL DUP3 DUP3 DUP2 MLOAD DUP2 LT PUSH2 0x17DB JUMPI PUSH1 0xE0 PUSH1 0x2 EXP PUSH4 0x4E487B71 MUL PUSH1 0x0 MSTORE PUSH1 0x32 PUSH1 0x4 MSTORE PUSH1 0x24 PUSH1 0x0 REVERT JUMPDEST PUSH1 0x20 ADD ADD SWAP1 PUSH1 0x1 PUSH1 0xF8 PUSH1 0x2 EXP SUB NOT AND SWAP1 DUP2 PUSH1 0x0 BYTE SWAP1 MSTORE8 POP PUSH1 0x10 SWAP1 SWAP5 DIV SWAP4 PUSH2 0x1801 DUP2 PUSH2 0x2F1F JUMP JUMPDEST SWAP1 POP PUSH2 0x1746 JUMP JUMPDEST POP DUP4 ISZERO PUSH2 0x182A JUMPI PUSH1 0x40 MLOAD PUSH1 0xE5 PUSH1 0x2 EXP PUSH3 0x461BCD MUL DUP2 MSTORE PUSH1 0x4 ADD PUSH2 0x26A SWAP1 PUSH2 0x2599 JUMP JUMPDEST SWAP4 SWAP3 POP POP POP JUMP JUMPDEST PUSH2 0x183A DUP2 PUSH2 0x1B9A JUMP JUMPDEST PUSH1 0x0 DUP2 DUP2 MSTORE PUSH1 0xA PUSH1 0x20 MSTORE PUSH1 0x40 SWAP1 KECCAK256 DUP1 SLOAD PUSH2 0x1853 SWAP1 PUSH2 0x2F36 JUMP JUMPDEST ISZERO SWAP1 POP PUSH2 0x9A8 JUMPI PUSH1 0x0 DUP2 DUP2 MSTORE PUSH1 0xA PUSH1 0x20 MSTORE PUSH1 0x40 DUP2 KECCAK256 PUSH2 0x9A8 SWAP2 PUSH2 0x215F JUMP JUMPDEST PUSH1 0x0 PUSH2 0x1885 DUP5 PUSH1 0x1 PUSH1 0xA0 PUSH1 0x2 EXP SUB AND PUSH2 0x1C4E JUMP JUMPDEST ISZERO PUSH2 0x19B9 JUMPI DUP4 PUSH1 0x1 PUSH1 0xA0 PUSH1 0x2 EXP SUB AND PUSH4 0x150B7A02 PUSH2 0x18A1 PUSH2 0xF40 JUMP JUMPDEST DUP8 DUP7 DUP7 PUSH1 0x40 MLOAD DUP6 PUSH4 0xFFFFFFFF AND PUSH29 0x100000000000000000000000000000000000000000000000000000000 MUL DUP2 MSTORE PUSH1 0x4 ADD PUSH2 0x18DF SWAP5 SWAP4 SWAP3 SWAP2 SWAP1 PUSH2 0x2536 JUMP JUMPDEST PUSH1 0x20 PUSH1 0x40 MLOAD DUP1 DUP4 SUB DUP2 PUSH1 0x0 DUP8 DUP1 EXTCODESIZE ISZERO DUP1 ISZERO PUSH2 0x18F9 JUMPI PUSH1 0x0 DUP1 REVERT JUMPDEST POP GAS CALL SWAP3 POP POP POP DUP1 ISZERO PUSH2 0x1929 JUMPI POP PUSH1 0x40 DUP1 MLOAD PUSH1 0x1F RETURNDATASIZE SWAP1 DUP2 ADD PUSH1 0x1F NOT AND DUP3 ADD SWAP1 SWAP3 MSTORE PUSH2 0x1926 SWAP2 DUP2 ADD SWAP1 PUSH2 0x23E1 JUMP JUMPDEST PUSH1 0x1 JUMPDEST PUSH2 0x1986 JUMPI RETURNDATASIZE DUP1 DUP1 ISZERO PUSH2 0x1957 JUMPI PUSH1 0x40 MLOAD SWAP2 POP PUSH1 0x1F NOT PUSH1 0x3F RETURNDATASIZE ADD AND DUP3 ADD PUSH1 0x40 MSTORE RETURNDATASIZE DUP3 MSTORE RETURNDATASIZE PUSH1 0x0 PUSH1 0x20 DUP5 ADD RETURNDATACOPY PUSH2 0x195C JUMP JUMPDEST PUSH1 0x60 SWAP2 POP JUMPDEST POP DUP1 MLOAD PUSH2 0x197E JUMPI PUSH1 0x40 MLOAD PUSH1 0xE5 PUSH1 0x2 EXP PUSH3 0x461BCD MUL DUP2 MSTORE PUSH1 0x4 ADD PUSH2 0x26A SWAP1 PUSH2 0x2662 JUMP JUMPDEST DUP1 MLOAD DUP2 PUSH1 0x20 ADD REVERT JUMPDEST PUSH1 0x1 PUSH1 0xE0 PUSH1 0x2 EXP SUB NOT AND PUSH32 0x150B7A0200000000000000000000000000000000000000000000000000000000 EQ SWAP1 POP PUSH2 0x103F JUMP JUMPDEST POP PUSH1 0x1 SWAP5 SWAP4 POP POP POP POP JUMP JUMPDEST PUSH1 0x60 PUSH1 0x40 MLOAD DUP1 PUSH1 0x80 ADD PUSH1 0x40 MSTORE DUP1 PUSH1 0x50 DUP2 MSTORE PUSH1 0x20 ADD PUSH2 0x301A PUSH1 0x50 SWAP2 CODECOPY SWAP1 POP SWAP1 JUMP JUMPDEST PUSH1 0x60 PUSH2 0x19EF DUP3 PUSH2 0xF23 JUMP JUMPDEST PUSH2 0x1A0E JUMPI PUSH1 0x40 MLOAD PUSH1 0xE5 PUSH1 0x2 EXP PUSH3 0x461BCD MUL DUP2 MSTORE PUSH1 0x4 ADD PUSH2 0x26A SWAP1 PUSH2 0x2C06 JUMP JUMPDEST PUSH1 0x0 PUSH2 0x1A18 PUSH2 0x19C4 JUMP JUMPDEST SWAP1 POP PUSH1 0x0 DUP2 MLOAD GT PUSH2 0x1A38 JUMPI PUSH1 0x40 MLOAD DUP1 PUSH1 0x20 ADD PUSH1 0x40 MSTORE DUP1 PUSH1 0x0 DUP2 MSTORE POP PUSH2 0x182A JUMP JUMPDEST DUP1 PUSH2 0x1A42 DUP5 PUSH2 0x1C54 JUMP JUMPDEST PUSH1 0x40 MLOAD PUSH1 0x20 ADD PUSH2 0x1A53 SWAP3 SWAP2 SWAP1 PUSH2 0x246F JUMP JUMPDEST PUSH1 0x40 MLOAD PUSH1 0x20 DUP2 DUP4 SUB SUB DUP2 MSTORE SWAP1 PUSH1 0x40 MSTORE SWAP4 SWAP3 POP POP POP JUMP JUMPDEST PUSH2 0x1A73 DUP4 DUP4 PUSH2 0x1DB0 JUMP JUMPDEST PUSH2 0x1A80 PUSH1 0x0 DUP5 DUP5 DUP5 PUSH2 0x1871 JUMP JUMPDEST PUSH2 0x82D JUMPI PUSH1 0x40 MLOAD PUSH1 0xE5 PUSH1 0x2 EXP PUSH3 0x461BCD MUL DUP2 MSTORE PUSH1 0x4 ADD PUSH2 0x26A SWAP1 PUSH2 0x2662 JUMP JUMPDEST PUSH1 0x0 PUSH1 0x1 PUSH1 0xE0 PUSH1 0x2 EXP SUB NOT DUP3 AND PUSH32 0x80AC58CD00000000000000000000000000000000000000000000000000000000 EQ DUP1 PUSH2 0x1B02 JUMPI POP PUSH1 0x1 PUSH1 0xE0 PUSH1 0x2 EXP SUB NOT DUP3 AND PUSH32 0x5B5E139F00000000000000000000000000000000000000000000000000000000 EQ JUMPDEST DUP1 PUSH2 0x6B4 JUMPI POP PUSH2 0x6B4 DUP3 PUSH2 0x1EA2 JUMP JUMPDEST PUSH2 0x1B1C DUP4 DUP4 DUP4 PUSH2 0x82D JUMP JUMPDEST PUSH1 0x1 PUSH1 0xA0 PUSH1 0x2 EXP SUB DUP4 AND PUSH2 0x1B38 JUMPI PUSH2 0x1B33 DUP2 PUSH2 0x1ED4 JUMP JUMPDEST PUSH2 0x1B5B JUMP JUMPDEST DUP2 PUSH1 0x1 PUSH1 0xA0 PUSH1 0x2 EXP SUB AND DUP4 PUSH1 0x1 PUSH1 0xA0 PUSH1 0x2 EXP SUB AND EQ PUSH2 0x1B5B JUMPI PUSH2 0x1B5B DUP4 DUP3 PUSH2 0x1F18 JUMP JUMPDEST PUSH1 0x1 PUSH1 0xA0 PUSH1 0x2 EXP SUB DUP3 AND PUSH2 0x1B77 JUMPI PUSH2 0x1B72 DUP2 PUSH2 0x1FB5 JUMP JUMPDEST PUSH2 0x82D JUMP JUMPDEST DUP3 PUSH1 0x1 PUSH1 0xA0 PUSH1 0x2 EXP SUB AND DUP3 PUSH1 0x1 PUSH1 0xA0 PUSH1 0x2 EXP SUB AND EQ PUSH2 0x82D JUMPI PUSH2 0x82D DUP3 DUP3 PUSH2 0x2097 JUMP JUMPDEST PUSH1 0x0 PUSH2 0x1BA5 DUP3 PUSH2 0xAAE JUMP JUMPDEST SWAP1 POP PUSH2 0x1BB3 DUP2 PUSH1 0x0 DUP5 PUSH2 0x15D0 JUMP JUMPDEST PUSH2 0x1BBE PUSH1 0x0 DUP4 PUSH2 0xF44 JUMP JUMPDEST PUSH1 0x1 PUSH1 0xA0 PUSH1 0x2 EXP SUB DUP2 AND PUSH1 0x0 SWAP1 DUP2 MSTORE PUSH1 0x3 PUSH1 0x20 MSTORE PUSH1 0x40 DUP2 KECCAK256 DUP1 SLOAD PUSH1 0x1 SWAP3 SWAP1 PUSH2 0x1BE7 SWAP1 DUP5 SWAP1 PUSH2 0x2EDC JUMP JUMPDEST SWAP1 SWAP2 SSTORE POP POP PUSH1 0x0 DUP3 DUP2 MSTORE PUSH1 0x2 PUSH1 0x20 MSTORE PUSH1 0x40 DUP1 DUP3 KECCAK256 DUP1 SLOAD PUSH20 0xFFFFFFFFFFFFFFFFFFFFFFFFFFFFFFFFFFFFFFFF NOT AND SWAP1 SSTORE MLOAD DUP4 SWAP2 SWAP1 PUSH1 0x1 PUSH1 0xA0 PUSH1 0x2 EXP SUB DUP5 AND SWAP1 PUSH32 0xDDF252AD1BE2C89B69C2B068FC378DAA952BA7F163C4A11628F55A4DF523B3EF SWAP1 DUP4 SWAP1 LOG4 POP POP JUMP JUMPDEST EXTCODESIZE ISZERO ISZERO SWAP1 JUMP JUMPDEST PUSH1 0x60 DUP2 PUSH2 0x1C95 JUMPI POP PUSH1 0x40 DUP1 MLOAD DUP1 DUP3 ADD SWAP1 SWAP2 MSTORE PUSH1 0x1 DUP2 MSTORE PUSH32 0x3000000000000000000000000000000000000000000000000000000000000000 PUSH1 0x20 DUP3 ADD MSTORE PUSH2 0x6B7 JUMP JUMPDEST DUP2 PUSH1 0x0 JUMPDEST DUP2 ISZERO PUSH2 0x1CBF JUMPI DUP1 PUSH2 0x1CA9 DUP2 PUSH2 0x2F74 JUMP JUMPDEST SWAP2 POP PUSH2 0x1CB8 SWAP1 POP PUSH1 0xA DUP4 PUSH2 0x2EA9 JUMP JUMPDEST SWAP2 POP PUSH2 0x1C99 JUMP JUMPDEST PUSH1 0x0 DUP2 PUSH8 0xFFFFFFFFFFFFFFFF DUP2 GT ISZERO PUSH2 0x1CEB JUMPI PUSH1 0xE0 PUSH1 0x2 EXP PUSH4 0x4E487B71 MUL PUSH1 0x0 MSTORE PUSH1 0x41 PUSH1 0x4 MSTORE PUSH1 0x24 PUSH1 0x0 REVERT JUMPDEST PUSH1 0x40 MLOAD SWAP1 DUP1 DUP3 MSTORE DUP1 PUSH1 0x1F ADD PUSH1 0x1F NOT AND PUSH1 0x20 ADD DUP3 ADD PUSH1 0x40 MSTORE DUP1 ISZERO PUSH2 0x1D15 JUMPI PUSH1 0x20 DUP3 ADD DUP2 DUP1 CALLDATASIZE DUP4 CALLDATACOPY ADD SWAP1 POP JUMPDEST POP SWAP1 POP JUMPDEST DUP5 ISZERO PUSH2 0x103F JUMPI PUSH2 0x1D2A PUSH1 0x1 DUP4 PUSH2 0x2EDC JUMP JUMPDEST SWAP2 POP PUSH2 0x1D37 PUSH1 0xA DUP7 PUSH2 0x2F8F JUMP JUMPDEST PUSH2 0x1D42 SWAP1 PUSH1 0x30 PUSH2 0x2E91 JUMP JUMPDEST PUSH32 0x100000000000000000000000000000000000000000000000000000000000000 MUL DUP2 DUP4 DUP2 MLOAD DUP2 LT PUSH2 0x1D87 JUMPI PUSH1 0xE0 PUSH1 0x2 EXP PUSH4 0x4E487B71 MUL PUSH1 0x0 MSTORE PUSH1 0x32 PUSH1 0x4 MSTORE PUSH1 0x24 PUSH1 0x0 REVERT JUMPDEST PUSH1 0x20 ADD ADD SWAP1 PUSH1 0x1 PUSH1 0xF8 PUSH1 0x2 EXP SUB NOT AND SWAP1 DUP2 PUSH1 0x0 BYTE SWAP1 MSTORE8 POP PUSH2 0x1DA9 PUSH1 0xA DUP7 PUSH2 0x2EA9 JUMP JUMPDEST SWAP5 POP PUSH2 0x1D19 JUMP JUMPDEST PUSH1 0x1 PUSH1 0xA0 PUSH1 0x2 EXP SUB DUP3 AND PUSH2 0x1DD9 JUMPI PUSH1 0x40 MLOAD PUSH1 0xE5 PUSH1 0x2 EXP PUSH3 0x461BCD MUL DUP2 MSTORE PUSH1 0x4 ADD PUSH2 0x26A SWAP1 PUSH2 0x2ABA JUMP JUMPDEST PUSH2 0x1DE2 DUP2 PUSH2 0xF23 JUMP JUMPDEST ISZERO PUSH2 0x1E02 JUMPI PUSH1 0x40 MLOAD PUSH1 0xE5 PUSH1 0x2 EXP PUSH3 0x461BCD MUL DUP2 MSTORE PUSH1 0x4 ADD PUSH2 0x26A SWAP1 PUSH2 0x26F6 JUMP JUMPDEST PUSH2 0x1E0E PUSH1 0x0 DUP4 DUP4 PUSH2 0x15D0 JUMP JUMPDEST PUSH1 0x1 PUSH1 0xA0 PUSH1 0x2 EXP SUB DUP3 AND PUSH1 0x0 SWAP1 DUP2 MSTORE PUSH1 0x3 PUSH1 0x20 MSTORE PUSH1 0x40 DUP2 KECCAK256 DUP1 SLOAD PUSH1 0x1 SWAP3 SWAP1 PUSH2 0x1E37 SWAP1 DUP5 SWAP1 PUSH2 0x2E91 JUMP JUMPDEST SWAP1 SWAP2 SSTORE POP POP PUSH1 0x0 DUP2 DUP2 MSTORE PUSH1 0x2 PUSH1 0x20 MSTORE PUSH1 0x40 DUP1 DUP3 KECCAK256 DUP1 SLOAD PUSH20 0xFFFFFFFFFFFFFFFFFFFFFFFFFFFFFFFFFFFFFFFF NOT AND PUSH1 0x1 PUSH1 0xA0 PUSH1 0x2 EXP SUB DUP7 AND SWAP1 DUP2 OR SWAP1 SWAP2 SSTORE SWAP1 MLOAD DUP4 SWAP3 SWAP1 PUSH32 0xDDF252AD1BE2C89B69C2B068FC378DAA952BA7F163C4A11628F55A4DF523B3EF SWAP1 DUP3 SWAP1 LOG4 POP POP JUMP JUMPDEST PUSH1 0x1 PUSH1 0xE0 PUSH1 0x2 EXP SUB NOT DUP2 AND PUSH32 0x1FFC9A700000000000000000000000000000000000000000000000000000000 EQ SWAP2 SWAP1 POP JUMP JUMPDEST PUSH1 0x8 DUP1 SLOAD PUSH1 0x0 DUP4 DUP2 MSTORE PUSH1 0x9 PUSH1 0x20 MSTORE PUSH1 0x40 DUP2 KECCAK256 DUP3 SWAP1 SSTORE PUSH1 0x1 DUP3 ADD DUP4 SSTORE SWAP2 SWAP1 SWAP2 MSTORE PUSH32 0xF3F7A9FE364FAAB93B216DA50A3214154F22A0A2B415B23A84C8169E8B636EE3 ADD SSTORE JUMP JUMPDEST PUSH1 0x0 PUSH1 0x1 PUSH2 0x1F25 DUP5 PUSH2 0xAE6 JUMP JUMPDEST PUSH2 0x1F2F SWAP2 SWAP1 PUSH2 0x2EDC JUMP JUMPDEST PUSH1 0x0 DUP4 DUP2 MSTORE PUSH1 0x7 PUSH1 0x20 MSTORE PUSH1 0x40 SWAP1 KECCAK256 SLOAD SWAP1 SWAP2 POP DUP1 DUP3 EQ PUSH2 0x1F82 JUMPI PUSH1 0x1 PUSH1 0xA0 PUSH1 0x2 EXP SUB DUP5 AND PUSH1 0x0 SWAP1 DUP2 MSTORE PUSH1 0x6 PUSH1 0x20 SWAP1 DUP2 MSTORE PUSH1 0x40 DUP1 DUP4 KECCAK256 DUP6 DUP5 MSTORE DUP3 MSTORE DUP1 DUP4 KECCAK256 SLOAD DUP5 DUP5 MSTORE DUP2 DUP5 KECCAK256 DUP2 SWAP1 SSTORE DUP4 MSTORE PUSH1 0x7 SWAP1 SWAP2 MSTORE SWAP1 KECCAK256 DUP2 SWAP1 SSTORE JUMPDEST POP PUSH1 0x0 SWAP2 DUP3 MSTORE PUSH1 0x7 PUSH1 0x20 SWAP1 DUP2 MSTORE PUSH1 0x40 DUP1 DUP5 KECCAK256 DUP5 SWAP1 SSTORE PUSH1 0x1 PUSH1 0xA0 PUSH1 0x2 EXP SUB SWAP1 SWAP5 AND DUP4 MSTORE PUSH1 0x6 DUP2 MSTORE DUP4 DUP4 KECCAK256 SWAP2 DUP4 MSTORE MSTORE SWAP1 DUP2 KECCAK256 SSTORE JUMP JUMPDEST PUSH1 0x8 SLOAD PUSH1 0x0 SWAP1 PUSH2 0x1FC7 SWAP1 PUSH1 0x1 SWAP1 PUSH2 0x2EDC JUMP JUMPDEST PUSH1 0x0 DUP4 DUP2 MSTORE PUSH1 0x9 PUSH1 0x20 MSTORE PUSH1 0x40 DUP2 KECCAK256 SLOAD PUSH1 0x8 DUP1 SLOAD SWAP4 SWAP5 POP SWAP1 SWAP3 DUP5 SWAP1 DUP2 LT PUSH2 0x2000 JUMPI PUSH1 0xE0 PUSH1 0x2 EXP PUSH4 0x4E487B71 MUL PUSH1 0x0 MSTORE PUSH1 0x32 PUSH1 0x4 MSTORE PUSH1 0x24 PUSH1 0x0 REVERT JUMPDEST SWAP1 PUSH1 0x0 MSTORE PUSH1 0x20 PUSH1 0x0 KECCAK256 ADD SLOAD SWAP1 POP DUP1 PUSH1 0x8 DUP4 DUP2 SLOAD DUP2 LT PUSH2 0x2032 JUMPI PUSH1 0xE0 PUSH1 0x2 EXP PUSH4 0x4E487B71 MUL PUSH1 0x0 MSTORE PUSH1 0x32 PUSH1 0x4 MSTORE PUSH1 0x24 PUSH1 0x0 REVERT JUMPDEST PUSH1 0x0 SWAP2 DUP3 MSTORE PUSH1 0x20 DUP1 DUP4 KECCAK256 SWAP1 SWAP2 ADD SWAP3 SWAP1 SWAP3 SSTORE DUP3 DUP2 MSTORE PUSH1 0x9 SWAP1 SWAP2 MSTORE PUSH1 0x40 DUP1 DUP3 KECCAK256 DUP5 SWAP1 SSTORE DUP6 DUP3 MSTORE DUP2 KECCAK256 SSTORE PUSH1 0x8 DUP1 SLOAD DUP1 PUSH2 0x207B JUMPI PUSH1 0xE0 PUSH1 0x2 EXP PUSH4 0x4E487B71 MUL PUSH1 0x0 MSTORE PUSH1 0x31 PUSH1 0x4 MSTORE PUSH1 0x24 PUSH1 0x0 REVERT JUMPDEST PUSH1 0x1 SWAP1 SUB DUP2 DUP2 SWAP1 PUSH1 0x0 MSTORE PUSH1 0x20 PUSH1 0x0 KECCAK256 ADD PUSH1 0x0 SWAP1 SSTORE SWAP1 SSTORE POP POP POP POP JUMP JUMPDEST PUSH1 0x0 PUSH2 0x20A2 DUP4 PUSH2 0xAE6 JUMP JUMPDEST PUSH1 0x1 PUSH1 0xA0 PUSH1 0x2 EXP SUB SWAP1 SWAP4 AND PUSH1 0x0 SWAP1 DUP2 MSTORE PUSH1 0x6 PUSH1 0x20 SWAP1 DUP2 MSTORE PUSH1 0x40 DUP1 DUP4 KECCAK256 DUP7 DUP5 MSTORE DUP3 MSTORE DUP1 DUP4 KECCAK256 DUP6 SWAP1 SSTORE SWAP4 DUP3 MSTORE PUSH1 0x7 SWAP1 MSTORE SWAP2 SWAP1 SWAP2 KECCAK256 SWAP2 SWAP1 SWAP2 SSTORE POP JUMP JUMPDEST DUP3 DUP1 SLOAD PUSH2 0x20E7 SWAP1 PUSH2 0x2F36 JUMP JUMPDEST SWAP1 PUSH1 0x0 MSTORE PUSH1 0x20 PUSH1 0x0 KECCAK256 SWAP1 PUSH1 0x1F ADD PUSH1 0x20 SWAP1 DIV DUP2 ADD SWAP3 DUP3 PUSH2 0x2109 JUMPI PUSH1 0x0 DUP6 SSTORE PUSH2 0x214F JUMP JUMPDEST DUP3 PUSH1 0x1F LT PUSH2 0x2122 JUMPI DUP1 MLOAD PUSH1 0xFF NOT AND DUP4 DUP1 ADD OR DUP6 SSTORE PUSH2 0x214F JUMP JUMPDEST DUP3 DUP1 ADD PUSH1 0x1 ADD DUP6 SSTORE DUP3 ISZERO PUSH2 0x214F JUMPI SWAP2 DUP3 ADD JUMPDEST DUP3 DUP2 GT ISZERO PUSH2 0x214F JUMPI DUP3 MLOAD DUP3 SSTORE SWAP2 PUSH1 0x20 ADD SWAP2 SWAP1 PUSH1 0x1 ADD SWAP1 PUSH2 0x2134 JUMP JUMPDEST POP PUSH2 0x215B SWAP3 SWAP2 POP PUSH2 0x2197 JUMP JUMPDEST POP SWAP1 JUMP JUMPDEST POP DUP1 SLOAD PUSH2 0x216B SWAP1 PUSH2 0x2F36 JUMP JUMPDEST PUSH1 0x0 DUP3 SSTORE DUP1 PUSH1 0x1F LT PUSH2 0x217D JUMPI POP PUSH2 0x9A8 JUMP JUMPDEST PUSH1 0x1F ADD PUSH1 0x20 SWAP1 DIV SWAP1 PUSH1 0x0 MSTORE PUSH1 0x20 PUSH1 0x0 KECCAK256 SWAP1 DUP2 ADD SWAP1 PUSH2 0x9A8 SWAP2 SWAP1 JUMPDEST JUMPDEST DUP1 DUP3 GT ISZERO PUSH2 0x215B JUMPI PUSH1 0x0 DUP2 SSTORE PUSH1 0x1 ADD PUSH2 0x2198 JUMP JUMPDEST PUSH1 0x0 PUSH8 0xFFFFFFFFFFFFFFFF DUP1 DUP5 GT ISZERO PUSH2 0x21C7 JUMPI PUSH2 0x21C7 PUSH2 0x2FD5 JUMP JUMPDEST PUSH1 0x40 MLOAD PUSH1 0x1F DUP6 ADD PUSH1 0x1F NOT AND DUP2 ADD PUSH1 0x20 ADD DUP3 DUP2 GT DUP3 DUP3 LT OR ISZERO PUSH2 0x21EB JUMPI PUSH2 0x21EB PUSH2 0x2FD5 JUMP JUMPDEST PUSH1 0x40 MSTORE DUP5 DUP2 MSTORE SWAP2 POP DUP2 DUP4 DUP6 ADD DUP7 LT ISZERO PUSH2 0x2203 JUMPI PUSH1 0x0 DUP1 REVERT JUMPDEST DUP5 DUP5 PUSH1 0x20 DUP4 ADD CALLDATACOPY PUSH1 0x0 PUSH1 0x20 DUP7 DUP4 ADD ADD MSTORE POP POP SWAP4 SWAP3 POP POP POP JUMP JUMPDEST PUSH1 0x0 PUSH1 0x20 DUP3 DUP5 SUB SLT ISZERO PUSH2 0x222D JUMPI DUP1 DUP2 REVERT JUMPDEST DUP2 CALLDATALOAD PUSH2 0x182A DUP2 PUSH2 0x2FEE JUMP JUMPDEST PUSH1 0x0 DUP1 PUSH1 0x40 DUP4 DUP6 SUB SLT ISZERO PUSH2 0x224A JUMPI DUP1 DUP2 REVERT JUMPDEST DUP3 CALLDATALOAD PUSH2 0x2255 DUP2 PUSH2 0x2FEE JUMP JUMPDEST SWAP2 POP PUSH1 0x20 DUP4 ADD CALLDATALOAD PUSH2 0x2265 DUP2 PUSH2 0x2FEE JUMP JUMPDEST DUP1 SWAP2 POP POP SWAP3 POP SWAP3 SWAP1 POP JUMP JUMPDEST PUSH1 0x0 DUP1 PUSH1 0x0 PUSH1 0x60 DUP5 DUP7 SUB SLT ISZERO PUSH2 0x2284 JUMPI DUP1 DUP2 REVERT JUMPDEST DUP4 CALLDATALOAD PUSH2 0x228F DUP2 PUSH2 0x2FEE JUMP JUMPDEST SWAP3 POP PUSH1 0x20 DUP5 ADD CALLDATALOAD PUSH2 0x229F DUP2 PUSH2 0x2FEE JUMP JUMPDEST SWAP3 SWAP6 SWAP3 SWAP5 POP POP POP PUSH1 0x40 SWAP2 SWAP1 SWAP2 ADD CALLDATALOAD SWAP1 JUMP JUMPDEST PUSH1 0x0 DUP1 PUSH1 0x0 DUP1 PUSH1 0x80 DUP6 DUP8 SUB SLT ISZERO PUSH2 0x22C5 JUMPI DUP1 DUP2 REVERT JUMPDEST DUP5 CALLDATALOAD PUSH2 0x22D0 DUP2 PUSH2 0x2FEE JUMP JUMPDEST SWAP4 POP PUSH1 0x20 DUP6 ADD CALLDATALOAD PUSH2 0x22E0 DUP2 PUSH2 0x2FEE JUMP JUMPDEST SWAP3 POP PUSH1 0x40 DUP6 ADD CALLDATALOAD SWAP2 POP PUSH1 0x60 DUP6 ADD CALLDATALOAD PUSH8 0xFFFFFFFFFFFFFFFF DUP2 GT ISZERO PUSH2 0x2302 JUMPI DUP2 DUP3 REVERT JUMPDEST DUP6 ADD PUSH1 0x1F DUP2 ADD DUP8 SGT PUSH2 0x2312 JUMPI DUP2 DUP3 REVERT JUMPDEST PUSH2 0x2321 DUP8 DUP3 CALLDATALOAD PUSH1 0x20 DUP5 ADD PUSH2 0x21AC JUMP JUMPDEST SWAP2 POP POP SWAP3 SWAP6 SWAP2 SWAP5 POP SWAP3 POP JUMP JUMPDEST PUSH1 0x0 DUP1 PUSH1 0x40 DUP4 DUP6 SUB SLT ISZERO PUSH2 0x233F JUMPI DUP2 DUP3 REVERT JUMPDEST DUP3 CALLDATALOAD PUSH2 0x234A DUP2 PUSH2 0x2FEE JUMP JUMPDEST SWAP2 POP PUSH1 0x20 DUP4 ADD CALLDATALOAD DUP1 ISZERO ISZERO DUP2 EQ PUSH2 0x2265 JUMPI DUP2 DUP3 REVERT JUMPDEST PUSH1 0x0 DUP1 PUSH1 0x40 DUP4 DUP6 SUB SLT ISZERO PUSH2 0x2370 JUMPI DUP2 DUP3 REVERT JUMPDEST DUP3 CALLDATALOAD PUSH2 0x237B DUP2 PUSH2 0x2FEE JUMP JUMPDEST SWAP5 PUSH1 0x20 SWAP4 SWAP1 SWAP4 ADD CALLDATALOAD SWAP4 POP POP POP JUMP JUMPDEST PUSH1 0x0 PUSH1 0x20 DUP3 DUP5 SUB SLT ISZERO PUSH2 0x239A JUMPI DUP1 DUP2 REVERT JUMPDEST POP CALLDATALOAD SWAP2 SWAP1 POP JUMP JUMPDEST PUSH1 0x0 DUP1 PUSH1 0x40 DUP4 DUP6 SUB SLT ISZERO PUSH2 0x23B3 JUMPI DUP2 DUP3 REVERT JUMPDEST DUP3 CALLDATALOAD SWAP2 POP PUSH1 0x20 DUP4 ADD CALLDATALOAD PUSH2 0x2265 DUP2 PUSH2 0x2FEE JUMP JUMPDEST PUSH1 0x0 PUSH1 0x20 DUP3 DUP5 SUB SLT ISZERO PUSH2 0x23D6 JUMPI DUP1 DUP2 REVERT JUMPDEST DUP2 CALLDATALOAD PUSH2 0x182A DUP2 PUSH2 0x3003 JUMP JUMPDEST PUSH1 0x0 PUSH1 0x20 DUP3 DUP5 SUB SLT ISZERO PUSH2 0x23F2 JUMPI DUP1 DUP2 REVERT JUMPDEST DUP2 MLOAD PUSH2 0x182A DUP2 PUSH2 0x3003 JUMP JUMPDEST PUSH1 0x0 PUSH1 0x20 DUP3 DUP5 SUB SLT ISZERO PUSH2 0x240E JUMPI DUP1 DUP2 REVERT JUMPDEST DUP2 CALLDATALOAD PUSH8 0xFFFFFFFFFFFFFFFF DUP2 GT ISZERO PUSH2 0x2424 JUMPI DUP2 DUP3 REVERT JUMPDEST DUP3 ADD PUSH1 0x1F DUP2 ADD DUP5 SGT PUSH2 0x2434 JUMPI DUP2 DUP3 REVERT JUMPDEST PUSH2 0x103F DUP5 DUP3 CALLDATALOAD PUSH1 0x20 DUP5 ADD PUSH2 0x21AC JUMP JUMPDEST PUSH1 0x0 DUP2 MLOAD DUP1 DUP5 MSTORE PUSH2 0x245B DUP2 PUSH1 0x20 DUP7 ADD PUSH1 0x20 DUP7 ADD PUSH2 0x2EF3 JUMP JUMPDEST PUSH1 0x1F ADD PUSH1 0x1F NOT AND SWAP3 SWAP1 SWAP3 ADD PUSH1 0x20 ADD SWAP3 SWAP2 POP POP JUMP JUMPDEST PUSH1 0x0 DUP4 MLOAD PUSH2 0x2481 DUP2 DUP5 PUSH1 0x20 DUP9 ADD PUSH2 0x2EF3 JUMP JUMPDEST DUP4 MLOAD SWAP1 DUP4 ADD SWAP1 PUSH2 0x2495 DUP2 DUP4 PUSH1 0x20 DUP9 ADD PUSH2 0x2EF3 JUMP JUMPDEST ADD SWAP5 SWAP4 POP POP POP POP JUMP JUMPDEST SWAP1 JUMP JUMPDEST PUSH1 0x0 PUSH32 0x416363657373436F6E74726F6C3A206163636F756E7420000000000000000000 DUP3 MSTORE DUP4 MLOAD PUSH2 0x24D9 DUP2 PUSH1 0x17 DUP6 ADD PUSH1 0x20 DUP9 ADD PUSH2 0x2EF3 JUMP JUMPDEST PUSH32 0x206973206D697373696E6720726F6C6520000000000000000000000000000000 PUSH1 0x17 SWAP2 DUP5 ADD SWAP2 DUP3 ADD MSTORE DUP4 MLOAD PUSH2 0x2516 DUP2 PUSH1 0x28 DUP5 ADD PUSH1 0x20 DUP9 ADD PUSH2 0x2EF3 JUMP JUMPDEST ADD PUSH1 0x28 ADD SWAP5 SWAP4 POP POP POP POP JUMP JUMPDEST PUSH1 0x1 PUSH1 0xA0 PUSH1 0x2 EXP SUB SWAP2 SWAP1 SWAP2 AND DUP2 MSTORE PUSH1 0x20 ADD SWAP1 JUMP JUMPDEST PUSH1 0x0 PUSH1 0x1 PUSH1 0xA0 PUSH1 0x2 EXP SUB DUP1 DUP8 AND DUP4 MSTORE DUP1 DUP7 AND PUSH1 0x20 DUP5 ADD MSTORE POP DUP4 PUSH1 0x40 DUP4 ADD MSTORE PUSH1 0x80 PUSH1 0x60 DUP4 ADD MSTORE PUSH2 0x2568 PUSH1 0x80 DUP4 ADD DUP5 PUSH2 0x2443 JUMP JUMPDEST SWAP7 SWAP6 POP POP POP POP POP POP JUMP JUMPDEST SWAP1 ISZERO ISZERO DUP2 MSTORE PUSH1 0x20 ADD SWAP1 JUMP JUMPDEST SWAP1 DUP2 MSTORE PUSH1 0x20 ADD SWAP1 JUMP JUMPDEST PUSH1 0x0 PUSH1 0x20 DUP3 MSTORE PUSH2 0x182A PUSH1 0x20 DUP4 ADD DUP5 PUSH2 0x2443 JUMP JUMPDEST PUSH1 0x20 DUP1 DUP3 MSTORE DUP2 DUP2 ADD MSTORE PUSH32 0x537472696E67733A20686578206C656E67746820696E73756666696369656E74 PUSH1 0x40 DUP3 ADD MSTORE PUSH1 0x60 ADD SWAP1 JUMP JUMPDEST PUSH1 0x20 DUP1 DUP3 MSTORE PUSH1 0x14 SWAP1 DUP3 ADD MSTORE PUSH32 0x5061757361626C653A206E6F7420706175736564000000000000000000000000 PUSH1 0x40 DUP3 ADD MSTORE PUSH1 0x60 ADD SWAP1 JUMP JUMPDEST PUSH1 0x20 DUP1 DUP3 MSTORE PUSH1 0x2B SWAP1 DUP3 ADD MSTORE PUSH32 0x455243373231456E756D657261626C653A206F776E657220696E646578206F75 PUSH1 0x40 DUP3 ADD MSTORE PUSH32 0x74206F6620626F756E6473000000000000000000000000000000000000000000 PUSH1 0x60 DUP3 ADD MSTORE PUSH1 0x80 ADD SWAP1 JUMP JUMPDEST PUSH1 0x20 DUP1 DUP3 MSTORE PUSH1 0x32 SWAP1 DUP3 ADD MSTORE PUSH32 0x4552433732313A207472616E7366657220746F206E6F6E204552433732315265 PUSH1 0x40 DUP3 ADD MSTORE PUSH32 0x63656976657220696D706C656D656E7465720000000000000000000000000000 PUSH1 0x60 DUP3 ADD MSTORE PUSH1 0x80 ADD SWAP1 JUMP JUMPDEST PUSH1 0x20 DUP1 DUP3 MSTORE PUSH1 0xF SWAP1 DUP3 ADD MSTORE PUSH32 0x46616C69656420746F2073656E64210000000000000000000000000000000000 PUSH1 0x40 DUP3 ADD MSTORE PUSH1 0x60 ADD SWAP1 JUMP JUMPDEST PUSH1 0x20 DUP1 DUP3 MSTORE PUSH1 0x1C SWAP1 DUP3 ADD MSTORE PUSH32 0x4552433732313A20746F6B656E20616C7265616479206D696E74656400000000 PUSH1 0x40 DUP3 ADD MSTORE PUSH1 0x60 ADD SWAP1 JUMP JUMPDEST PUSH1 0x20 DUP1 DUP3 MSTORE PUSH1 0x24 SWAP1 DUP3 ADD MSTORE PUSH32 0x4552433732313A207472616E7366657220746F20746865207A65726F20616464 PUSH1 0x40 DUP3 ADD MSTORE PUSH32 0x7265737300000000000000000000000000000000000000000000000000000000 PUSH1 0x60 DUP3 ADD MSTORE PUSH1 0x80 ADD SWAP1 JUMP JUMPDEST PUSH1 0x20 DUP1 DUP3 MSTORE PUSH1 0x19 SWAP1 DUP3 ADD MSTORE PUSH32 0x4552433732313A20617070726F766520746F2063616C6C657200000000000000 PUSH1 0x40 DUP3 ADD MSTORE PUSH1 0x60 ADD SWAP1 JUMP JUMPDEST PUSH1 0x20 DUP1 DUP3 MSTORE PUSH1 0x2C SWAP1 DUP3 ADD MSTORE PUSH32 0x4552433732313A206F70657261746F7220717565727920666F72206E6F6E6578 PUSH1 0x40 DUP3 ADD MSTORE PUSH32 0x697374656E7420746F6B656E0000000000000000000000000000000000000000 PUSH1 0x60 DUP3 ADD MSTORE PUSH1 0x80 ADD SWAP1 JUMP JUMPDEST PUSH1 0x20 DUP1 DUP3 MSTORE PUSH1 0x17 SWAP1 DUP3 ADD MSTORE PUSH32 0x455243373231204361703A206361702072656163686564000000000000000000 PUSH1 0x40 DUP3 ADD MSTORE PUSH1 0x60 ADD SWAP1 JUMP JUMPDEST PUSH1 0x20 DUP1 DUP3 MSTORE PUSH1 0x10 SWAP1 DUP3 ADD MSTORE PUSH32 0x5061757361626C653A2070617573656400000000000000000000000000000000 PUSH1 0x40 DUP3 ADD MSTORE PUSH1 0x60 ADD SWAP1 JUMP JUMPDEST PUSH1 0x20 DUP1 DUP3 MSTORE PUSH1 0x21 SWAP1 DUP3 ADD MSTORE PUSH32 0x4E6F7420656E6F756768204554482073656E743A20636865636B207072696365 PUSH1 0x40 DUP3 ADD MSTORE PUSH32 0x2E00000000000000000000000000000000000000000000000000000000000000 PUSH1 0x60 DUP3 ADD MSTORE PUSH1 0x80 ADD SWAP1 JUMP JUMPDEST PUSH1 0x20 DUP1 DUP3 MSTORE PUSH1 0x38 SWAP1 DUP3 ADD MSTORE PUSH32 0x4552433732313A20617070726F76652063616C6C6572206973206E6F74206F77 PUSH1 0x40 DUP3 ADD MSTORE PUSH32 0x6E6572206E6F7220617070726F76656420666F7220616C6C0000000000000000 PUSH1 0x60 DUP3 ADD MSTORE PUSH1 0x80 ADD SWAP1 JUMP JUMPDEST PUSH1 0x20 DUP1 DUP3 MSTORE PUSH1 0x2A SWAP1 DUP3 ADD MSTORE PUSH32 0x4552433732313A2062616C616E636520717565727920666F7220746865207A65 PUSH1 0x40 DUP3 ADD MSTORE PUSH32 0x726F206164647265737300000000000000000000000000000000000000000000 PUSH1 0x60 DUP3 ADD MSTORE PUSH1 0x80 ADD SWAP1 JUMP JUMPDEST PUSH1 0x20 DUP1 DUP3 MSTORE PUSH1 0x29 SWAP1 DUP3 ADD MSTORE PUSH32 0x4552433732313A206F776E657220717565727920666F72206E6F6E6578697374 PUSH1 0x40 DUP3 ADD MSTORE PUSH32 0x656E7420746F6B656E0000000000000000000000000000000000000000000000 PUSH1 0x60 DUP3 ADD MSTORE PUSH1 0x80 ADD SWAP1 JUMP JUMPDEST PUSH1 0x20 DUP1 DUP3 MSTORE PUSH1 0x2E SWAP1 DUP3 ADD MSTORE PUSH32 0x45524337323155524953746F726167653A2055524920736574206F66206E6F6E PUSH1 0x40 DUP3 ADD MSTORE PUSH32 0x6578697374656E7420746F6B656E000000000000000000000000000000000000 PUSH1 0x60 DUP3 ADD MSTORE PUSH1 0x80 ADD SWAP1 JUMP JUMPDEST PUSH1 0x20 DUP1 DUP3 MSTORE PUSH1 0x2B SWAP1 DUP3 ADD MSTORE PUSH32 0x43616C6C6572206D75737420686176652061646D696E20726F6C6520746F2073 PUSH1 0x40 DUP3 ADD MSTORE PUSH32 0x6574206D696E7420666565000000000000000000000000000000000000000000 PUSH1 0x60 DUP3 ADD MSTORE PUSH1 0x80 ADD SWAP1 JUMP JUMPDEST PUSH1 0x20 DUP1 DUP3 MSTORE DUP2 DUP2 ADD MSTORE PUSH32 0x4552433732313A206D696E7420746F20746865207A65726F2061646472657373 PUSH1 0x40 DUP3 ADD MSTORE PUSH1 0x60 ADD SWAP1 JUMP JUMPDEST PUSH1 0x20 DUP1 DUP3 MSTORE PUSH1 0x31 SWAP1 DUP3 ADD MSTORE PUSH32 0x45524337323155524953746F726167653A2055524920717565727920666F7220 PUSH1 0x40 DUP3 ADD MSTORE PUSH32 0x6E6F6E6578697374656E7420746F6B656E000000000000000000000000000000 PUSH1 0x60 DUP3 ADD MSTORE PUSH1 0x80 ADD SWAP1 JUMP JUMPDEST PUSH1 0x20 DUP1 DUP3 MSTORE PUSH1 0x2C SWAP1 DUP3 ADD MSTORE PUSH32 0x4552433732313A20617070726F76656420717565727920666F72206E6F6E6578 PUSH1 0x40 DUP3 ADD MSTORE PUSH32 0x697374656E7420746F6B656E0000000000000000000000000000000000000000 PUSH1 0x60 DUP3 ADD MSTORE PUSH1 0x80 ADD SWAP1 JUMP JUMPDEST PUSH1 0x20 DUP1 DUP3 MSTORE PUSH1 0x29 SWAP1 DUP3 ADD MSTORE PUSH32 0x4552433732313A207472616E73666572206F6620746F6B656E20746861742069 PUSH1 0x40 DUP3 ADD MSTORE PUSH32 0x73206E6F74206F776E0000000000000000000000000000000000000000000000 PUSH1 0x60 DUP3 ADD MSTORE PUSH1 0x80 ADD SWAP1 JUMP JUMPDEST PUSH1 0x20 DUP1 DUP3 MSTORE PUSH1 0x2F SWAP1 DUP3 ADD MSTORE PUSH32 0x4552433732314D657461646174613A2055524920717565727920666F72206E6F PUSH1 0x40 DUP3 ADD MSTORE PUSH32 0x6E6578697374656E7420746F6B656E0000000000000000000000000000000000 PUSH1 0x60 DUP3 ADD MSTORE PUSH1 0x80 ADD SWAP1 JUMP JUMPDEST PUSH1 0x20 DUP1 DUP3 MSTORE PUSH1 0x21 SWAP1 DUP3 ADD MSTORE PUSH32 0x4552433732313A20617070726F76616C20746F2063757272656E74206F776E65 PUSH1 0x40 DUP3 ADD MSTORE PUSH32 0x7200000000000000000000000000000000000000000000000000000000000000 PUSH1 0x60 DUP3 ADD MSTORE PUSH1 0x80 ADD SWAP1 JUMP JUMPDEST PUSH1 0x20 DUP1 DUP3 MSTORE PUSH1 0x27 SWAP1 DUP3 ADD MSTORE PUSH32 0x496E73756666696369656E7442616C616E63652C20636865636B20796F757220 PUSH1 0x40 DUP3 ADD MSTORE PUSH32 0x62616C616E636500000000000000000000000000000000000000000000000000 PUSH1 0x60 DUP3 ADD MSTORE PUSH1 0x80 ADD SWAP1 JUMP JUMPDEST PUSH1 0x20 DUP1 DUP3 MSTORE PUSH1 0x31 SWAP1 DUP3 ADD MSTORE PUSH32 0x4552433732313A207472616E736665722063616C6C6572206973206E6F74206F PUSH1 0x40 DUP3 ADD MSTORE PUSH32 0x776E6572206E6F7220617070726F766564000000000000000000000000000000 PUSH1 0x60 DUP3 ADD MSTORE PUSH1 0x80 ADD SWAP1 JUMP JUMPDEST PUSH1 0x20 DUP1 DUP3 MSTORE PUSH1 0x2C SWAP1 DUP3 ADD MSTORE PUSH32 0x455243373231456E756D657261626C653A20676C6F62616C20696E646578206F PUSH1 0x40 DUP3 ADD MSTORE PUSH32 0x7574206F6620626F756E64730000000000000000000000000000000000000000 PUSH1 0x60 DUP3 ADD MSTORE PUSH1 0x80 ADD SWAP1 JUMP JUMPDEST PUSH1 0x20 DUP1 DUP3 MSTORE PUSH1 0x30 SWAP1 DUP3 ADD MSTORE PUSH32 0x4552433732314275726E61626C653A2063616C6C6572206973206E6F74206F77 PUSH1 0x40 DUP3 ADD MSTORE PUSH32 0x6E6572206E6F7220617070726F76656400000000000000000000000000000000 PUSH1 0x60 DUP3 ADD MSTORE PUSH1 0x80 ADD SWAP1 JUMP JUMPDEST PUSH1 0x20 DUP1 DUP3 MSTORE PUSH1 0x2F SWAP1 DUP3 ADD MSTORE PUSH32 0x416363657373436F6E74726F6C3A2063616E206F6E6C792072656E6F756E6365 PUSH1 0x40 DUP3 ADD MSTORE PUSH32 0x20726F6C657320666F722073656C660000000000000000000000000000000000 PUSH1 0x60 DUP3 ADD MSTORE PUSH1 0x80 ADD SWAP1 JUMP JUMPDEST PUSH1 0x0 DUP3 NOT DUP3 GT ISZERO PUSH2 0x2EA4 JUMPI PUSH2 0x2EA4 PUSH2 0x2FA3 JUMP JUMPDEST POP ADD SWAP1 JUMP JUMPDEST PUSH1 0x0 DUP3 PUSH2 0x2EB8 JUMPI PUSH2 0x2EB8 PUSH2 0x2FBC JUMP JUMPDEST POP DIV SWAP1 JUMP JUMPDEST PUSH1 0x0 DUP2 PUSH1 0x0 NOT DIV DUP4 GT DUP3 ISZERO ISZERO AND ISZERO PUSH2 0x2ED7 JUMPI PUSH2 0x2ED7 PUSH2 0x2FA3 JUMP JUMPDEST POP MUL SWAP1 JUMP JUMPDEST PUSH1 0x0 DUP3 DUP3 LT ISZERO PUSH2 0x2EEE JUMPI PUSH2 0x2EEE PUSH2 0x2FA3 JUMP JUMPDEST POP SUB SWAP1 JUMP JUMPDEST PUSH1 0x0 JUMPDEST DUP4 DUP2 LT ISZERO PUSH2 0x2F0E JUMPI DUP2 DUP2 ADD MLOAD DUP4 DUP3 ADD MSTORE PUSH1 0x20 ADD PUSH2 0x2EF6 JUMP JUMPDEST DUP4 DUP2 GT ISZERO PUSH2 0xCB2 JUMPI POP POP PUSH1 0x0 SWAP2 ADD MSTORE JUMP JUMPDEST PUSH1 0x0 DUP2 PUSH2 0x2F2E JUMPI PUSH2 0x2F2E PUSH2 0x2FA3 JUMP JUMPDEST POP PUSH1 0x0 NOT ADD SWAP1 JUMP JUMPDEST PUSH1 0x2 DUP2 DIV PUSH1 0x1 DUP3 AND DUP1 PUSH2 0x2F4A JUMPI PUSH1 0x7F DUP3 AND SWAP2 POP JUMPDEST PUSH1 0x20 DUP3 LT DUP2 EQ ISZERO PUSH2 0x2F6E JUMPI PUSH1 0xE0 PUSH1 0x2 EXP PUSH4 0x4E487B71 MUL PUSH1 0x0 MSTORE PUSH1 0x22 PUSH1 0x4 MSTORE PUSH1 0x24 PUSH1 0x0 REVERT JUMPDEST POP SWAP2 SWAP1 POP JUMP JUMPDEST PUSH1 0x0 PUSH1 0x0 NOT DUP3 EQ ISZERO PUSH2 0x2F88 JUMPI PUSH2 0x2F88 PUSH2 0x2FA3 JUMP JUMPDEST POP PUSH1 0x1 ADD SWAP1 JUMP JUMPDEST PUSH1 0x0 DUP3 PUSH2 0x2F9E JUMPI PUSH2 0x2F9E PUSH2 0x2FBC JUMP JUMPDEST POP MOD SWAP1 JUMP JUMPDEST PUSH1 0xE0 PUSH1 0x2 EXP PUSH4 0x4E487B71 MUL PUSH1 0x0 MSTORE PUSH1 0x11 PUSH1 0x4 MSTORE PUSH1 0x24 PUSH1 0x0 REVERT JUMPDEST PUSH1 0xE0 PUSH1 0x2 EXP PUSH4 0x4E487B71 MUL PUSH1 0x0 MSTORE PUSH1 0x12 PUSH1 0x4 MSTORE PUSH1 0x24 PUSH1 0x0 REVERT JUMPDEST PUSH1 0xE0 PUSH1 0x2 EXP PUSH4 0x4E487B71 MUL PUSH1 0x0 MSTORE PUSH1 0x41 PUSH1 0x4 MSTORE PUSH1 0x24 PUSH1 0x0 REVERT JUMPDEST PUSH1 0x1 PUSH1 0xA0 PUSH1 0x2 EXP SUB DUP2 AND DUP2 EQ PUSH2 0x9A8 JUMPI PUSH1 0x0 DUP1 REVERT JUMPDEST PUSH1 0x1 PUSH1 0xE0 PUSH1 0x2 EXP SUB NOT DUP2 AND DUP2 EQ PUSH2 0x9A8 JUMPI PUSH1 0x0 DUP1 REVERT INVALID PUSH9 0x747470733A2F2F6761 PUSH21 0x657761792E70696E6174612E636C6F75642F697066 PUSH20 0x2F516D524C7246356E4D4D73716B706757575367 PUSH6 0x504B4E565532 PUSH17 0x695748537A6A4756484273524B39356469 PUSH16 0x37A2646970667358221220B3777C964D 0xC PUSH27 0x2F739F04C1E9D698FDF3DBBA185E0793A483FF6ACF6A5FAF456473 PUSH16 0x6C634300080000330000000000000000 "
		},
		"gasEstimates": {
			"creation": {
				"codeDepositCost": "2489400",
				"executionCost": "infinite",
				"totalCost": "infinite"
			},
			"external": {
				"DEFAULT_ADMIN_ROLE()": "344",
				"MINTER_ROLE()": "344",
				"PAUSER_ROLE()": "321",
				"approve(address,uint256)": "infinite",
				"balanceOf(address)": "948",
				"burn(uint256)": "infinite",
				"cap()": "infinite",
				"contractOwner()": "678",
				"getApproved(uint256)": "1222",
				"getBalance()": "678",
				"getContractAdress()": "403",
				"getMintFee()": "545",
				"getRoleAdmin(bytes32)": "694",
				"grantRole(bytes32,address)": "infinite",
				"hasRole(bytes32,address)": "971",
				"isApprovedForAll(address,address)": "infinite",
				"mint(string)": "infinite",
				"name()": "infinite",
				"ownerOf(uint256)": "844",
				"pause()": "infinite",
				"paused()": "578",
				"renounceRole(bytes32,address)": "infinite",
				"revokeRole(bytes32,address)": "infinite",
				"safeTransferFrom(address,address,uint256)": "infinite",
				"safeTransferFrom(address,address,uint256,bytes)": "infinite",
				"setApprovalForAll(address,bool)": "infinite",
				"setMintFee(uint256)": "infinite",
				"supportsInterface(bytes4)": "infinite",
				"symbol()": "infinite",
				"tokenByIndex(uint256)": "1142",
				"tokenOfOwnerByIndex(address,uint256)": "1424",
				"tokenURI(uint256)": "infinite",
				"totalSupply()": "501",
				"transferFrom(address,address,uint256)": "infinite",
				"transferFunds(address)": "infinite",
				"unpause()": "infinite",
				"withdraw(address)": "infinite"
			},
			"internal": {
				"_baseURI()": "infinite",
				"_beforeTokenTransfer(address,address,uint256)": "infinite",
				"_burn(uint256)": "infinite"
			}
		},
		"methodIdentifiers": {
			"DEFAULT_ADMIN_ROLE()": "a217fddf",
			"MINTER_ROLE()": "d5391393",
			"PAUSER_ROLE()": "e63ab1e9",
			"approve(address,uint256)": "095ea7b3",
			"balanceOf(address)": "70a08231",
			"burn(uint256)": "42966c68",
			"cap()": "355274ea",
			"contractOwner()": "ce606ee0",
			"getApproved(uint256)": "081812fc",
			"getBalance()": "12065fe0",
			"getContractAdress()": "7266f938",
			"getMintFee()": "7a5caab3",
			"getRoleAdmin(bytes32)": "248a9ca3",
			"grantRole(bytes32,address)": "2f2ff15d",
			"hasRole(bytes32,address)": "91d14854",
			"isApprovedForAll(address,address)": "e985e9c5",
			"mint(string)": "d85d3d27",
			"name()": "06fdde03",
			"ownerOf(uint256)": "6352211e",
			"pause()": "8456cb59",
			"paused()": "5c975abb",
			"renounceRole(bytes32,address)": "36568abe",
			"revokeRole(bytes32,address)": "d547741f",
			"safeTransferFrom(address,address,uint256)": "42842e0e",
			"safeTransferFrom(address,address,uint256,bytes)": "b88d4fde",
			"setApprovalForAll(address,bool)": "a22cb465",
			"setMintFee(uint256)": "eddd0d9c",
			"supportsInterface(bytes4)": "01ffc9a7",
			"symbol()": "95d89b41",
			"tokenByIndex(uint256)": "4f6ccce7",
			"tokenOfOwnerByIndex(address,uint256)": "2f745c59",
			"tokenURI(uint256)": "c87b56dd",
			"totalSupply()": "18160ddd",
			"transferFrom(address,address,uint256)": "23b872dd",
			"transferFunds(address)": "e39ff19f",
			"unpause()": "3f4ba83a",
			"withdraw(address)": "51cff8d9"
		}
	},
	"abi": [
		{
			"inputs": [],
			"stateMutability": "nonpayable",
			"type": "constructor"
		},
		{
			"anonymous": false,
			"inputs": [
				{
					"indexed": true,
					"internalType": "address",
					"name": "owner",
					"type": "address"
				},
				{
					"indexed": true,
					"internalType": "address",
					"name": "approved",
					"type": "address"
				},
				{
					"indexed": true,
					"internalType": "uint256",
					"name": "tokenId",
					"type": "uint256"
				}
			],
			"name": "Approval",
			"type": "event"
		},
		{
			"anonymous": false,
			"inputs": [
				{
					"indexed": true,
					"internalType": "address",
					"name": "owner",
					"type": "address"
				},
				{
					"indexed": true,
					"internalType": "address",
					"name": "operator",
					"type": "address"
				},
				{
					"indexed": false,
					"internalType": "bool",
					"name": "approved",
					"type": "bool"
				}
			],
			"name": "ApprovalForAll",
			"type": "event"
		},
		{
			"anonymous": false,
			"inputs": [
				{
					"indexed": false,
					"internalType": "address",
					"name": "account",
					"type": "address"
				}
			],
			"name": "Paused",
			"type": "event"
		},
		{
			"anonymous": false,
			"inputs": [
				{
					"indexed": true,
					"internalType": "bytes32",
					"name": "role",
					"type": "bytes32"
				},
				{
					"indexed": true,
					"internalType": "bytes32",
					"name": "previousAdminRole",
					"type": "bytes32"
				},
				{
					"indexed": true,
					"internalType": "bytes32",
					"name": "newAdminRole",
					"type": "bytes32"
				}
			],
			"name": "RoleAdminChanged",
			"type": "event"
		},
		{
			"anonymous": false,
			"inputs": [
				{
					"indexed": true,
					"internalType": "bytes32",
					"name": "role",
					"type": "bytes32"
				},
				{
					"indexed": true,
					"internalType": "address",
					"name": "account",
					"type": "address"
				},
				{
					"indexed": true,
					"internalType": "address",
					"name": "sender",
					"type": "address"
				}
			],
			"name": "RoleGranted",
			"type": "event"
		},
		{
			"anonymous": false,
			"inputs": [
				{
					"indexed": true,
					"internalType": "bytes32",
					"name": "role",
					"type": "bytes32"
				},
				{
					"indexed": true,
					"internalType": "address",
					"name": "account",
					"type": "address"
				},
				{
					"indexed": true,
					"internalType": "address",
					"name": "sender",
					"type": "address"
				}
			],
			"name": "RoleRevoked",
			"type": "event"
		},
		{
			"anonymous": false,
			"inputs": [
				{
					"indexed": true,
					"internalType": "address",
					"name": "from",
					"type": "address"
				},
				{
					"indexed": true,
					"internalType": "address",
					"name": "to",
					"type": "address"
				},
				{
					"indexed": true,
					"internalType": "uint256",
					"name": "tokenId",
					"type": "uint256"
				}
			],
			"name": "Transfer",
			"type": "event"
		},
		{
			"anonymous": false,
			"inputs": [
				{
					"indexed": false,
					"internalType": "address",
					"name": "account",
					"type": "address"
				}
			],
			"name": "Unpaused",
			"type": "event"
		},
		{
			"anonymous": false,
			"inputs": [
				{
					"indexed": false,
					"internalType": "uint256",
					"name": "fee",
					"type": "uint256"
				}
			],
			"name": "mintFeeChanged",
			"type": "event"
		},
		{
			"inputs": [],
			"name": "DEFAULT_ADMIN_ROLE",
			"outputs": [
				{
					"internalType": "bytes32",
					"name": "",
					"type": "bytes32"
				}
			],
			"stateMutability": "view",
			"type": "function"
		},
		{
			"inputs": [],
			"name": "MINTER_ROLE",
			"outputs": [
				{
					"internalType": "bytes32",
					"name": "",
					"type": "bytes32"
				}
			],
			"stateMutability": "view",
			"type": "function"
		},
		{
			"inputs": [],
			"name": "PAUSER_ROLE",
			"outputs": [
				{
					"internalType": "bytes32",
					"name": "",
					"type": "bytes32"
				}
			],
			"stateMutability": "view",
			"type": "function"
		},
		{
			"inputs": [
				{
					"internalType": "address",
					"name": "to",
					"type": "address"
				},
				{
					"internalType": "uint256",
					"name": "tokenId",
					"type": "uint256"
				}
			],
			"name": "approve",
			"outputs": [],
			"stateMutability": "nonpayable",
			"type": "function"
		},
		{
			"inputs": [
				{
					"internalType": "address",
					"name": "owner",
					"type": "address"
				}
			],
			"name": "balanceOf",
			"outputs": [
				{
					"internalType": "uint256",
					"name": "",
					"type": "uint256"
				}
			],
			"stateMutability": "view",
			"type": "function"
		},
		{
			"inputs": [
				{
					"internalType": "uint256",
					"name": "tokenId",
					"type": "uint256"
				}
			],
			"name": "burn",
			"outputs": [],
			"stateMutability": "nonpayable",
			"type": "function"
		},
		{
			"inputs": [],
			"name": "cap",
			"outputs": [
				{
					"internalType": "uint256",
					"name": "",
					"type": "uint256"
				}
			],
			"stateMutability": "view",
			"type": "function"
		},
		{
			"inputs": [],
			"name": "contractOwner",
			"outputs": [
				{
					"internalType": "address",
					"name": "",
					"type": "address"
				}
			],
			"stateMutability": "view",
			"type": "function"
		},
		{
			"inputs": [
				{
					"internalType": "uint256",
					"name": "tokenId",
					"type": "uint256"
				}
			],
			"name": "getApproved",
			"outputs": [
				{
					"internalType": "address",
					"name": "",
					"type": "address"
				}
			],
			"stateMutability": "view",
			"type": "function"
		},
		{
			"inputs": [],
			"name": "getBalance",
			"outputs": [
				{
					"internalType": "uint256",
					"name": "",
					"type": "uint256"
				}
			],
			"stateMutability": "view",
			"type": "function"
		},
		{
			"inputs": [],
			"name": "getContractAdress",
			"outputs": [
				{
					"internalType": "address",
					"name": "",
					"type": "address"
				}
			],
			"stateMutability": "view",
			"type": "function"
		},
		{
			"inputs": [],
			"name": "getMintFee",
			"outputs": [
				{
					"internalType": "uint256",
					"name": "",
					"type": "uint256"
				}
			],
			"stateMutability": "view",
			"type": "function"
		},
		{
			"inputs": [
				{
					"internalType": "bytes32",
					"name": "role",
					"type": "bytes32"
				}
			],
			"name": "getRoleAdmin",
			"outputs": [
				{
					"internalType": "bytes32",
					"name": "",
					"type": "bytes32"
				}
			],
			"stateMutability": "view",
			"type": "function"
		},
		{
			"inputs": [
				{
					"internalType": "bytes32",
					"name": "role",
					"type": "bytes32"
				},
				{
					"internalType": "address",
					"name": "account",
					"type": "address"
				}
			],
			"name": "grantRole",
			"outputs": [],
			"stateMutability": "nonpayable",
			"type": "function"
		},
		{
			"inputs": [
				{
					"internalType": "bytes32",
					"name": "role",
					"type": "bytes32"
				},
				{
					"internalType": "address",
					"name": "account",
					"type": "address"
				}
			],
			"name": "hasRole",
			"outputs": [
				{
					"internalType": "bool",
					"name": "",
					"type": "bool"
				}
			],
			"stateMutability": "view",
			"type": "function"
		},
		{
			"inputs": [
				{
					"internalType": "address",
					"name": "owner",
					"type": "address"
				},
				{
					"internalType": "address",
					"name": "operator",
					"type": "address"
				}
			],
			"name": "isApprovedForAll",
			"outputs": [
				{
					"internalType": "bool",
					"name": "",
					"type": "bool"
				}
			],
			"stateMutability": "view",
			"type": "function"
		},
		{
			"inputs": [
				{
					"internalType": "string",
					"name": "_tokenURI",
					"type": "string"
				}
			],
			"name": "mint",
			"outputs": [],
			"stateMutability": "payable",
			"type": "function"
		},
		{
			"inputs": [],
			"name": "name",
			"outputs": [
				{
					"internalType": "string",
					"name": "",
					"type": "string"
				}
			],
			"stateMutability": "view",
			"type": "function"
		},
		{
			"inputs": [
				{
					"internalType": "uint256",
					"name": "tokenId",
					"type": "uint256"
				}
			],
			"name": "ownerOf",
			"outputs": [
				{
					"internalType": "address",
					"name": "",
					"type": "address"
				}
			],
			"stateMutability": "view",
			"type": "function"
		},
		{
			"inputs": [],
			"name": "pause",
			"outputs": [],
			"stateMutability": "nonpayable",
			"type": "function"
		},
		{
			"inputs": [],
			"name": "paused",
			"outputs": [
				{
					"internalType": "bool",
					"name": "",
					"type": "bool"
				}
			],
			"stateMutability": "view",
			"type": "function"
		},
		{
			"inputs": [
				{
					"internalType": "bytes32",
					"name": "role",
					"type": "bytes32"
				},
				{
					"internalType": "address",
					"name": "account",
					"type": "address"
				}
			],
			"name": "renounceRole",
			"outputs": [],
			"stateMutability": "nonpayable",
			"type": "function"
		},
		{
			"inputs": [
				{
					"internalType": "bytes32",
					"name": "role",
					"type": "bytes32"
				},
				{
					"internalType": "address",
					"name": "account",
					"type": "address"
				}
			],
			"name": "revokeRole",
			"outputs": [],
			"stateMutability": "nonpayable",
			"type": "function"
		},
		{
			"inputs": [
				{
					"internalType": "address",
					"name": "from",
					"type": "address"
				},
				{
					"internalType": "address",
					"name": "to",
					"type": "address"
				},
				{
					"internalType": "uint256",
					"name": "tokenId",
					"type": "uint256"
				}
			],
			"name": "safeTransferFrom",
			"outputs": [],
			"stateMutability": "nonpayable",
			"type": "function"
		},
		{
			"inputs": [
				{
					"internalType": "address",
					"name": "from",
					"type": "address"
				},
				{
					"internalType": "address",
					"name": "to",
					"type": "address"
				},
				{
					"internalType": "uint256",
					"name": "tokenId",
					"type": "uint256"
				},
				{
					"internalType": "bytes",
					"name": "_data",
					"type": "bytes"
				}
			],
			"name": "safeTransferFrom",
			"outputs": [],
			"stateMutability": "nonpayable",
			"type": "function"
		},
		{
			"inputs": [
				{
					"internalType": "address",
					"name": "operator",
					"type": "address"
				},
				{
					"internalType": "bool",
					"name": "approved",
					"type": "bool"
				}
			],
			"name": "setApprovalForAll",
			"outputs": [],
			"stateMutability": "nonpayable",
			"type": "function"
		},
		{
			"inputs": [
				{
					"internalType": "uint256",
					"name": "fee",
					"type": "uint256"
				}
			],
			"name": "setMintFee",
			"outputs": [],
			"stateMutability": "nonpayable",
			"type": "function"
		},
		{
			"inputs": [
				{
					"internalType": "bytes4",
					"name": "interfaceId",
					"type": "bytes4"
				}
			],
			"name": "supportsInterface",
			"outputs": [
				{
					"internalType": "bool",
					"name": "",
					"type": "bool"
				}
			],
			"stateMutability": "view",
			"type": "function"
		},
		{
			"inputs": [],
			"name": "symbol",
			"outputs": [
				{
					"internalType": "string",
					"name": "",
					"type": "string"
				}
			],
			"stateMutability": "view",
			"type": "function"
		},
		{
			"inputs": [
				{
					"internalType": "uint256",
					"name": "index",
					"type": "uint256"
				}
			],
			"name": "tokenByIndex",
			"outputs": [
				{
					"internalType": "uint256",
					"name": "",
					"type": "uint256"
				}
			],
			"stateMutability": "view",
			"type": "function"
		},
		{
			"inputs": [
				{
					"internalType": "address",
					"name": "owner",
					"type": "address"
				},
				{
					"internalType": "uint256",
					"name": "index",
					"type": "uint256"
				}
			],
			"name": "tokenOfOwnerByIndex",
			"outputs": [
				{
					"internalType": "uint256",
					"name": "",
					"type": "uint256"
				}
			],
			"stateMutability": "view",
			"type": "function"
		},
		{
			"inputs": [
				{
					"internalType": "uint256",
					"name": "tokenId",
					"type": "uint256"
				}
			],
			"name": "tokenURI",
			"outputs": [
				{
					"internalType": "string",
					"name": "",
					"type": "string"
				}
			],
			"stateMutability": "view",
			"type": "function"
		},
		{
			"inputs": [],
			"name": "totalSupply",
			"outputs": [
				{
					"internalType": "uint256",
					"name": "",
					"type": "uint256"
				}
			],
			"stateMutability": "view",
			"type": "function"
		},
		{
			"inputs": [
				{
					"internalType": "address",
					"name": "from",
					"type": "address"
				},
				{
					"internalType": "address",
					"name": "to",
					"type": "address"
				},
				{
					"internalType": "uint256",
					"name": "tokenId",
					"type": "uint256"
				}
			],
			"name": "transferFrom",
			"outputs": [],
			"stateMutability": "nonpayable",
			"type": "function"
		},
		{
			"inputs": [
				{
					"internalType": "address payable",
					"name": "to",
					"type": "address"
				}
			],
			"name": "transferFunds",
			"outputs": [],
			"stateMutability": "payable",
			"type": "function"
		},
		{
			"inputs": [],
			"name": "unpause",
			"outputs": [],
			"stateMutability": "nonpayable",
			"type": "function"
		},
		{
			"inputs": [
				{
					"internalType": "address payable",
					"name": "recepient",
					"type": "address"
				}
			],
			"name": "withdraw",
			"outputs": [],
			"stateMutability": "nonpayable",
			"type": "function"
		},
		{
			"stateMutability": "payable",
			"type": "receive"
		}
	]
}