{
  "contractName": "SlayerBadge",
  "abi": [
    {
      "inputs": [
        {
          "internalType": "uint256",
          "name": "cap_",
          "type": "uint256"
        }
      ],
      "stateMutability": "nonpayable",
      "type": "constructor"
    },
    {
      "anonymous": false,
      "inputs": [
        {
          "indexed": true,
          "internalType": "address",
          "name": "owner",
          "type": "address"
        },
        {
          "indexed": true,
          "internalType": "address",
          "name": "approved",
          "type": "address"
        },
        {
          "indexed": true,
          "internalType": "uint256",
          "name": "tokenId",
          "type": "uint256"
        }
      ],
      "name": "Approval",
      "type": "event"
    },
    {
      "anonymous": false,
      "inputs": [
        {
          "indexed": true,
          "internalType": "address",
          "name": "owner",
          "type": "address"
        },
        {
          "indexed": true,
          "internalType": "address",
          "name": "operator",
          "type": "address"
        },
        {
          "indexed": false,
          "internalType": "bool",
          "name": "approved",
          "type": "bool"
        }
      ],
      "name": "ApprovalForAll",
      "type": "event"
    },
    {
      "anonymous": false,
      "inputs": [
        {
          "indexed": true,
          "internalType": "address",
          "name": "from",
          "type": "address"
        },
        {
          "indexed": true,
          "internalType": "address",
          "name": "to",
          "type": "address"
        },
        {
          "indexed": true,
          "internalType": "uint256",
          "name": "tokenId",
          "type": "uint256"
        }
      ],
      "name": "Transfer",
      "type": "event"
    },
    {
      "inputs": [
        {
          "internalType": "address",
          "name": "to",
          "type": "address"
        },
        {
          "internalType": "uint256",
          "name": "tokenId",
          "type": "uint256"
        }
      ],
      "name": "approve",
      "outputs": [],
      "stateMutability": "nonpayable",
      "type": "function"
    },
    {
      "inputs": [
        {
          "internalType": "address",
          "name": "owner",
          "type": "address"
        }
      ],
      "name": "balanceOf",
      "outputs": [
        {
          "internalType": "uint256",
          "name": "",
          "type": "uint256"
        }
      ],
      "stateMutability": "view",
      "type": "function",
      "constant": true
    },
    {
      "inputs": [
        {
          "internalType": "uint256",
          "name": "tokenId",
          "type": "uint256"
        }
      ],
      "name": "getApproved",
      "outputs": [
        {
          "internalType": "address",
          "name": "",
          "type": "address"
        }
      ],
      "stateMutability": "view",
      "type": "function",
      "constant": true
    },
    {
      "inputs": [
        {
          "internalType": "address",
          "name": "owner",
          "type": "address"
        },
        {
          "internalType": "address",
          "name": "operator",
          "type": "address"
        }
      ],
      "name": "isApprovedForAll",
      "outputs": [
        {
          "internalType": "bool",
          "name": "",
          "type": "bool"
        }
      ],
      "stateMutability": "view",
      "type": "function",
      "constant": true
    },
    {
      "inputs": [],
      "name": "name",
      "outputs": [
        {
          "internalType": "string",
          "name": "",
          "type": "string"
        }
      ],
      "stateMutability": "view",
      "type": "function",
      "constant": true
    },
    {
      "inputs": [
        {
          "internalType": "uint256",
          "name": "tokenId",
          "type": "uint256"
        }
      ],
      "name": "ownerOf",
      "outputs": [
        {
          "internalType": "address",
          "name": "",
          "type": "address"
        }
      ],
      "stateMutability": "view",
      "type": "function",
      "constant": true
    },
    {
      "inputs": [
        {
          "internalType": "address",
          "name": "from",
          "type": "address"
        },
        {
          "internalType": "address",
          "name": "to",
          "type": "address"
        },
        {
          "internalType": "uint256",
          "name": "tokenId",
          "type": "uint256"
        }
      ],
      "name": "safeTransferFrom",
      "outputs": [],
      "stateMutability": "nonpayable",
      "type": "function"
    },
    {
      "inputs": [
        {
          "internalType": "address",
          "name": "from",
          "type": "address"
        },
        {
          "internalType": "address",
          "name": "to",
          "type": "address"
        },
        {
          "internalType": "uint256",
          "name": "tokenId",
          "type": "uint256"
        },
        {
          "internalType": "bytes",
          "name": "_data",
          "type": "bytes"
        }
      ],
      "name": "safeTransferFrom",
      "outputs": [],
      "stateMutability": "nonpayable",
      "type": "function"
    },
    {
      "inputs": [
        {
          "internalType": "address",
          "name": "operator",
          "type": "address"
        },
        {
          "internalType": "bool",
          "name": "approved",
          "type": "bool"
        }
      ],
      "name": "setApprovalForAll",
      "outputs": [],
      "stateMutability": "nonpayable",
      "type": "function"
    },
    {
      "inputs": [
        {
          "internalType": "bytes4",
          "name": "interfaceId",
          "type": "bytes4"
        }
      ],
      "name": "supportsInterface",
      "outputs": [
        {
          "internalType": "bool",
          "name": "",
          "type": "bool"
        }
      ],
      "stateMutability": "view",
      "type": "function",
      "constant": true
    },
    {
      "inputs": [],
      "name": "symbol",
      "outputs": [
        {
          "internalType": "string",
          "name": "",
          "type": "string"
        }
      ],
      "stateMutability": "view",
      "type": "function",
      "constant": true
    },
    {
      "inputs": [
        {
          "internalType": "uint256",
          "name": "tokenId",
          "type": "uint256"
        }
      ],
      "name": "tokenURI",
      "outputs": [
        {
          "internalType": "string",
          "name": "",
          "type": "string"
        }
      ],
      "stateMutability": "view",
      "type": "function",
      "constant": true
    },
    {
      "inputs": [
        {
          "internalType": "address",
          "name": "from",
          "type": "address"
        },
        {
          "internalType": "address",
          "name": "to",
          "type": "address"
        },
        {
          "internalType": "uint256",
          "name": "tokenId",
          "type": "uint256"
        }
      ],
      "name": "transferFrom",
      "outputs": [],
      "stateMutability": "nonpayable",
      "type": "function"
    },
    {
      "stateMutability": "payable",
      "type": "receive",
      "payable": true
    },
    {
      "inputs": [],
      "name": "cap",
      "outputs": [
        {
          "internalType": "uint256",
          "name": "",
          "type": "uint256"
        }
      ],
      "stateMutability": "view",
      "type": "function",
      "constant": true
    },
    {
      "inputs": [],
      "name": "contractURI",
      "outputs": [
        {
          "internalType": "string",
          "name": "",
          "type": "string"
        }
      ],
      "stateMutability": "pure",
      "type": "function",
      "constant": true
    },
    {
      "inputs": [
        {
          "internalType": "address",
          "name": "to",
          "type": "address"
        },
        {
          "internalType": "string",
          "name": "tokenURI",
          "type": "string"
        }
      ],
      "name": "mint",
      "outputs": [],
      "stateMutability": "payable",
      "type": "function",
      "payable": true
    },
    {
      "inputs": [],
      "name": "totalSupply",
      "outputs": [
        {
          "internalType": "uint256",
          "name": "",
          "type": "uint256"
        }
      ],
      "stateMutability": "view",
      "type": "function",
      "constant": true
    },
    {
      "inputs": [
        {
          "internalType": "address payable",
          "name": "to",
          "type": "address"
        }
      ],
      "name": "transferFunds",
      "outputs": [],
      "stateMutability": "payable",
      "type": "function",
      "payable": true
    },
    {
      "inputs": [],
      "name": "getBalance",
      "outputs": [
        {
          "internalType": "uint256",
          "name": "",
          "type": "uint256"
        }
      ],
      "stateMutability": "view",
      "type": "function",
      "constant": true
    }
  ],
  "bytecode": "0x60a06040523480156200001157600080fd5b5060405162003436380380620034368339818101604052810190620000379190620001f3565b6040518060400160405280600981526020017f524f536c617965727300000000000000000000000000000000000000000000008152506040518060400160405280600381526020017f524f5300000000000000000000000000000000000000000000000000000000008152508160009080519060200190620000bb9291906200012c565b508060019080519060200190620000d49291906200012c565b505050600081116200011d576040517f08c379a0000000000000000000000000000000000000000000000000000000008152600401620001149062000261565b60405180910390fd5b8060808181525050506200031d565b8280546200013a906200029e565b90600052602060002090601f0160209004810192826200015e5760008555620001aa565b82601f106200017957805160ff1916838001178555620001aa565b82800160010185558215620001aa579182015b82811115620001a95782518255916020019190600101906200018c565b5b509050620001b99190620001bd565b5090565b5b80821115620001d8576000816000905550600101620001be565b5090565b600081519050620001ed8162000303565b92915050565b6000602082840312156200020657600080fd5b60006200021684828501620001dc565b91505092915050565b60006200022e600f8362000283565b91507f45524337323120636170206973203000000000000000000000000000000000006000830152602082019050919050565b600060208201905081810360008301526200027c816200021f565b9050919050565b600082825260208201905092915050565b6000819050919050565b60006002820490506001821680620002b757607f821691505b60208210811415620002ce57620002cd620002d4565b5b50919050565b7f4e487b7100000000000000000000000000000000000000000000000000000000600052602260045260246000fd5b6200030e8162000294565b81146200031a57600080fd5b50565b6080516130fd62000339600039600061085b01526130fd6000f3fe608060405260043610610135576000357c0100000000000000000000000000000000000000000000000000000000900480636352211e116100bd578063c87b56dd11610081578063c87b56dd146103d9578063d0def52114610416578063e39ff19f14610432578063e8a3d4851461044e578063e985e9c5146104795761013c565b80636352211e146102e257806370a082311461031f57806395d89b411461035c578063a22cb46514610387578063b88d4fde146103b05761013c565b806312065fe01161010457806312065fe01461020f57806318160ddd1461023a57806323b872dd14610265578063355274ea1461028e57806342842e0e146102b95761013c565b806301ffc9a71461014157806306fdde031461017e578063081812fc146101a9578063095ea7b3146101e65761013c565b3661013c57005b600080fd5b34801561014d57600080fd5b5061016860048036038101906101639190612098565b6104b6565b6040516101759190612971565b60405180910390f35b34801561018a57600080fd5b50610193610598565b6040516101a0919061298c565b60405180910390f35b3480156101b557600080fd5b506101d060048036038101906101cb91906120ea565b61062a565b6040516101dd919061290a565b60405180910390f35b3480156101f257600080fd5b5061020d6004803603810190610208919061205c565b6106af565b005b34801561021b57600080fd5b506102246107c7565b6040516102319190612c0e565b60405180910390f35b34801561024657600080fd5b5061024f6107e6565b60405161025c9190612c0e565b60405180910390f35b34801561027157600080fd5b5061028c60048036038101906102879190611f02565b6107f7565b005b34801561029a57600080fd5b506102a3610857565b6040516102b09190612c0e565b60405180910390f35b3480156102c557600080fd5b506102e060048036038101906102db9190611f02565b61087f565b005b3480156102ee57600080fd5b50610309600480360381019061030491906120ea565b61089f565b604051610316919061290a565b60405180910390f35b34801561032b57600080fd5b5061034660048036038101906103419190611e74565b610951565b6040516103539190612c0e565b60405180910390f35b34801561036857600080fd5b50610371610a09565b60405161037e919061298c565b60405180910390f35b34801561039357600080fd5b506103ae60048036038101906103a99190611fcc565b610a9b565b005b3480156103bc57600080fd5b506103d760048036038101906103d29190611f51565b610c1c565b005b3480156103e557600080fd5b5061040060048036038101906103fb91906120ea565b610c7e565b60405161040d919061298c565b60405180910390f35b610430600480360381019061042b9190612008565b610dd0565b005b61044c60048036038101906104479190611e9d565b610e9f565b005b34801561045a57600080fd5b50610463610f52565b604051610470919061298c565b60405180910390f35b34801561048557600080fd5b506104a0600480360381019061049b9190611ec6565b610f72565b6040516104ad9190612971565b60405180910390f35b60007f80ac58cd000000000000000000000000000000000000000000000000000000007bffffffffffffffffffffffffffffffffffffffffffffffffffffffff1916827bffffffffffffffffffffffffffffffffffffffffffffffffffffffff1916148061058157507f5b5e139f000000000000000000000000000000000000000000000000000000007bffffffffffffffffffffffffffffffffffffffffffffffffffffffff1916827bffffffffffffffffffffffffffffffffffffffffffffffffffffffff1916145b80610591575061059082611006565b5b9050919050565b6060600080546105a790612e8b565b80601f01602080910402602001604051908101604052809291908181526020018280546105d390612e8b565b80156106205780601f106105f557610100808354040283529160200191610620565b820191906000526020600020905b81548152906001019060200180831161060357829003601f168201915b5050505050905090565b600061063582611070565b610674576040517f08c379a000000000000000000000000000000000000000000000000000000000815260040161066b90612b6e565b60405180910390fd5b6004600083815260200190815260200160002060009054906101000a900473ffffffffffffffffffffffffffffffffffffffff169050919050565b60006106ba8261089f565b90508073ffffffffffffffffffffffffffffffffffffffff168373ffffffffffffffffffffffffffffffffffffffff16141561072b576040517f08c379a000000000000000000000000000000000000000000000000000000000815260040161072290612bce565b60405180910390fd5b8073ffffffffffffffffffffffffffffffffffffffff1661074a6110dc565b73ffffffffffffffffffffffffffffffffffffffff1614806107795750610778816107736110dc565b610f72565b5b6107b8576040517f08c379a00000000000000000000000000000000000000000000000000000000081526004016107af90612aae565b60405180910390fd5b6107c283836110e4565b505050565b60003073ffffffffffffffffffffffffffffffffffffffff1631905090565b60006107f2600761119d565b905090565b6108086108026110dc565b826111ab565b610847576040517f08c379a000000000000000000000000000000000000000000000000000000000815260040161083e90612bee565b60405180910390fd5b610852838383611289565b505050565b60007f0000000000000000000000000000000000000000000000000000000000000000905090565b61089a83838360405180602001604052806000815250610c1c565b505050565b6000806002600084815260200190815260200160002060009054906101000a900473ffffffffffffffffffffffffffffffffffffffff169050600073ffffffffffffffffffffffffffffffffffffffff168173ffffffffffffffffffffffffffffffffffffffff161415610948576040517f08c379a000000000000000000000000000000000000000000000000000000000815260040161093f90612aee565b60405180910390fd5b80915050919050565b60008073ffffffffffffffffffffffffffffffffffffffff168273ffffffffffffffffffffffffffffffffffffffff1614156109c2576040517f08c379a00000000000000000000000000000000000000000000000000000000081526004016109b990612ace565b60405180910390fd5b600360008373ffffffffffffffffffffffffffffffffffffffff1673ffffffffffffffffffffffffffffffffffffffff168152602001908152602001600020549050919050565b606060018054610a1890612e8b565b80601f0160208091040260200160405190810160405280929190818152602001828054610a4490612e8b565b8015610a915780601f10610a6657610100808354040283529160200191610a91565b820191906000526020600020905b815481529060010190602001808311610a7457829003601f168201915b5050505050905090565b610aa36110dc565b73ffffffffffffffffffffffffffffffffffffffff168273ffffffffffffffffffffffffffffffffffffffff161415610b11576040517f08c379a0000000000000000000000000000000000000000000000000000000008152600401610b0890612a2e565b60405180910390fd5b8060056000610b1e6110dc565b73ffffffffffffffffffffffffffffffffffffffff1673ffffffffffffffffffffffffffffffffffffffff16815260200190815260200160002060008473ffffffffffffffffffffffffffffffffffffffff1673ffffffffffffffffffffffffffffffffffffffff16815260200190815260200160002060006101000a81548160ff0219169083151502179055508173ffffffffffffffffffffffffffffffffffffffff16610bcb6110dc565b73ffffffffffffffffffffffffffffffffffffffff167f17307eab39ab6107e8899845ad3d59bd9653f200f220920489ca2b5937696c3183604051610c109190612971565b60405180910390a35050565b610c2d610c276110dc565b836111ab565b610c6c576040517f08c379a0000000000000000000000000000000000000000000000000000000008152600401610c6390612bee565b60405180910390fd5b610c78848484846114e5565b50505050565b6060610c8982611070565b610cc8576040517f08c379a0000000000000000000000000000000000000000000000000000000008152600401610cbf90612b4e565b60405180910390fd5b6000600660008481526020019081526020016000208054610ce890612e8b565b80601f0160208091040260200160405190810160405280929190818152602001828054610d1490612e8b565b8015610d615780601f10610d3657610100808354040283529160200191610d61565b820191906000526020600020905b815481529060010190602001808311610d4457829003601f168201915b505050505090506000610d72611541565b9050600081511415610d88578192505050610dcb565b600082511115610dbd578082604051602001610da59291906128d1565b60405160208183030381529060405292505050610dcb565b610dc684611558565b925050505b919050565b610dd8610857565b610de06107e6565b1115610e21576040517f08c379a0000000000000000000000000000000000000000000000000000000008152600401610e1890612a6e565b60405180910390fd5b6611c37937e08000341015610e6b576040517f08c379a0000000000000000000000000000000000000000000000000000000008152600401610e6290612a8e565b60405180910390fd5b610e7560076115ff565b610e8882610e83600761119d565b611615565b610e9b610e95600761119d565b82611633565b5050565b6000808273ffffffffffffffffffffffffffffffffffffffff1634604051610ec6906128f5565b60006040518083038185875af1925050503d8060008114610f03576040519150601f19603f3d011682016040523d82523d6000602084013e610f08565b606091505b509150915081610f4d576040517f08c379a0000000000000000000000000000000000000000000000000000000008152600401610f44906129ce565b60405180910390fd5b505050565b606060405180608001604052806050815260200161307860509139905090565b6000600560008473ffffffffffffffffffffffffffffffffffffffff1673ffffffffffffffffffffffffffffffffffffffff16815260200190815260200160002060008373ffffffffffffffffffffffffffffffffffffffff1673ffffffffffffffffffffffffffffffffffffffff16815260200190815260200160002060009054906101000a900460ff16905092915050565b60007f01ffc9a7000000000000000000000000000000000000000000000000000000007bffffffffffffffffffffffffffffffffffffffffffffffffffffffff1916827bffffffffffffffffffffffffffffffffffffffffffffffffffffffff1916149050919050565b60008073ffffffffffffffffffffffffffffffffffffffff166002600084815260200190815260200160002060009054906101000a900473ffffffffffffffffffffffffffffffffffffffff1673ffffffffffffffffffffffffffffffffffffffff1614159050919050565b600033905090565b816004600083815260200190815260200160002060006101000a81548173ffffffffffffffffffffffffffffffffffffffff021916908373ffffffffffffffffffffffffffffffffffffffff160217905550808273ffffffffffffffffffffffffffffffffffffffff166111578361089f565b73ffffffffffffffffffffffffffffffffffffffff167f8c5be1e5ebec7d5bd14f71427d1e84f3dd0314c0f7b2291e5b200ac8c7c3b92560405160405180910390a45050565b600081600001549050919050565b60006111b682611070565b6111f5576040517f08c379a00000000000000000000000000000000000000000000000000000000081526004016111ec90612a4e565b60405180910390fd5b60006112008361089f565b90508073ffffffffffffffffffffffffffffffffffffffff168473ffffffffffffffffffffffffffffffffffffffff16148061126f57508373ffffffffffffffffffffffffffffffffffffffff166112578461062a565b73ffffffffffffffffffffffffffffffffffffffff16145b80611280575061127f8185610f72565b5b91505092915050565b8273ffffffffffffffffffffffffffffffffffffffff166112a98261089f565b73ffffffffffffffffffffffffffffffffffffffff16146112ff576040517f08c379a00000000000000000000000000000000000000000000000000000000081526004016112f690612b8e565b60405180910390fd5b600073ffffffffffffffffffffffffffffffffffffffff168273ffffffffffffffffffffffffffffffffffffffff16141561136f576040517f08c379a000000000000000000000000000000000000000000000000000000000815260040161136690612a0e565b60405180910390fd5b61137a8383836116a7565b6113856000826110e4565b6001600360008573ffffffffffffffffffffffffffffffffffffffff1673ffffffffffffffffffffffffffffffffffffffff16815260200190815260200160002060008282546113d59190612d8f565b925050819055506001600360008473ffffffffffffffffffffffffffffffffffffffff1673ffffffffffffffffffffffffffffffffffffffff168152602001908152602001600020600082825461142c9190612d08565b92505081905550816002600083815260200190815260200160002060006101000a81548173ffffffffffffffffffffffffffffffffffffffff021916908373ffffffffffffffffffffffffffffffffffffffff160217905550808273ffffffffffffffffffffffffffffffffffffffff168473ffffffffffffffffffffffffffffffffffffffff167fddf252ad1be2c89b69c2b068fc378daa952ba7f163c4a11628f55a4df523b3ef60405160405180910390a4505050565b6114f0848484611289565b6114fc848484846116ac565b61153b576040517f08c379a0000000000000000000000000000000000000000000000000000000008152600401611532906129ae565b60405180910390fd5b50505050565b606060405180602001604052806000815250905090565b606061156382611070565b6115a2576040517f08c379a000000000000000000000000000000000000000000000000000000000815260040161159990612bae565b60405180910390fd5b60006115ac611541565b905060008151116115cc57604051806020016040528060008152506115f7565b806115d68461187b565b6040516020016115e79291906128d1565b6040516020818303038152906040525b915050919050565b6001816000016000828254019250508190555050565b61162f828260405180602001604052806000815250611a47565b5050565b61163c82611070565b61167b576040517f08c379a000000000000000000000000000000000000000000000000000000000815260040161167290612b0e565b60405180910390fd5b806006600084815260200190815260200160002090805190602001906116a2929190611c83565b505050565b505050565b60006116cd8473ffffffffffffffffffffffffffffffffffffffff16611aa2565b1561186e578373ffffffffffffffffffffffffffffffffffffffff1663150b7a026116f66110dc565b8786866040518563ffffffff167c01000000000000000000000000000000000000000000000000000000000281526004016117349493929190612925565b602060405180830381600087803b15801561174e57600080fd5b505af192505050801561177f57506040513d601f19601f8201168201806040525081019061177c91906120c1565b60015b611802573d80600081146117af576040519150601f19603f3d011682016040523d82523d6000602084013e6117b4565b606091505b506000815114156117fa576040517f08c379a00000000000000000000000000000000000000000000000000000000081526004016117f1906129ae565b60405180910390fd5b805181602001fd5b63150b7a027c0100000000000000000000000000000000000000000000000000000000027bffffffffffffffffffffffffffffffffffffffffffffffffffffffff1916817bffffffffffffffffffffffffffffffffffffffffffffffffffffffff191614915050611873565b600190505b949350505050565b606060008214156118c3576040518060400160405280600181526020017f30000000000000000000000000000000000000000000000000000000000000008152509050611a42565b600082905060005b600082146118f55780806118de90612ebd565b915050600a826118ee9190612d5e565b91506118cb565b60008167ffffffffffffffff811115611937577f4e487b7100000000000000000000000000000000000000000000000000000000600052604160045260246000fd5b6040519080825280601f01601f1916602001820160405280156119695781602001600182028036833780820191505090505b5090505b60008514611a3b576001826119829190612d8f565b9150600a856119919190612f06565b603061199d9190612d08565b7f0100000000000000000000000000000000000000000000000000000000000000028183815181106119f8577f4e487b7100000000000000000000000000000000000000000000000000000000600052603260045260246000fd5b60200101907effffffffffffffffffffffffffffffffffffffffffffffffffffffffffffff1916908160001a905350600a85611a349190612d5e565b945061196d565b8093505050505b919050565b611a518383611ab5565b611a5e60008484846116ac565b611a9d576040517f08c379a0000000000000000000000000000000000000000000000000000000008152600401611a94906129ae565b60405180910390fd5b505050565b600080823b905060008111915050919050565b600073ffffffffffffffffffffffffffffffffffffffff168273ffffffffffffffffffffffffffffffffffffffff161415611b25576040517f08c379a0000000000000000000000000000000000000000000000000000000008152600401611b1c90612b2e565b60405180910390fd5b611b2e81611070565b15611b6e576040517f08c379a0000000000000000000000000000000000000000000000000000000008152600401611b65906129ee565b60405180910390fd5b611b7a600083836116a7565b6001600360008473ffffffffffffffffffffffffffffffffffffffff1673ffffffffffffffffffffffffffffffffffffffff1681526020019081526020016000206000828254611bca9190612d08565b92505081905550816002600083815260200190815260200160002060006101000a81548173ffffffffffffffffffffffffffffffffffffffff021916908373ffffffffffffffffffffffffffffffffffffffff160217905550808273ffffffffffffffffffffffffffffffffffffffff16600073ffffffffffffffffffffffffffffffffffffffff167fddf252ad1be2c89b69c2b068fc378daa952ba7f163c4a11628f55a4df523b3ef60405160405180910390a45050565b828054611c8f90612e8b565b90600052602060002090601f016020900481019282611cb15760008555611cf8565b82601f10611cca57805160ff1916838001178555611cf8565b82800160010185558215611cf8579182015b82811115611cf7578251825591602001919060010190611cdc565b5b509050611d059190611d09565b5090565b5b80821115611d22576000816000905550600101611d0a565b5090565b6000611d39611d3484612c5a565b612c29565b905082815260208101848484011115611d5157600080fd5b611d5c848285612e49565b509392505050565b6000611d77611d7284612c8a565b612c29565b905082815260208101848484011115611d8f57600080fd5b611d9a848285612e49565b509392505050565b600081359050611db181613004565b92915050565b600081359050611dc68161301b565b92915050565b600081359050611ddb81613032565b92915050565b600081359050611df081613049565b92915050565b600081519050611e0581613049565b92915050565b600082601f830112611e1c57600080fd5b8135611e2c848260208601611d26565b91505092915050565b600082601f830112611e4657600080fd5b8135611e56848260208601611d64565b91505092915050565b600081359050611e6e81613060565b92915050565b600060208284031215611e8657600080fd5b6000611e9484828501611da2565b91505092915050565b600060208284031215611eaf57600080fd5b6000611ebd84828501611db7565b91505092915050565b60008060408385031215611ed957600080fd5b6000611ee785828601611da2565b9250506020611ef885828601611da2565b9150509250929050565b600080600060608486031215611f1757600080fd5b6000611f2586828701611da2565b9350506020611f3686828701611da2565b9250506040611f4786828701611e5f565b9150509250925092565b60008060008060808587031215611f6757600080fd5b6000611f7587828801611da2565b9450506020611f8687828801611da2565b9350506040611f9787828801611e5f565b925050606085013567ffffffffffffffff811115611fb457600080fd5b611fc087828801611e0b565b91505092959194509250565b60008060408385031215611fdf57600080fd5b6000611fed85828601611da2565b9250506020611ffe85828601611dcc565b9150509250929050565b6000806040838503121561201b57600080fd5b600061202985828601611da2565b925050602083013567ffffffffffffffff81111561204657600080fd5b61205285828601611e35565b9150509250929050565b6000806040838503121561206f57600080fd5b600061207d85828601611da2565b925050602061208e85828601611e5f565b9150509250929050565b6000602082840312156120aa57600080fd5b60006120b884828501611de1565b91505092915050565b6000602082840312156120d357600080fd5b60006120e184828501611df6565b91505092915050565b6000602082840312156120fc57600080fd5b600061210a84828501611e5f565b91505092915050565b61211c81612dc3565b82525050565b61212b81612de7565b82525050565b600061213c82612cba565b6121468185612cd0565b9350612156818560208601612e58565b61215f81612ff3565b840191505092915050565b600061217582612cc5565b61217f8185612cec565b935061218f818560208601612e58565b61219881612ff3565b840191505092915050565b60006121ae82612cc5565b6121b88185612cfd565b93506121c8818560208601612e58565b80840191505092915050565b60006121e1603283612cec565b91507f4552433732313a207472616e7366657220746f206e6f6e20455243373231526560008301527f63656976657220696d706c656d656e74657200000000000000000000000000006020830152604082019050919050565b6000612247600f83612cec565b91507f46616c69656420746f2073656e642100000000000000000000000000000000006000830152602082019050919050565b6000612287601c83612cec565b91507f4552433732313a20746f6b656e20616c7265616479206d696e746564000000006000830152602082019050919050565b60006122c7602483612cec565b91507f4552433732313a207472616e7366657220746f20746865207a65726f2061646460008301527f72657373000000000000000000000000000000000000000000000000000000006020830152604082019050919050565b600061232d601983612cec565b91507f4552433732313a20617070726f766520746f2063616c6c6572000000000000006000830152602082019050919050565b600061236d602c83612cec565b91507f4552433732313a206f70657261746f7220717565727920666f72206e6f6e657860008301527f697374656e7420746f6b656e00000000000000000000000000000000000000006020830152604082019050919050565b60006123d3601783612cec565b91507f455243373231204361703a2063617020726561636865640000000000000000006000830152602082019050919050565b6000612413602183612cec565b91507f4e6f7420656e6f756768204554482073656e743a20636865636b20707269636560008301527f2e000000000000000000000000000000000000000000000000000000000000006020830152604082019050919050565b6000612479603883612cec565b91507f4552433732313a20617070726f76652063616c6c6572206973206e6f74206f7760008301527f6e6572206e6f7220617070726f76656420666f7220616c6c00000000000000006020830152604082019050919050565b60006124df602a83612cec565b91507f4552433732313a2062616c616e636520717565727920666f7220746865207a6560008301527f726f2061646472657373000000000000000000000000000000000000000000006020830152604082019050919050565b6000612545602983612cec565b91507f4552433732313a206f776e657220717565727920666f72206e6f6e657869737460008301527f656e7420746f6b656e00000000000000000000000000000000000000000000006020830152604082019050919050565b60006125ab602e83612cec565b91507f45524337323155524953746f726167653a2055524920736574206f66206e6f6e60008301527f6578697374656e7420746f6b656e0000000000000000000000000000000000006020830152604082019050919050565b6000612611602083612cec565b91507f4552433732313a206d696e7420746f20746865207a65726f20616464726573736000830152602082019050919050565b6000612651603183612cec565b91507f45524337323155524953746f726167653a2055524920717565727920666f722060008301527f6e6f6e6578697374656e7420746f6b656e0000000000000000000000000000006020830152604082019050919050565b60006126b7602c83612cec565b91507f4552433732313a20617070726f76656420717565727920666f72206e6f6e657860008301527f697374656e7420746f6b656e00000000000000000000000000000000000000006020830152604082019050919050565b600061271d602983612cec565b91507f4552433732313a207472616e73666572206f6620746f6b656e2074686174206960008301527f73206e6f74206f776e00000000000000000000000000000000000000000000006020830152604082019050919050565b6000612783602f83612cec565b91507f4552433732314d657461646174613a2055524920717565727920666f72206e6f60008301527f6e6578697374656e7420746f6b656e00000000000000000000000000000000006020830152604082019050919050565b60006127e9602183612cec565b91507f4552433732313a20617070726f76616c20746f2063757272656e74206f776e6560008301527f72000000000000000000000000000000000000000000000000000000000000006020830152604082019050919050565b600061284f600083612ce1565b9150600082019050919050565b6000612869603183612cec565b91507f4552433732313a207472616e736665722063616c6c6572206973206e6f74206f60008301527f776e6572206e6f7220617070726f7665640000000000000000000000000000006020830152604082019050919050565b6128cb81612e3f565b82525050565b60006128dd82856121a3565b91506128e982846121a3565b91508190509392505050565b600061290082612842565b9150819050919050565b600060208201905061291f6000830184612113565b92915050565b600060808201905061293a6000830187612113565b6129476020830186612113565b61295460408301856128c2565b81810360608301526129668184612131565b905095945050505050565b60006020820190506129866000830184612122565b92915050565b600060208201905081810360008301526129a6818461216a565b905092915050565b600060208201905081810360008301526129c7816121d4565b9050919050565b600060208201905081810360008301526129e78161223a565b9050919050565b60006020820190508181036000830152612a078161227a565b9050919050565b60006020820190508181036000830152612a27816122ba565b9050919050565b60006020820190508181036000830152612a4781612320565b9050919050565b60006020820190508181036000830152612a6781612360565b9050919050565b60006020820190508181036000830152612a87816123c6565b9050919050565b60006020820190508181036000830152612aa781612406565b9050919050565b60006020820190508181036000830152612ac78161246c565b9050919050565b60006020820190508181036000830152612ae7816124d2565b9050919050565b60006020820190508181036000830152612b0781612538565b9050919050565b60006020820190508181036000830152612b278161259e565b9050919050565b60006020820190508181036000830152612b4781612604565b9050919050565b60006020820190508181036000830152612b6781612644565b9050919050565b60006020820190508181036000830152612b87816126aa565b9050919050565b60006020820190508181036000830152612ba781612710565b9050919050565b60006020820190508181036000830152612bc781612776565b9050919050565b60006020820190508181036000830152612be7816127dc565b9050919050565b60006020820190508181036000830152612c078161285c565b9050919050565b6000602082019050612c2360008301846128c2565b92915050565b6000604051905081810181811067ffffffffffffffff82111715612c5057612c4f612fc4565b5b8060405250919050565b600067ffffffffffffffff821115612c7557612c74612fc4565b5b601f19601f8301169050602081019050919050565b600067ffffffffffffffff821115612ca557612ca4612fc4565b5b601f19601f8301169050602081019050919050565b600081519050919050565b600081519050919050565b600082825260208201905092915050565b600081905092915050565b600082825260208201905092915050565b600081905092915050565b6000612d1382612e3f565b9150612d1e83612e3f565b9250827fffffffffffffffffffffffffffffffffffffffffffffffffffffffffffffffff03821115612d5357612d52612f37565b5b828201905092915050565b6000612d6982612e3f565b9150612d7483612e3f565b925082612d8457612d83612f66565b5b828204905092915050565b6000612d9a82612e3f565b9150612da583612e3f565b925082821015612db857612db7612f37565b5b828203905092915050565b6000612dce82612e1f565b9050919050565b6000612de082612e1f565b9050919050565b60008115159050919050565b60007fffffffff0000000000000000000000000000000000000000000000000000000082169050919050565b600073ffffffffffffffffffffffffffffffffffffffff82169050919050565b6000819050919050565b82818337600083830152505050565b60005b83811015612e76578082015181840152602081019050612e5b565b83811115612e85576000848401525b50505050565b60006002820490506001821680612ea357607f821691505b60208210811415612eb757612eb6612f95565b5b50919050565b6000612ec882612e3f565b91507fffffffffffffffffffffffffffffffffffffffffffffffffffffffffffffffff821415612efb57612efa612f37565b5b600182019050919050565b6000612f1182612e3f565b9150612f1c83612e3f565b925082612f2c57612f2b612f66565b5b828206905092915050565b7f4e487b7100000000000000000000000000000000000000000000000000000000600052601160045260246000fd5b7f4e487b7100000000000000000000000000000000000000000000000000000000600052601260045260246000fd5b7f4e487b7100000000000000000000000000000000000000000000000000000000600052602260045260246000fd5b7f4e487b7100000000000000000000000000000000000000000000000000000000600052604160045260246000fd5b6000601f19601f8301169050919050565b61300d81612dc3565b811461301857600080fd5b50565b61302481612dd5565b811461302f57600080fd5b50565b61303b81612de7565b811461304657600080fd5b50565b61305281612df3565b811461305d57600080fd5b50565b61306981612e3f565b811461307457600080fd5b5056fe68747470733a2f2f676174657761792e70696e6174612e636c6f75642f697066732f516d524c7246356e4d4d73716b70675757536765504b4e56553270695748537a6a4756484273524b393564696f37a264697066735822122051b2484d1c3f5f98b11eac7b43bfa1d6cf57b1098908a97547f4f1f00ce6ac5d64736f6c63430008000033",
  "immutableReferences": {
    "1749": [
      {
        "length": 32,
        "start": 2139
      }
    ]
  },
  "source": "// SPDX-License-Identifier: MIT\npragma solidity ^0.8.0;\n\nimport \"../../node_modules/@openzeppelin/contracts/token/ERC721/ERC721.sol\";\n// import \"../../node_modules/@openzeppelin/contracts/token/ERC721/extensions/ERC721Enumerable.sol\";\nimport \"../../node_modules/@openzeppelin/contracts/token/ERC721/extensions/ERC721URIStorage.sol\";\n// import \"../../node_modules/@openzeppelin/contracts/access/Ownable.sol\";\nimport \"../../node_modules/@openzeppelin/contracts/utils/Counters.sol\";\n\ncontract SlayerBadge is ERC721URIStorage {\n\tusing Counters for Counters.Counter;\n\tuint256 private immutable _cap;\n\n\tCounters.Counter private _tokenIdCounter;\n\n\tconstructor(uint256 cap_) ERC721(\"ROSlayers\", \"ROS\") {\n\t\t\trequire(cap_ > 0, \"ERC721 cap is 0\");\n\t\t\t_cap = cap_;\n\t}\n\t\n\tfunction cap() public view virtual returns (uint256) {\n\t\t\treturn _cap;\n\t}\n\t\n\tfunction contractURI() public pure returns (string memory) {\n\t\t\treturn \"https://gateway.pinata.cloud/ipfs/QmRLrF5nMMsqkpgWWSgePKNVU2piWHSzjGVHBsRK95dio7\";\n\t}\n\n\tfunction mint(address to, string memory tokenURI) public payable {\n\t\trequire(totalSupply() <= cap(), \"ERC721 Cap: cap reached\");\n\t\trequire(msg.value >= 0.005 ether, \"Not enough ETH sent: check price.\");\n\t\t_tokenIdCounter.increment();\n\t\t_safeMint(to, _tokenIdCounter.current());\n\t\t_setTokenURI(_tokenIdCounter.current(), tokenURI);\n\t\t\t\n\t}\n\n\t// error InsufficientBalance(uint requested, uint available);\n\n\t// function send(address receiver, uint amount) public payable {\n\t// \tif (amount > balances[msg.sender])\n\t// \tbalanceOf(msg.sender); // += msg.value;\n\t// }\n\t\n\t//get the current supply of tokens\n\tfunction totalSupply() public view returns (uint256) {\n\t\treturn _tokenIdCounter.current();\n\t}\n\n\t// Transfer funds\n\tfunction transferFunds(address payable to ) public payable {\n\t\t// payable(to).transfer(msg.value);\n\t\t(bool sent, bytes memory data) = to.call{value: msg.value}(\"\");\n\t\trequire(sent, \"Falied to send!\");\t\t\n\t}\n\n\treceive() external payable {}\n\n\t// fallback() external payable {}\n\n\tfunction getBalance() public view returns (uint) {\n\t\treturn address(this).balance;\n\t}\n    \n}",
  "sourcePath": "/home/drex/Projects/internship/nft/nft/src/contracts/SlayerBadge.sol",
  "compiler": {
    "name": "solc",
    "version": "0.8.0+commit.c7dfd78e.Emscripten.clang"
  },
  "schemaVersion": "3.4.3",
  "updatedAt": "2021-10-22T14:33:46.788Z",
  "networkType": "ethereum",
  "devdoc": {
    "kind": "dev",
    "methods": {
      "approve(address,uint256)": {
        "details": "See {IERC721-approve}."
      },
      "balanceOf(address)": {
        "details": "See {IERC721-balanceOf}."
      },
      "getApproved(uint256)": {
        "details": "See {IERC721-getApproved}."
      },
      "isApprovedForAll(address,address)": {
        "details": "See {IERC721-isApprovedForAll}."
      },
      "name()": {
        "details": "See {IERC721Metadata-name}."
      },
      "ownerOf(uint256)": {
        "details": "See {IERC721-ownerOf}."
      },
      "safeTransferFrom(address,address,uint256)": {
        "details": "See {IERC721-safeTransferFrom}."
      },
      "safeTransferFrom(address,address,uint256,bytes)": {
        "details": "See {IERC721-safeTransferFrom}."
      },
      "setApprovalForAll(address,bool)": {
        "details": "See {IERC721-setApprovalForAll}."
      },
      "supportsInterface(bytes4)": {
        "details": "See {IERC165-supportsInterface}."
      },
      "symbol()": {
        "details": "See {IERC721Metadata-symbol}."
      },
      "tokenURI(uint256)": {
        "details": "See {IERC721Metadata-tokenURI}."
      },
      "transferFrom(address,address,uint256)": {
        "details": "See {IERC721-transferFrom}."
      }
    },
    "version": 1
  },
  "userdoc": {
    "kind": "user",
    "methods": {},
    "version": 1
  }
}