{
  "contractName": "SlayerBadge",
  "abi": [
    {
      "inputs": [],
      "stateMutability": "nonpayable",
      "type": "constructor"
    },
    {
      "anonymous": false,
      "inputs": [
        {
          "indexed": true,
          "internalType": "address",
          "name": "owner",
          "type": "address"
        },
        {
          "indexed": true,
          "internalType": "address",
          "name": "approved",
          "type": "address"
        },
        {
          "indexed": true,
          "internalType": "uint256",
          "name": "tokenId",
          "type": "uint256"
        }
      ],
      "name": "Approval",
      "type": "event"
    },
    {
      "anonymous": false,
      "inputs": [
        {
          "indexed": true,
          "internalType": "address",
          "name": "owner",
          "type": "address"
        },
        {
          "indexed": true,
          "internalType": "address",
          "name": "operator",
          "type": "address"
        },
        {
          "indexed": false,
          "internalType": "bool",
          "name": "approved",
          "type": "bool"
        }
      ],
      "name": "ApprovalForAll",
      "type": "event"
    },
    {
      "anonymous": false,
      "inputs": [
        {
          "indexed": false,
          "internalType": "address",
          "name": "account",
          "type": "address"
        }
      ],
      "name": "Paused",
      "type": "event"
    },
    {
      "anonymous": false,
      "inputs": [
        {
          "indexed": true,
          "internalType": "bytes32",
          "name": "role",
          "type": "bytes32"
        },
        {
          "indexed": true,
          "internalType": "bytes32",
          "name": "previousAdminRole",
          "type": "bytes32"
        },
        {
          "indexed": true,
          "internalType": "bytes32",
          "name": "newAdminRole",
          "type": "bytes32"
        }
      ],
      "name": "RoleAdminChanged",
      "type": "event"
    },
    {
      "anonymous": false,
      "inputs": [
        {
          "indexed": true,
          "internalType": "bytes32",
          "name": "role",
          "type": "bytes32"
        },
        {
          "indexed": true,
          "internalType": "address",
          "name": "account",
          "type": "address"
        },
        {
          "indexed": true,
          "internalType": "address",
          "name": "sender",
          "type": "address"
        }
      ],
      "name": "RoleGranted",
      "type": "event"
    },
    {
      "anonymous": false,
      "inputs": [
        {
          "indexed": true,
          "internalType": "bytes32",
          "name": "role",
          "type": "bytes32"
        },
        {
          "indexed": true,
          "internalType": "address",
          "name": "account",
          "type": "address"
        },
        {
          "indexed": true,
          "internalType": "address",
          "name": "sender",
          "type": "address"
        }
      ],
      "name": "RoleRevoked",
      "type": "event"
    },
    {
      "anonymous": false,
      "inputs": [
        {
          "indexed": true,
          "internalType": "address",
          "name": "from",
          "type": "address"
        },
        {
          "indexed": true,
          "internalType": "address",
          "name": "to",
          "type": "address"
        },
        {
          "indexed": true,
          "internalType": "uint256",
          "name": "tokenId",
          "type": "uint256"
        }
      ],
      "name": "Transfer",
      "type": "event"
    },
    {
      "anonymous": false,
      "inputs": [
        {
          "indexed": false,
          "internalType": "address",
          "name": "account",
          "type": "address"
        }
      ],
      "name": "Unpaused",
      "type": "event"
    },
    {
      "anonymous": false,
      "inputs": [
        {
          "indexed": false,
          "internalType": "uint256",
          "name": "fee",
          "type": "uint256"
        }
      ],
      "name": "mintFeeChanged",
      "type": "event"
    },
    {
      "stateMutability": "payable",
      "type": "fallback"
    },
    {
      "inputs": [],
      "name": "DEFAULT_ADMIN_ROLE",
      "outputs": [
        {
          "internalType": "bytes32",
          "name": "",
          "type": "bytes32"
        }
      ],
      "stateMutability": "view",
      "type": "function"
    },
    {
      "inputs": [],
      "name": "MINTER_ROLE",
      "outputs": [
        {
          "internalType": "bytes32",
          "name": "",
          "type": "bytes32"
        }
      ],
      "stateMutability": "view",
      "type": "function"
    },
    {
      "inputs": [],
      "name": "PAUSER_ROLE",
      "outputs": [
        {
          "internalType": "bytes32",
          "name": "",
          "type": "bytes32"
        }
      ],
      "stateMutability": "view",
      "type": "function"
    },
    {
      "inputs": [
        {
          "internalType": "address",
          "name": "to",
          "type": "address"
        },
        {
          "internalType": "uint256",
          "name": "tokenId",
          "type": "uint256"
        }
      ],
      "name": "approve",
      "outputs": [],
      "stateMutability": "nonpayable",
      "type": "function"
    },
    {
      "inputs": [
        {
          "internalType": "address",
          "name": "owner",
          "type": "address"
        }
      ],
      "name": "balanceOf",
      "outputs": [
        {
          "internalType": "uint256",
          "name": "",
          "type": "uint256"
        }
      ],
      "stateMutability": "view",
      "type": "function"
    },
    {
      "inputs": [
        {
          "internalType": "uint256",
          "name": "tokenId",
          "type": "uint256"
        }
      ],
      "name": "burn",
      "outputs": [],
      "stateMutability": "nonpayable",
      "type": "function"
    },
    {
      "inputs": [],
      "name": "contractOwner",
      "outputs": [
        {
          "internalType": "address",
          "name": "",
          "type": "address"
        }
      ],
      "stateMutability": "view",
      "type": "function"
    },
    {
      "inputs": [
        {
          "internalType": "uint256",
          "name": "tokenId",
          "type": "uint256"
        }
      ],
      "name": "getApproved",
      "outputs": [
        {
          "internalType": "address",
          "name": "",
          "type": "address"
        }
      ],
      "stateMutability": "view",
      "type": "function"
    },
    {
      "inputs": [
        {
          "internalType": "bytes32",
          "name": "role",
          "type": "bytes32"
        }
      ],
      "name": "getRoleAdmin",
      "outputs": [
        {
          "internalType": "bytes32",
          "name": "",
          "type": "bytes32"
        }
      ],
      "stateMutability": "view",
      "type": "function"
    },
    {
      "inputs": [
        {
          "internalType": "bytes32",
          "name": "role",
          "type": "bytes32"
        },
        {
          "internalType": "address",
          "name": "account",
          "type": "address"
        }
      ],
      "name": "grantRole",
      "outputs": [],
      "stateMutability": "nonpayable",
      "type": "function"
    },
    {
      "inputs": [
        {
          "internalType": "bytes32",
          "name": "role",
          "type": "bytes32"
        },
        {
          "internalType": "address",
          "name": "account",
          "type": "address"
        }
      ],
      "name": "hasRole",
      "outputs": [
        {
          "internalType": "bool",
          "name": "",
          "type": "bool"
        }
      ],
      "stateMutability": "view",
      "type": "function"
    },
    {
      "inputs": [
        {
          "internalType": "address",
          "name": "owner",
          "type": "address"
        },
        {
          "internalType": "address",
          "name": "operator",
          "type": "address"
        }
      ],
      "name": "isApprovedForAll",
      "outputs": [
        {
          "internalType": "bool",
          "name": "",
          "type": "bool"
        }
      ],
      "stateMutability": "view",
      "type": "function"
    },
    {
      "inputs": [],
      "name": "name",
      "outputs": [
        {
          "internalType": "string",
          "name": "",
          "type": "string"
        }
      ],
      "stateMutability": "view",
      "type": "function"
    },
    {
      "inputs": [
        {
          "internalType": "uint256",
          "name": "tokenId",
          "type": "uint256"
        }
      ],
      "name": "ownerOf",
      "outputs": [
        {
          "internalType": "address",
          "name": "",
          "type": "address"
        }
      ],
      "stateMutability": "view",
      "type": "function"
    },
    {
      "inputs": [],
      "name": "paused",
      "outputs": [
        {
          "internalType": "bool",
          "name": "",
          "type": "bool"
        }
      ],
      "stateMutability": "view",
      "type": "function"
    },
    {
      "inputs": [
        {
          "internalType": "bytes32",
          "name": "role",
          "type": "bytes32"
        },
        {
          "internalType": "address",
          "name": "account",
          "type": "address"
        }
      ],
      "name": "renounceRole",
      "outputs": [],
      "stateMutability": "nonpayable",
      "type": "function"
    },
    {
      "inputs": [
        {
          "internalType": "bytes32",
          "name": "role",
          "type": "bytes32"
        },
        {
          "internalType": "address",
          "name": "account",
          "type": "address"
        }
      ],
      "name": "revokeRole",
      "outputs": [],
      "stateMutability": "nonpayable",
      "type": "function"
    },
    {
      "inputs": [
        {
          "internalType": "address",
          "name": "from",
          "type": "address"
        },
        {
          "internalType": "address",
          "name": "to",
          "type": "address"
        },
        {
          "internalType": "uint256",
          "name": "tokenId",
          "type": "uint256"
        }
      ],
      "name": "safeTransferFrom",
      "outputs": [],
      "stateMutability": "nonpayable",
      "type": "function"
    },
    {
      "inputs": [
        {
          "internalType": "address",
          "name": "from",
          "type": "address"
        },
        {
          "internalType": "address",
          "name": "to",
          "type": "address"
        },
        {
          "internalType": "uint256",
          "name": "tokenId",
          "type": "uint256"
        },
        {
          "internalType": "bytes",
          "name": "_data",
          "type": "bytes"
        }
      ],
      "name": "safeTransferFrom",
      "outputs": [],
      "stateMutability": "nonpayable",
      "type": "function"
    },
    {
      "inputs": [
        {
          "internalType": "address",
          "name": "operator",
          "type": "address"
        },
        {
          "internalType": "bool",
          "name": "approved",
          "type": "bool"
        }
      ],
      "name": "setApprovalForAll",
      "outputs": [],
      "stateMutability": "nonpayable",
      "type": "function"
    },
    {
      "inputs": [],
      "name": "symbol",
      "outputs": [
        {
          "internalType": "string",
          "name": "",
          "type": "string"
        }
      ],
      "stateMutability": "view",
      "type": "function"
    },
    {
      "inputs": [
        {
          "internalType": "uint256",
          "name": "index",
          "type": "uint256"
        }
      ],
      "name": "tokenByIndex",
      "outputs": [
        {
          "internalType": "uint256",
          "name": "",
          "type": "uint256"
        }
      ],
      "stateMutability": "view",
      "type": "function"
    },
    {
      "inputs": [
        {
          "internalType": "address",
          "name": "owner",
          "type": "address"
        },
        {
          "internalType": "uint256",
          "name": "index",
          "type": "uint256"
        }
      ],
      "name": "tokenOfOwnerByIndex",
      "outputs": [
        {
          "internalType": "uint256",
          "name": "",
          "type": "uint256"
        }
      ],
      "stateMutability": "view",
      "type": "function"
    },
    {
      "inputs": [],
      "name": "totalSupply",
      "outputs": [
        {
          "internalType": "uint256",
          "name": "",
          "type": "uint256"
        }
      ],
      "stateMutability": "view",
      "type": "function"
    },
    {
      "inputs": [
        {
          "internalType": "address",
          "name": "from",
          "type": "address"
        },
        {
          "internalType": "address",
          "name": "to",
          "type": "address"
        },
        {
          "internalType": "uint256",
          "name": "tokenId",
          "type": "uint256"
        }
      ],
      "name": "transferFrom",
      "outputs": [],
      "stateMutability": "nonpayable",
      "type": "function"
    },
    {
      "stateMutability": "payable",
      "type": "receive"
    },
    {
      "inputs": [],
      "name": "pause",
      "outputs": [],
      "stateMutability": "nonpayable",
      "type": "function"
    },
    {
      "inputs": [],
      "name": "unpause",
      "outputs": [],
      "stateMutability": "nonpayable",
      "type": "function"
    },
    {
      "inputs": [],
      "name": "cap",
      "outputs": [
        {
          "internalType": "uint256",
          "name": "",
          "type": "uint256"
        }
      ],
      "stateMutability": "view",
      "type": "function"
    },
    {
      "inputs": [
        {
          "internalType": "uint256",
          "name": "fee",
          "type": "uint256"
        }
      ],
      "name": "setMintFee",
      "outputs": [],
      "stateMutability": "nonpayable",
      "type": "function"
    },
    {
      "inputs": [],
      "name": "getMintFee",
      "outputs": [
        {
          "internalType": "uint256",
          "name": "",
          "type": "uint256"
        }
      ],
      "stateMutability": "view",
      "type": "function"
    },
    {
      "inputs": [],
      "name": "contractURI",
      "outputs": [
        {
          "internalType": "string",
          "name": "",
          "type": "string"
        }
      ],
      "stateMutability": "pure",
      "type": "function"
    },
    {
      "inputs": [
        {
          "internalType": "string",
          "name": "tokenURI",
          "type": "string"
        }
      ],
      "name": "mint",
      "outputs": [],
      "stateMutability": "payable",
      "type": "function"
    },
    {
      "inputs": [
        {
          "internalType": "address payable",
          "name": "to",
          "type": "address"
        }
      ],
      "name": "transferFunds",
      "outputs": [],
      "stateMutability": "payable",
      "type": "function"
    },
    {
      "inputs": [],
      "name": "getBalance",
      "outputs": [
        {
          "internalType": "uint256",
          "name": "",
          "type": "uint256"
        }
      ],
      "stateMutability": "view",
      "type": "function"
    },
    {
      "inputs": [
        {
          "internalType": "uint256",
          "name": "tokenId",
          "type": "uint256"
        }
      ],
      "name": "tokenURI",
      "outputs": [
        {
          "internalType": "string",
          "name": "",
          "type": "string"
        }
      ],
      "stateMutability": "view",
      "type": "function"
    },
    {
      "inputs": [
        {
          "internalType": "bytes4",
          "name": "interfaceId",
          "type": "bytes4"
        }
      ],
      "name": "supportsInterface",
      "outputs": [
        {
          "internalType": "bool",
          "name": "",
          "type": "bool"
        }
      ],
      "stateMutability": "view",
      "type": "function"
    }
  ],
  "bytecode": "0x60a06040523480156200001157600080fd5b506040518060400160405280600981526020017f524f536c617965727300000000000000000000000000000000000000000000008152506040518060400160405280600381526020017f524f53000000000000000000000000000000000000000000000000000000000081525081600090805190602001906200009692919062000356565b508060019080519060200190620000af92919062000356565b5050506000600b60006101000a81548160ff021916908315150217905550620000ec600060010233620001c0640100000000026401000000009004565b620001277f65d7a28e3265b37a6474929f336521b332c1681b933f6cb9f3376673440d862a33620001c0640100000000026401000000009004565b620001627f9f2df0fed2c77648de5860a4cc508cd0818c85b8b8a1ab4ceeef8d981c8956a633620001c0640100000000026401000000009004565b600a6080818152505033600e60006101000a81548173ffffffffffffffffffffffffffffffffffffffff021916908373ffffffffffffffffffffffffffffffffffffffff160217905550662386f26fc10000600f819055506200046b565b620001db8282620001df640100000000026401000000009004565b5050565b620001fa8282620002e3640100000000026401000000009004565b620002df576001600c600084815260200190815260200160002060000160008373ffffffffffffffffffffffffffffffffffffffff1673ffffffffffffffffffffffffffffffffffffffff16815260200190815260200160002060006101000a81548160ff021916908315150217905550620002846200034e640100000000026401000000009004565b73ffffffffffffffffffffffffffffffffffffffff168173ffffffffffffffffffffffffffffffffffffffff16837f2f8788117e7eff1d82e926ec794901d17c78024a50270940304540a733656f0d60405160405180910390a45b5050565b6000600c600084815260200190815260200160002060000160008373ffffffffffffffffffffffffffffffffffffffff1673ffffffffffffffffffffffffffffffffffffffff16815260200190815260200160002060009054906101000a900460ff16905092915050565b600033905090565b828054620003649062000406565b90600052602060002090601f016020900481019282620003885760008555620003d4565b82601f10620003a357805160ff1916838001178555620003d4565b82800160010185558215620003d4579182015b82811115620003d3578251825591602001919060010190620003b6565b5b509050620003e39190620003e7565b5090565b5b8082111562000402576000816000905550600101620003e8565b5090565b600060028204905060018216806200041f57607f821691505b602082108114156200043657620004356200043c565b5b50919050565b7f4e487b7100000000000000000000000000000000000000000000000000000000600052602260045260246000fd5b608051614f0d620004876000396000610c5e0152614f0d6000f3fe608060405260043610610230576000357c01000000000000000000000000000000000000000000000000000000009004806370a0823111610135578063ce606ee0116100bd578063e39ff19f1161008c578063e39ff19f146107c7578063e63ab1e9146107e3578063e8a3d4851461080e578063e985e9c514610839578063eddd0d9c1461087657610237565b8063ce606ee01461072c578063d539139314610757578063d547741f14610782578063d85d3d27146107ab57610237565b806395d89b411161010457806395d89b4114610647578063a217fddf14610672578063a22cb4651461069d578063b88d4fde146106c6578063c87b56dd146106ef57610237565b806370a082311461058b5780637a5caab3146105c85780638456cb59146105f357806391d148541461060a57610237565b80632f745c59116101b857806342842e0e1161018757806342842e0e1461049457806342966c68146104bd5780634f6ccce7146104e65780635c975abb146105235780636352211e1461054e57610237565b80632f745c59146103ec578063355274ea1461042957806336568abe146104545780633f4ba83a1461047d57610237565b806312065fe0116101ff57806312065fe01461030757806318160ddd1461033257806323b872dd1461035d578063248a9ca3146103865780632f2ff15d146103c357610237565b806301ffc9a71461023957806306fdde0314610276578063081812fc146102a1578063095ea7b3146102de57610237565b3661023757005b005b34801561024557600080fd5b50610260600480360381019061025b91906138c0565b61089f565b60405161026d91906145a1565b60405180910390f35b34801561028257600080fd5b5061028b6108b1565b60405161029891906145d7565b60405180910390f35b3480156102ad57600080fd5b506102c860048036038101906102c39190613953565b610943565b6040516102d5919061453a565b60405180910390f35b3480156102ea57600080fd5b506103056004803603810190610300919061381f565b6109c8565b005b34801561031357600080fd5b5061031c610ae0565b6040516103299190614979565b60405180910390f35b34801561033e57600080fd5b50610347610aff565b6040516103549190614979565b60405180910390f35b34801561036957600080fd5b50610384600480360381019061037f9190613719565b610b0c565b005b34801561039257600080fd5b506103ad60048036038101906103a8919061385b565b610b6c565b6040516103ba91906145bc565b60405180910390f35b3480156103cf57600080fd5b506103ea60048036038101906103e59190613884565b610b8c565b005b3480156103f857600080fd5b50610413600480360381019061040e919061381f565b610bb5565b6040516104209190614979565b60405180910390f35b34801561043557600080fd5b5061043e610c5a565b60405161044b9190614979565b60405180910390f35b34801561046057600080fd5b5061047b60048036038101906104769190613884565b610c82565b005b34801561048957600080fd5b50610492610d05565b005b3480156104a057600080fd5b506104bb60048036038101906104b69190613719565b610d42565b005b3480156104c957600080fd5b506104e460048036038101906104df9190613953565b610d62565b005b3480156104f257600080fd5b5061050d60048036038101906105089190613953565b610dbe565b60405161051a9190614979565b60405180910390f35b34801561052f57600080fd5b50610538610e55565b60405161054591906145a1565b60405180910390f35b34801561055a57600080fd5b5061057560048036038101906105709190613953565b610e6c565b604051610582919061453a565b60405180910390f35b34801561059757600080fd5b506105b260048036038101906105ad919061368b565b610f1e565b6040516105bf9190614979565b60405180910390f35b3480156105d457600080fd5b506105dd610fd6565b6040516105ea9190614979565b60405180910390f35b3480156105ff57600080fd5b50610608610fe0565b005b34801561061657600080fd5b50610631600480360381019061062c9190613884565b61101d565b60405161063e91906145a1565b60405180910390f35b34801561065357600080fd5b5061065c611088565b60405161066991906145d7565b60405180910390f35b34801561067e57600080fd5b5061068761111a565b60405161069491906145bc565b60405180910390f35b3480156106a957600080fd5b506106c460048036038101906106bf91906137e3565b611122565b005b3480156106d257600080fd5b506106ed60048036038101906106e89190613768565b6112a3565b005b3480156106fb57600080fd5b5061071660048036038101906107119190613953565b611305565b60405161072391906145d7565b60405180910390f35b34801561073857600080fd5b50610741611317565b60405161074e919061453a565b60405180910390f35b34801561076357600080fd5b5061076c61133d565b60405161077991906145bc565b60405180910390f35b34801561078e57600080fd5b506107a960048036038101906107a49190613884565b611361565b005b6107c560048036038101906107c09190613912565b61138a565b005b6107e160048036038101906107dc91906136b4565b611555565b005b3480156107ef57600080fd5b506107f8611608565b60405161080591906145bc565b60405180910390f35b34801561081a57600080fd5b5061082361162c565b60405161083091906145d7565b60405180910390f35b34801561084557600080fd5b50610860600480360381019061085b91906136dd565b61164c565b60405161086d91906145a1565b60405180910390f35b34801561088257600080fd5b5061089d60048036038101906108989190613953565b6116e0565b005b60006108aa82611785565b9050919050565b6060600080546108c090614c84565b80601f01602080910402602001604051908101604052809291908181526020018280546108ec90614c84565b80156109395780601f1061090e57610100808354040283529160200191610939565b820191906000526020600020905b81548152906001019060200180831161091c57829003601f168201915b5050505050905090565b600061094e826117ff565b61098d576040517f08c379a000000000000000000000000000000000000000000000000000000000815260040161098490614859565b60405180910390fd5b6004600083815260200190815260200160002060009054906101000a900473ffffffffffffffffffffffffffffffffffffffff169050919050565b60006109d382610e6c565b90508073ffffffffffffffffffffffffffffffffffffffff168373ffffffffffffffffffffffffffffffffffffffff161415610a44576040517f08c379a0000000000000000000000000000000000000000000000000000000008152600401610a3b906148b9565b60405180910390fd5b8073ffffffffffffffffffffffffffffffffffffffff16610a6361186b565b73ffffffffffffffffffffffffffffffffffffffff161480610a925750610a9181610a8c61186b565b61164c565b5b610ad1576040517f08c379a0000000000000000000000000000000000000000000000000000000008152600401610ac890614779565b60405180910390fd5b610adb8383611873565b505050565b60003073ffffffffffffffffffffffffffffffffffffffff1631905090565b6000600880549050905090565b610b1d610b1761186b565b8261192c565b610b5c576040517f08c379a0000000000000000000000000000000000000000000000000000000008152600401610b53906148d9565b60405180910390fd5b610b67838383611a0a565b505050565b6000600c6000838152602001908152602001600020600101549050919050565b610b9582610b6c565b610ba681610ba161186b565b611c66565b610bb08383611d04565b505050565b6000610bc083610f1e565b8210610c01576040517f08c379a0000000000000000000000000000000000000000000000000000000008152600401610bf890614639565b60405180910390fd5b600660008473ffffffffffffffffffffffffffffffffffffffff1673ffffffffffffffffffffffffffffffffffffffff168152602001908152602001600020600083815260200190815260200160002054905092915050565b60007f0000000000000000000000000000000000000000000000000000000000000000905090565b610c8a61186b565b73ffffffffffffffffffffffffffffffffffffffff168173ffffffffffffffffffffffffffffffffffffffff1614610cf7576040517f08c379a0000000000000000000000000000000000000000000000000000000008152600401610cee90614959565b60405180910390fd5b610d018282611de5565b5050565b7f65d7a28e3265b37a6474929f336521b332c1681b933f6cb9f3376673440d862a610d3781610d3261186b565b611c66565b610d3f611ec7565b50565b610d5d838383604051806020016040528060008152506112a3565b505050565b610d73610d6d61186b565b8261192c565b610db2576040517f08c379a0000000000000000000000000000000000000000000000000000000008152600401610da990614939565b60405180910390fd5b610dbb81611f69565b50565b6000610dc8610aff565b8210610e09576040517f08c379a0000000000000000000000000000000000000000000000000000000008152600401610e0090614919565b60405180910390fd5b60088281548110610e43577f4e487b7100000000000000000000000000000000000000000000000000000000600052603260045260246000fd5b90600052602060002001549050919050565b6000600b60009054906101000a900460ff16905090565b6000806002600084815260200190815260200160002060009054906101000a900473ffffffffffffffffffffffffffffffffffffffff169050600073ffffffffffffffffffffffffffffffffffffffff168173ffffffffffffffffffffffffffffffffffffffff161415610f15576040517f08c379a0000000000000000000000000000000000000000000000000000000008152600401610f0c906147b9565b60405180910390fd5b80915050919050565b60008073ffffffffffffffffffffffffffffffffffffffff168273ffffffffffffffffffffffffffffffffffffffff161415610f8f576040517f08c379a0000000000000000000000000000000000000000000000000000000008152600401610f8690614799565b60405180910390fd5b600360008373ffffffffffffffffffffffffffffffffffffffff1673ffffffffffffffffffffffffffffffffffffffff168152602001908152602001600020549050919050565b6000600f54905090565b7f65d7a28e3265b37a6474929f336521b332c1681b933f6cb9f3376673440d862a6110128161100d61186b565b611c66565b61101a611f75565b50565b6000600c600084815260200190815260200160002060000160008373ffffffffffffffffffffffffffffffffffffffff1673ffffffffffffffffffffffffffffffffffffffff16815260200190815260200160002060009054906101000a900460ff16905092915050565b60606001805461109790614c84565b80601f01602080910402602001604051908101604052809291908181526020018280546110c390614c84565b80156111105780601f106110e557610100808354040283529160200191611110565b820191906000526020600020905b8154815290600101906020018083116110f357829003601f168201915b5050505050905090565b600060010281565b61112a61186b565b73ffffffffffffffffffffffffffffffffffffffff168273ffffffffffffffffffffffffffffffffffffffff161415611198576040517f08c379a000000000000000000000000000000000000000000000000000000000815260040161118f906146d9565b60405180910390fd5b80600560006111a561186b565b73ffffffffffffffffffffffffffffffffffffffff1673ffffffffffffffffffffffffffffffffffffffff16815260200190815260200160002060008473ffffffffffffffffffffffffffffffffffffffff1673ffffffffffffffffffffffffffffffffffffffff16815260200190815260200160002060006101000a81548160ff0219169083151502179055508173ffffffffffffffffffffffffffffffffffffffff1661125261186b565b73ffffffffffffffffffffffffffffffffffffffff167f17307eab39ab6107e8899845ad3d59bd9653f200f220920489ca2b5937696c318360405161129791906145a1565b60405180910390a35050565b6112b46112ae61186b565b8361192c565b6112f3576040517f08c379a00000000000000000000000000000000000000000000000000000000081526004016112ea906148d9565b60405180910390fd5b6112ff84848484612018565b50505050565b606061131082612074565b9050919050565b600e60009054906101000a900473ffffffffffffffffffffffffffffffffffffffff1681565b7f9f2df0fed2c77648de5860a4cc508cd0818c85b8b8a1ab4ceeef8d981c8956a681565b61136a82610b6c565b61137b8161137661186b565b611c66565b6113858383611de5565b505050565b7f9f2df0fed2c77648de5860a4cc508cd0818c85b8b8a1ab4ceeef8d981c8956a66113bc816113b761186b565b611c66565b6113c4610c5a565b6113cc610aff565b111561140d576040517f08c379a000000000000000000000000000000000000000000000000000000000815260040161140490614719565b60405180910390fd5b600f54341015611452576040517f08c379a000000000000000000000000000000000000000000000000000000000815260040161144990614759565b60405180910390fd5b6000600e60009054906101000a900473ffffffffffffffffffffffffffffffffffffffff1673ffffffffffffffffffffffffffffffffffffffff163460405161149a906144eb565b60006040518083038185875af1925050503d80600081146114d7576040519150601f19603f3d011682016040523d82523d6000602084013e6114dc565b606091505b5050905080611520576040517f08c379a0000000000000000000000000000000000000000000000000000000008152600401611517906148f9565b60405180910390fd5b61152a600d6121c6565b61153d33611538600d6121dc565b6121ea565b61155061154a600d6121dc565b84612208565b505050565b6000808273ffffffffffffffffffffffffffffffffffffffff163460405161157c906144eb565b60006040518083038185875af1925050503d80600081146115b9576040519150601f19603f3d011682016040523d82523d6000602084013e6115be565b606091505b509150915081611603576040517f08c379a00000000000000000000000000000000000000000000000000000000081526004016115fa90614679565b60405180910390fd5b505050565b7f65d7a28e3265b37a6474929f336521b332c1681b933f6cb9f3376673440d862a81565b6060604051806080016040528060508152602001614e8860509139905090565b6000600560008473ffffffffffffffffffffffffffffffffffffffff1673ffffffffffffffffffffffffffffffffffffffff16815260200190815260200160002060008373ffffffffffffffffffffffffffffffffffffffff1673ffffffffffffffffffffffffffffffffffffffff16815260200190815260200160002060009054906101000a900460ff16905092915050565b60006001026116f6816116f161186b565b611c66565b61170460006001023361101d565b611743576040517f08c379a000000000000000000000000000000000000000000000000000000000815260040161173a906147f9565b60405180910390fd5b81600f819055507f7b7f9c0a5d008930272b5f3d461abc63bd19e74a0b0a0caa3f9b8136c2ce228c826040516117799190614979565b60405180910390a15050565b60007f7965db0b000000000000000000000000000000000000000000000000000000007bffffffffffffffffffffffffffffffffffffffffffffffffffffffff1916827bffffffffffffffffffffffffffffffffffffffffffffffffffffffff191614806117f857506117f78261227c565b5b9050919050565b60008073ffffffffffffffffffffffffffffffffffffffff166002600084815260200190815260200160002060009054906101000a900473ffffffffffffffffffffffffffffffffffffffff1673ffffffffffffffffffffffffffffffffffffffff1614159050919050565b600033905090565b816004600083815260200190815260200160002060006101000a81548173ffffffffffffffffffffffffffffffffffffffff021916908373ffffffffffffffffffffffffffffffffffffffff160217905550808273ffffffffffffffffffffffffffffffffffffffff166118e683610e6c565b73ffffffffffffffffffffffffffffffffffffffff167f8c5be1e5ebec7d5bd14f71427d1e84f3dd0314c0f7b2291e5b200ac8c7c3b92560405160405180910390a45050565b6000611937826117ff565b611976576040517f08c379a000000000000000000000000000000000000000000000000000000000815260040161196d906146f9565b60405180910390fd5b600061198183610e6c565b90508073ffffffffffffffffffffffffffffffffffffffff168473ffffffffffffffffffffffffffffffffffffffff1614806119f057508373ffffffffffffffffffffffffffffffffffffffff166119d884610943565b73ffffffffffffffffffffffffffffffffffffffff16145b80611a015750611a00818561164c565b5b91505092915050565b8273ffffffffffffffffffffffffffffffffffffffff16611a2a82610e6c565b73ffffffffffffffffffffffffffffffffffffffff1614611a80576040517f08c379a0000000000000000000000000000000000000000000000000000000008152600401611a7790614879565b60405180910390fd5b600073ffffffffffffffffffffffffffffffffffffffff168273ffffffffffffffffffffffffffffffffffffffff161415611af0576040517f08c379a0000000000000000000000000000000000000000000000000000000008152600401611ae7906146b9565b60405180910390fd5b611afb8383836122f6565b611b06600082611873565b6001600360008573ffffffffffffffffffffffffffffffffffffffff1673ffffffffffffffffffffffffffffffffffffffff1681526020019081526020016000206000828254611b569190614b54565b925050819055506001600360008473ffffffffffffffffffffffffffffffffffffffff1673ffffffffffffffffffffffffffffffffffffffff1681526020019081526020016000206000828254611bad9190614a73565b92505081905550816002600083815260200190815260200160002060006101000a81548173ffffffffffffffffffffffffffffffffffffffff021916908373ffffffffffffffffffffffffffffffffffffffff160217905550808273ffffffffffffffffffffffffffffffffffffffff168473ffffffffffffffffffffffffffffffffffffffff167fddf252ad1be2c89b69c2b068fc378daa952ba7f163c4a11628f55a4df523b3ef60405160405180910390a4505050565b611c70828261101d565b611d0057611c958173ffffffffffffffffffffffffffffffffffffffff16601461234e565b611ca48360019004602061234e565b604051602001611cb5929190614500565b6040516020818303038152906040526040517f08c379a0000000000000000000000000000000000000000000000000000000008152600401611cf791906145d7565b60405180910390fd5b5050565b611d0e828261101d565b611de1576001600c600084815260200190815260200160002060000160008373ffffffffffffffffffffffffffffffffffffffff1673ffffffffffffffffffffffffffffffffffffffff16815260200190815260200160002060006101000a81548160ff021916908315150217905550611d8661186b565b73ffffffffffffffffffffffffffffffffffffffff168173ffffffffffffffffffffffffffffffffffffffff16837f2f8788117e7eff1d82e926ec794901d17c78024a50270940304540a733656f0d60405160405180910390a45b5050565b611def828261101d565b15611ec3576000600c600084815260200190815260200160002060000160008373ffffffffffffffffffffffffffffffffffffffff1673ffffffffffffffffffffffffffffffffffffffff16815260200190815260200160002060006101000a81548160ff021916908315150217905550611e6861186b565b73ffffffffffffffffffffffffffffffffffffffff168173ffffffffffffffffffffffffffffffffffffffff16837ff6391f5c32d9c69d2a47ea670b442974b53935d1edc7fd64eb21e047a839171b60405160405180910390a45b5050565b611ecf610e55565b611f0e576040517f08c379a0000000000000000000000000000000000000000000000000000000008152600401611f0590614619565b60405180910390fd5b6000600b60006101000a81548160ff0219169083151502179055507f5db9ee0a495bf2e6ff9c91a7834c1ba4fdd244a5e8aa4e537bd38aeae4b073aa611f5261186b565b604051611f5f919061453a565b60405180910390a1565b611f728161266f565b50565b611f7d610e55565b15611fbd576040517f08c379a0000000000000000000000000000000000000000000000000000000008152600401611fb490614739565b60405180910390fd5b6001600b60006101000a81548160ff0219169083151502179055507f62e78cea01bee320cd4e420270b5ea74000d11b0c9f74754ebdbfc544b05a25861200161186b565b60405161200e919061453a565b60405180910390a1565b612023848484611a0a565b61202f848484846126c2565b61206e576040517f08c379a000000000000000000000000000000000000000000000000000000000815260040161206590614659565b60405180910390fd5b50505050565b606061207f826117ff565b6120be576040517f08c379a00000000000000000000000000000000000000000000000000000000081526004016120b590614839565b60405180910390fd5b6000600a600084815260200190815260200160002080546120de90614c84565b80601f016020809104026020016040519081016040528092919081815260200182805461210a90614c84565b80156121575780601f1061212c57610100808354040283529160200191612157565b820191906000526020600020905b81548152906001019060200180831161213a57829003601f168201915b505050505090506000612168612891565b905060008151141561217e5781925050506121c1565b6000825111156121b357808260405160200161219b9291906144c7565b604051602081830303815290604052925050506121c1565b6121bc846128a8565b925050505b919050565b6001816000016000828254019250508190555050565b600081600001549050919050565b61220482826040518060200160405280600081525061294f565b5050565b612211826117ff565b612250576040517f08c379a0000000000000000000000000000000000000000000000000000000008152600401612247906147d9565b60405180910390fd5b80600a60008481526020019081526020016000209080519060200190612277929190613445565b505050565b60007f780e9d63000000000000000000000000000000000000000000000000000000007bffffffffffffffffffffffffffffffffffffffffffffffffffffffff1916827bffffffffffffffffffffffffffffffffffffffffffffffffffffffff191614806122ef57506122ee826129aa565b5b9050919050565b6122fe610e55565b1561233e576040517f08c379a000000000000000000000000000000000000000000000000000000000815260040161233590614739565b60405180910390fd5b612349838383612a8c565b505050565b6060600060028360026123619190614afa565b61236b9190614a73565b67ffffffffffffffff8111156123aa577f4e487b7100000000000000000000000000000000000000000000000000000000600052604160045260246000fd5b6040519080825280601f01601f1916602001820160405280156123dc5781602001600182028036833780820191505090505b5090507f30000000000000000000000000000000000000000000000000000000000000008160008151811061243a577f4e487b7100000000000000000000000000000000000000000000000000000000600052603260045260246000fd5b60200101907effffffffffffffffffffffffffffffffffffffffffffffffffffffffffffff1916908160001a9053507f7800000000000000000000000000000000000000000000000000000000000000816001815181106124c4577f4e487b7100000000000000000000000000000000000000000000000000000000600052603260045260246000fd5b60200101907effffffffffffffffffffffffffffffffffffffffffffffffffffffffffffff1916908160001a905350600060018460026125049190614afa565b61250e9190614a73565b90505b6001811115612621577f3031323334353637383961626364656600000000000000000000000000000000600f861660108110612576577f4e487b7100000000000000000000000000000000000000000000000000000000600052603260045260246000fd5b1a7f0100000000000000000000000000000000000000000000000000000000000000028282815181106125d2577f4e487b7100000000000000000000000000000000000000000000000000000000600052603260045260246000fd5b60200101907effffffffffffffffffffffffffffffffffffffffffffffffffffffffffffff1916908160001a905350600485908060020a820491505094508061261a90614c5a565b9050612511565b5060008414612665576040517f08c379a000000000000000000000000000000000000000000000000000000000815260040161265c906145f9565b60405180910390fd5b8091505092915050565b61267881612ba0565b6000600a6000838152602001908152602001600020805461269890614c84565b9050146126bf57600a600082815260200190815260200160002060006126be91906134cb565b5b50565b60006126e38473ffffffffffffffffffffffffffffffffffffffff16612cb1565b15612884578373ffffffffffffffffffffffffffffffffffffffff1663150b7a0261270c61186b565b8786866040518563ffffffff167c010000000000000000000000000000000000000000000000000000000002815260040161274a9493929190614555565b602060405180830381600087803b15801561276457600080fd5b505af192505050801561279557506040513d601f19601f8201168201806040525081019061279291906138e9565b60015b612818573d80600081146127c5576040519150601f19603f3d011682016040523d82523d6000602084013e6127ca565b606091505b50600081511415612810576040517f08c379a000000000000000000000000000000000000000000000000000000000815260040161280790614659565b60405180910390fd5b805181602001fd5b63150b7a027c0100000000000000000000000000000000000000000000000000000000027bffffffffffffffffffffffffffffffffffffffffffffffffffffffff1916817bffffffffffffffffffffffffffffffffffffffffffffffffffffffff191614915050612889565b600190505b949350505050565b606060405180602001604052806000815250905090565b60606128b3826117ff565b6128f2576040517f08c379a00000000000000000000000000000000000000000000000000000000081526004016128e990614899565b60405180910390fd5b60006128fc612891565b9050600081511161291c5760405180602001604052806000815250612947565b8061292684612cc4565b6040516020016129379291906144c7565b6040516020818303038152906040525b915050919050565b6129598383612e90565b61296660008484846126c2565b6129a5576040517f08c379a000000000000000000000000000000000000000000000000000000000815260040161299c90614659565b60405180910390fd5b505050565b60007f80ac58cd000000000000000000000000000000000000000000000000000000007bffffffffffffffffffffffffffffffffffffffffffffffffffffffff1916827bffffffffffffffffffffffffffffffffffffffffffffffffffffffff19161480612a7557507f5b5e139f000000000000000000000000000000000000000000000000000000007bffffffffffffffffffffffffffffffffffffffffffffffffffffffff1916827bffffffffffffffffffffffffffffffffffffffffffffffffffffffff1916145b80612a855750612a848261305e565b5b9050919050565b612a978383836130c8565b600073ffffffffffffffffffffffffffffffffffffffff168373ffffffffffffffffffffffffffffffffffffffff161415612ada57612ad5816130cd565b612b19565b8173ffffffffffffffffffffffffffffffffffffffff168373ffffffffffffffffffffffffffffffffffffffff1614612b1857612b178382613116565b5b5b600073ffffffffffffffffffffffffffffffffffffffff168273ffffffffffffffffffffffffffffffffffffffff161415612b5c57612b5781613283565b612b9b565b8273ffffffffffffffffffffffffffffffffffffffff168273ffffffffffffffffffffffffffffffffffffffff1614612b9a57612b9982826133c6565b5b5b505050565b6000612bab82610e6c565b9050612bb9816000846122f6565b612bc4600083611873565b6001600360008373ffffffffffffffffffffffffffffffffffffffff1673ffffffffffffffffffffffffffffffffffffffff1681526020019081526020016000206000828254612c149190614b54565b925050819055506002600083815260200190815260200160002060006101000a81549073ffffffffffffffffffffffffffffffffffffffff021916905581600073ffffffffffffffffffffffffffffffffffffffff168273ffffffffffffffffffffffffffffffffffffffff167fddf252ad1be2c89b69c2b068fc378daa952ba7f163c4a11628f55a4df523b3ef60405160405180910390a45050565b600080823b905060008111915050919050565b60606000821415612d0c576040518060400160405280600181526020017f30000000000000000000000000000000000000000000000000000000000000008152509050612e8b565b600082905060005b60008214612d3e578080612d2790614cb6565b915050600a82612d379190614ac9565b9150612d14565b60008167ffffffffffffffff811115612d80577f4e487b7100000000000000000000000000000000000000000000000000000000600052604160045260246000fd5b6040519080825280601f01601f191660200182016040528015612db25781602001600182028036833780820191505090505b5090505b60008514612e8457600182612dcb9190614b54565b9150600a85612dda9190614cff565b6030612de69190614a73565b7f010000000000000000000000000000000000000000000000000000000000000002818381518110612e41577f4e487b7100000000000000000000000000000000000000000000000000000000600052603260045260246000fd5b60200101907effffffffffffffffffffffffffffffffffffffffffffffffffffffffffffff1916908160001a905350600a85612e7d9190614ac9565b9450612db6565b8093505050505b919050565b600073ffffffffffffffffffffffffffffffffffffffff168273ffffffffffffffffffffffffffffffffffffffff161415612f00576040517f08c379a0000000000000000000000000000000000000000000000000000000008152600401612ef790614819565b60405180910390fd5b612f09816117ff565b15612f49576040517f08c379a0000000000000000000000000000000000000000000000000000000008152600401612f4090614699565b60405180910390fd5b612f55600083836122f6565b6001600360008473ffffffffffffffffffffffffffffffffffffffff1673ffffffffffffffffffffffffffffffffffffffff1681526020019081526020016000206000828254612fa59190614a73565b92505081905550816002600083815260200190815260200160002060006101000a81548173ffffffffffffffffffffffffffffffffffffffff021916908373ffffffffffffffffffffffffffffffffffffffff160217905550808273ffffffffffffffffffffffffffffffffffffffff16600073ffffffffffffffffffffffffffffffffffffffff167fddf252ad1be2c89b69c2b068fc378daa952ba7f163c4a11628f55a4df523b3ef60405160405180910390a45050565b60007f01ffc9a7000000000000000000000000000000000000000000000000000000007bffffffffffffffffffffffffffffffffffffffffffffffffffffffff1916827bffffffffffffffffffffffffffffffffffffffffffffffffffffffff1916149050919050565b505050565b6008805490506009600083815260200190815260200160002081905550600881908060018154018082558091505060019003906000526020600020016000909190919091505550565b6000600161312384610f1e565b61312d9190614b54565b9050600060076000848152602001908152602001600020549050818114613212576000600660008673ffffffffffffffffffffffffffffffffffffffff1673ffffffffffffffffffffffffffffffffffffffff168152602001908152602001600020600084815260200190815260200160002054905080600660008773ffffffffffffffffffffffffffffffffffffffff1673ffffffffffffffffffffffffffffffffffffffff168152602001908152602001600020600084815260200190815260200160002081905550816007600083815260200190815260200160002081905550505b6007600084815260200190815260200160002060009055600660008573ffffffffffffffffffffffffffffffffffffffff1673ffffffffffffffffffffffffffffffffffffffff16815260200190815260200160002060008381526020019081526020016000206000905550505050565b600060016008805490506132979190614b54565b90506000600960008481526020019081526020016000205490506000600883815481106132ed577f4e487b7100000000000000000000000000000000000000000000000000000000600052603260045260246000fd5b906000526020600020015490508060088381548110613335577f4e487b7100000000000000000000000000000000000000000000000000000000600052603260045260246000fd5b9060005260206000200181905550816009600083815260200190815260200160002081905550600960008581526020019081526020016000206000905560088054806133aa577f4e487b7100000000000000000000000000000000000000000000000000000000600052603160045260246000fd5b6001900381819060005260206000200160009055905550505050565b60006133d183610f1e565b905081600660008573ffffffffffffffffffffffffffffffffffffffff1673ffffffffffffffffffffffffffffffffffffffff168152602001908152602001600020600083815260200190815260200160002081905550806007600084815260200190815260200160002081905550505050565b82805461345190614c84565b90600052602060002090601f01602090048101928261347357600085556134ba565b82601f1061348c57805160ff19168380011785556134ba565b828001600101855582156134ba579182015b828111156134b957825182559160200191906001019061349e565b5b5090506134c7919061350b565b5090565b5080546134d790614c84565b6000825580601f106134e95750613508565b601f016020900490600052602060002090810190613507919061350b565b5b50565b5b8082111561352457600081600090555060010161350c565b5090565b600061353b613536846149c5565b614994565b90508281526020810184848401111561355357600080fd5b61355e848285614c18565b509392505050565b6000613579613574846149f5565b614994565b90508281526020810184848401111561359157600080fd5b61359c848285614c18565b509392505050565b6000813590506135b381614dfd565b92915050565b6000813590506135c881614e14565b92915050565b6000813590506135dd81614e2b565b92915050565b6000813590506135f281614e42565b92915050565b60008135905061360781614e59565b92915050565b60008151905061361c81614e59565b92915050565b600082601f83011261363357600080fd5b8135613643848260208601613528565b91505092915050565b600082601f83011261365d57600080fd5b813561366d848260208601613566565b91505092915050565b60008135905061368581614e70565b92915050565b60006020828403121561369d57600080fd5b60006136ab848285016135a4565b91505092915050565b6000602082840312156136c657600080fd5b60006136d4848285016135b9565b91505092915050565b600080604083850312156136f057600080fd5b60006136fe858286016135a4565b925050602061370f858286016135a4565b9150509250929050565b60008060006060848603121561372e57600080fd5b600061373c868287016135a4565b935050602061374d868287016135a4565b925050604061375e86828701613676565b9150509250925092565b6000806000806080858703121561377e57600080fd5b600061378c878288016135a4565b945050602061379d878288016135a4565b93505060406137ae87828801613676565b925050606085013567ffffffffffffffff8111156137cb57600080fd5b6137d787828801613622565b91505092959194509250565b600080604083850312156137f657600080fd5b6000613804858286016135a4565b9250506020613815858286016135ce565b9150509250929050565b6000806040838503121561383257600080fd5b6000613840858286016135a4565b925050602061385185828601613676565b9150509250929050565b60006020828403121561386d57600080fd5b600061387b848285016135e3565b91505092915050565b6000806040838503121561389757600080fd5b60006138a5858286016135e3565b92505060206138b6858286016135a4565b9150509250929050565b6000602082840312156138d257600080fd5b60006138e0848285016135f8565b91505092915050565b6000602082840312156138fb57600080fd5b60006139098482850161360d565b91505092915050565b60006020828403121561392457600080fd5b600082013567ffffffffffffffff81111561393e57600080fd5b61394a8482850161364c565b91505092915050565b60006020828403121561396557600080fd5b600061397384828501613676565b91505092915050565b61398581614b88565b82525050565b61399481614bac565b82525050565b6139a381614bb8565b82525050565b60006139b482614a25565b6139be8185614a3b565b93506139ce818560208601614c27565b6139d781614dec565b840191505092915050565b60006139ed82614a30565b6139f78185614a57565b9350613a07818560208601614c27565b613a1081614dec565b840191505092915050565b6000613a2682614a30565b613a308185614a68565b9350613a40818560208601614c27565b80840191505092915050565b6000613a59602083614a57565b91507f537472696e67733a20686578206c656e67746820696e73756666696369656e746000830152602082019050919050565b6000613a99601483614a57565b91507f5061757361626c653a206e6f74207061757365640000000000000000000000006000830152602082019050919050565b6000613ad9602b83614a57565b91507f455243373231456e756d657261626c653a206f776e657220696e646578206f7560008301527f74206f6620626f756e64730000000000000000000000000000000000000000006020830152604082019050919050565b6000613b3f603283614a57565b91507f4552433732313a207472616e7366657220746f206e6f6e20455243373231526560008301527f63656976657220696d706c656d656e74657200000000000000000000000000006020830152604082019050919050565b6000613ba5600f83614a57565b91507f46616c69656420746f2073656e642100000000000000000000000000000000006000830152602082019050919050565b6000613be5601c83614a57565b91507f4552433732313a20746f6b656e20616c7265616479206d696e746564000000006000830152602082019050919050565b6000613c25602483614a57565b91507f4552433732313a207472616e7366657220746f20746865207a65726f2061646460008301527f72657373000000000000000000000000000000000000000000000000000000006020830152604082019050919050565b6000613c8b601983614a57565b91507f4552433732313a20617070726f766520746f2063616c6c6572000000000000006000830152602082019050919050565b6000613ccb602c83614a57565b91507f4552433732313a206f70657261746f7220717565727920666f72206e6f6e657860008301527f697374656e7420746f6b656e00000000000000000000000000000000000000006020830152604082019050919050565b6000613d31601783614a57565b91507f455243373231204361703a2063617020726561636865640000000000000000006000830152602082019050919050565b6000613d71601083614a57565b91507f5061757361626c653a20706175736564000000000000000000000000000000006000830152602082019050919050565b6000613db1602183614a57565b91507f4e6f7420656e6f756768204554482073656e743a20636865636b20707269636560008301527f2e000000000000000000000000000000000000000000000000000000000000006020830152604082019050919050565b6000613e17603883614a57565b91507f4552433732313a20617070726f76652063616c6c6572206973206e6f74206f7760008301527f6e6572206e6f7220617070726f76656420666f7220616c6c00000000000000006020830152604082019050919050565b6000613e7d602a83614a57565b91507f4552433732313a2062616c616e636520717565727920666f7220746865207a6560008301527f726f2061646472657373000000000000000000000000000000000000000000006020830152604082019050919050565b6000613ee3602983614a57565b91507f4552433732313a206f776e657220717565727920666f72206e6f6e657869737460008301527f656e7420746f6b656e00000000000000000000000000000000000000000000006020830152604082019050919050565b6000613f49602e83614a57565b91507f45524337323155524953746f726167653a2055524920736574206f66206e6f6e60008301527f6578697374656e7420746f6b656e0000000000000000000000000000000000006020830152604082019050919050565b6000613faf602b83614a57565b91507f43616c6c6572206d75737420686176652061646d696e20726f6c6520746f207360008301527f6574206d696e74206665650000000000000000000000000000000000000000006020830152604082019050919050565b6000614015602083614a57565b91507f4552433732313a206d696e7420746f20746865207a65726f20616464726573736000830152602082019050919050565b6000614055603183614a57565b91507f45524337323155524953746f726167653a2055524920717565727920666f722060008301527f6e6f6e6578697374656e7420746f6b656e0000000000000000000000000000006020830152604082019050919050565b60006140bb602c83614a57565b91507f4552433732313a20617070726f76656420717565727920666f72206e6f6e657860008301527f697374656e7420746f6b656e00000000000000000000000000000000000000006020830152604082019050919050565b6000614121602983614a57565b91507f4552433732313a207472616e73666572206f6620746f6b656e2074686174206960008301527f73206e6f74206f776e00000000000000000000000000000000000000000000006020830152604082019050919050565b6000614187602f83614a57565b91507f4552433732314d657461646174613a2055524920717565727920666f72206e6f60008301527f6e6578697374656e7420746f6b656e00000000000000000000000000000000006020830152604082019050919050565b60006141ed602183614a57565b91507f4552433732313a20617070726f76616c20746f2063757272656e74206f776e6560008301527f72000000000000000000000000000000000000000000000000000000000000006020830152604082019050919050565b6000614253600083614a4c565b9150600082019050919050565b600061426d603183614a57565b91507f4552433732313a207472616e736665722063616c6c6572206973206e6f74206f60008301527f776e6572206e6f7220617070726f7665640000000000000000000000000000006020830152604082019050919050565b60006142d3601a83614a57565b91507f556e61626c6520746f2073656e64206d696e74696e67206665650000000000006000830152602082019050919050565b6000614313602c83614a57565b91507f455243373231456e756d657261626c653a20676c6f62616c20696e646578206f60008301527f7574206f6620626f756e647300000000000000000000000000000000000000006020830152604082019050919050565b6000614379601783614a68565b91507f416363657373436f6e74726f6c3a206163636f756e74200000000000000000006000830152601782019050919050565b60006143b9603083614a57565b91507f4552433732314275726e61626c653a2063616c6c6572206973206e6f74206f7760008301527f6e6572206e6f7220617070726f766564000000000000000000000000000000006020830152604082019050919050565b600061441f601183614a68565b91507f206973206d697373696e6720726f6c65200000000000000000000000000000006000830152601182019050919050565b600061445f602f83614a57565b91507f416363657373436f6e74726f6c3a2063616e206f6e6c792072656e6f756e636560008301527f20726f6c657320666f722073656c6600000000000000000000000000000000006020830152604082019050919050565b6144c181614c0e565b82525050565b60006144d38285613a1b565b91506144df8284613a1b565b91508190509392505050565b60006144f682614246565b9150819050919050565b600061450b8261436c565b91506145178285613a1b565b915061452282614412565b915061452e8284613a1b565b91508190509392505050565b600060208201905061454f600083018461397c565b92915050565b600060808201905061456a600083018761397c565b614577602083018661397c565b61458460408301856144b8565b818103606083015261459681846139a9565b905095945050505050565b60006020820190506145b6600083018461398b565b92915050565b60006020820190506145d1600083018461399a565b92915050565b600060208201905081810360008301526145f181846139e2565b905092915050565b6000602082019050818103600083015261461281613a4c565b9050919050565b6000602082019050818103600083015261463281613a8c565b9050919050565b6000602082019050818103600083015261465281613acc565b9050919050565b6000602082019050818103600083015261467281613b32565b9050919050565b6000602082019050818103600083015261469281613b98565b9050919050565b600060208201905081810360008301526146b281613bd8565b9050919050565b600060208201905081810360008301526146d281613c18565b9050919050565b600060208201905081810360008301526146f281613c7e565b9050919050565b6000602082019050818103600083015261471281613cbe565b9050919050565b6000602082019050818103600083015261473281613d24565b9050919050565b6000602082019050818103600083015261475281613d64565b9050919050565b6000602082019050818103600083015261477281613da4565b9050919050565b6000602082019050818103600083015261479281613e0a565b9050919050565b600060208201905081810360008301526147b281613e70565b9050919050565b600060208201905081810360008301526147d281613ed6565b9050919050565b600060208201905081810360008301526147f281613f3c565b9050919050565b6000602082019050818103600083015261481281613fa2565b9050919050565b6000602082019050818103600083015261483281614008565b9050919050565b6000602082019050818103600083015261485281614048565b9050919050565b60006020820190508181036000830152614872816140ae565b9050919050565b6000602082019050818103600083015261489281614114565b9050919050565b600060208201905081810360008301526148b28161417a565b9050919050565b600060208201905081810360008301526148d2816141e0565b9050919050565b600060208201905081810360008301526148f281614260565b9050919050565b60006020820190508181036000830152614912816142c6565b9050919050565b6000602082019050818103600083015261493281614306565b9050919050565b60006020820190508181036000830152614952816143ac565b9050919050565b6000602082019050818103600083015261497281614452565b9050919050565b600060208201905061498e60008301846144b8565b92915050565b6000604051905081810181811067ffffffffffffffff821117156149bb576149ba614dbd565b5b8060405250919050565b600067ffffffffffffffff8211156149e0576149df614dbd565b5b601f19601f8301169050602081019050919050565b600067ffffffffffffffff821115614a1057614a0f614dbd565b5b601f19601f8301169050602081019050919050565b600081519050919050565b600081519050919050565b600082825260208201905092915050565b600081905092915050565b600082825260208201905092915050565b600081905092915050565b6000614a7e82614c0e565b9150614a8983614c0e565b9250827fffffffffffffffffffffffffffffffffffffffffffffffffffffffffffffffff03821115614abe57614abd614d30565b5b828201905092915050565b6000614ad482614c0e565b9150614adf83614c0e565b925082614aef57614aee614d5f565b5b828204905092915050565b6000614b0582614c0e565b9150614b1083614c0e565b9250817fffffffffffffffffffffffffffffffffffffffffffffffffffffffffffffffff0483118215151615614b4957614b48614d30565b5b828202905092915050565b6000614b5f82614c0e565b9150614b6a83614c0e565b925082821015614b7d57614b7c614d30565b5b828203905092915050565b6000614b9382614bee565b9050919050565b6000614ba582614bee565b9050919050565b60008115159050919050565b6000819050919050565b60007fffffffff0000000000000000000000000000000000000000000000000000000082169050919050565b600073ffffffffffffffffffffffffffffffffffffffff82169050919050565b6000819050919050565b82818337600083830152505050565b60005b83811015614c45578082015181840152602081019050614c2a565b83811115614c54576000848401525b50505050565b6000614c6582614c0e565b91506000821415614c7957614c78614d30565b5b600182039050919050565b60006002820490506001821680614c9c57607f821691505b60208210811415614cb057614caf614d8e565b5b50919050565b6000614cc182614c0e565b91507fffffffffffffffffffffffffffffffffffffffffffffffffffffffffffffffff821415614cf457614cf3614d30565b5b600182019050919050565b6000614d0a82614c0e565b9150614d1583614c0e565b925082614d2557614d24614d5f565b5b828206905092915050565b7f4e487b7100000000000000000000000000000000000000000000000000000000600052601160045260246000fd5b7f4e487b7100000000000000000000000000000000000000000000000000000000600052601260045260246000fd5b7f4e487b7100000000000000000000000000000000000000000000000000000000600052602260045260246000fd5b7f4e487b7100000000000000000000000000000000000000000000000000000000600052604160045260246000fd5b6000601f19601f8301169050919050565b614e0681614b88565b8114614e1157600080fd5b50565b614e1d81614b9a565b8114614e2857600080fd5b50565b614e3481614bac565b8114614e3f57600080fd5b50565b614e4b81614bb8565b8114614e5657600080fd5b50565b614e6281614bc2565b8114614e6d57600080fd5b50565b614e7981614c0e565b8114614e8457600080fd5b5056fe68747470733a2f2f676174657761792e70696e6174612e636c6f75642f697066732f516d524c7246356e4d4d73716b70675757536765504b4e56553270695748537a6a4756484273524b393564696f37a264697066735822122046a46ef73dc13fcaab98e0cbea64e03e85c12827ac113f60dfd6250f57d67d9e64736f6c63430008000033",
  "immutableReferences": {
    "2647": [
      {
        "length": 32,
        "start": 3166
      }
    ]
  },
  "source": "// SPDX-License-Identifier: MIT\npragma solidity ^0.8.0;\n\nimport \"../../node_modules/@openzeppelin/contracts/token/ERC721/ERC721.sol\";\nimport \"../../node_modules/@openzeppelin/contracts/token/ERC721/extensions/ERC721Enumerable.sol\";\nimport \"../../node_modules/@openzeppelin/contracts/token/ERC721/extensions/ERC721URIStorage.sol\";\n// import \"../../node_modules/@openzeppelin/contracts/access/Ownable.sol\";\nimport \"../../node_modules/@openzeppelin/contracts/utils/Counters.sol\";\nimport \"../../node_modules/@openzeppelin/contracts/token/ERC721/extensions/ERC721Burnable.sol\";\nimport \"../../node_modules/@openzeppelin/contracts/access/AccessControl.sol\";\nimport \"../../node_modules/@openzeppelin/contracts/security/Pausable.sol\";\n\n\ncontract SlayerBadge is \n\tERC721, \n\tERC721Enumerable, \n\tERC721URIStorage, \n\tPausable, \n\tAccessControl, \n\tERC721Burnable \n{\n\tusing Counters for Counters.Counter;\n\t\n\tbytes32 public constant PAUSER_ROLE = keccak256(\"PAUSER_ROLE\");\n\tbytes32 public constant MINTER_ROLE = keccak256(\"MINTER_ROLE\");\n\tCounters.Counter private _tokenIdCounter;\n\t\n\tuint256 private immutable _cap;\n\taddress public  contractOwner;\n\tuint256 private _mintFee;\n\n\t// mapping(uint256 => address) balances;\n\n\tconstructor() ERC721(\"ROSlayers\", \"ROS\") {\n\t\t_setupRole(DEFAULT_ADMIN_ROLE, msg.sender);\n\t\t_setupRole(PAUSER_ROLE, msg.sender);\n\t\t_setupRole(MINTER_ROLE, msg.sender);\n\t\t_cap = 10;\n\t\tcontractOwner = msg.sender;\n\t\t_mintFee = 0.01 ether;\n\t}\n\n\tfunction pause() public onlyRole(PAUSER_ROLE) {\n\t\t_pause();\n\t}\n\n\tfunction unpause() public onlyRole(PAUSER_ROLE) {\n\t\t_unpause();\n\t}\n\t\n\t/**\n\t* Events \n\t*/\n\n\tevent mintFeeChanged(uint256 fee);\n\n\tfunction cap() public view virtual returns (uint256) {\n\t\t\treturn _cap;\n\t}\n\t\n\tfunction setMintFee(uint256 fee) public onlyRole(DEFAULT_ADMIN_ROLE) {\n\t\t// check if caller is admin\n\t\trequire(\n\t\t\thasRole(DEFAULT_ADMIN_ROLE, msg.sender),\n\t\t\t\"Caller must have admin role to set mint fee\"\n\t\t);\n\t\t_mintFee = fee;\n\t\temit mintFeeChanged(fee);\n\t}\n\n\tfunction getMintFee() public view returns (uint256) {\n\t\treturn _mintFee;\n\t}\n\n\tfunction contractURI() public pure returns (string memory) {\n\t\t\treturn \"https://gateway.pinata.cloud/ipfs/QmRLrF5nMMsqkpgWWSgePKNVU2piWHSzjGVHBsRK95dio7\";\n\t}\n\n\tfunction mint(string memory tokenURI) public payable onlyRole(MINTER_ROLE) {\n\t\trequire(totalSupply() <= cap(), \"ERC721 Cap: cap reached\");\n\t\trequire(msg.value >= _mintFee, \"Not enough ETH sent: check price.\");\n\t\t// Forward amount to contract adddress\n\t\t(bool success, ) = payable(contractOwner).call{value: msg.value}(\"\");\n\t\trequire(success, \"Unable to send minting fee\");\n\t\t_tokenIdCounter.increment();\n\t\t_safeMint(msg.sender, _tokenIdCounter.current());\n\t\t_setTokenURI(_tokenIdCounter.current(), tokenURI);\n\t\t\t\n\t}\n\n\t// function sendEthToContract(uint256 amount) public payable {\n\n\t// }\n\n\t// error InsufficientBalance(uint requested, uint available);\n\n\t// function send(address receiver, uint amount) public payable {\n\t// \tif (amount > balances[msg.sender])\n\t// \tbalanceOf(msg.sender); // += msg.value;\n\t// }\n\n\t// Transfer funds\n\tfunction transferFunds(address payable to ) public payable {\n\t\t// payable(to).transfer(msg.value);\n\t\t(bool sent, bytes memory data) = to.call{value: msg.value}(\"\");\n\t\trequire(sent, \"Falied to send!\");\t\t\n\t}\n\n\treceive() external payable {\n\t\t// mint(\"\");\n\t}\n\n\tfallback() external payable {}\n\n\tfunction getBalance() public view returns (uint) {\n\t\treturn address(this).balance;\n\t}\n    \n\tfunction _beforeTokenTransfer(address from, address to, uint256 tokenId)\n\tinternal\n\twhenNotPaused\n\toverride(ERC721, ERC721Enumerable)\n\t{\n\t\tsuper._beforeTokenTransfer(from, to, tokenId);\n\t}\n\n// The following functions are overrides required by Solidity.\n\n\tfunction _burn(uint256 tokenId) internal override(ERC721, ERC721URIStorage) {\n\t\tsuper._burn(tokenId);\n\t}\n\n\tfunction tokenURI(uint256 tokenId)\n\t\tpublic\n\t\tview\n\t\toverride(ERC721, ERC721URIStorage)\n\t\treturns (string memory)\n\t{\n\t\treturn super.tokenURI(tokenId);\n\t}\n\n\tfunction supportsInterface(bytes4 interfaceId)\n\t\tpublic\n\t\tview\n\t\toverride(ERC721, ERC721Enumerable, AccessControl)\n\t\treturns (bool)\n\t{\n\t\treturn super.supportsInterface(interfaceId);\n\t}\n\n}",
  "sourcePath": "/home/drex/Projects/internship/nft/nft/src/contracts/SlayerBadge.sol",
  "compiler": {
    "name": "solc",
    "version": "0.8.0+commit.c7dfd78e.Emscripten.clang"
  },
  "schemaVersion": "3.4.3",
  "updatedAt": "2021-10-25T22:33:52.845Z",
  "devdoc": {
    "kind": "dev",
    "methods": {
      "approve(address,uint256)": {
        "details": "See {IERC721-approve}."
      },
      "balanceOf(address)": {
        "details": "See {IERC721-balanceOf}."
      },
      "burn(uint256)": {
        "details": "Burns `tokenId`. See {ERC721-_burn}. Requirements: - The caller must own `tokenId` or be an approved operator."
      },
      "getApproved(uint256)": {
        "details": "See {IERC721-getApproved}."
      },
      "getRoleAdmin(bytes32)": {
        "details": "Returns the admin role that controls `role`. See {grantRole} and {revokeRole}. To change a role's admin, use {_setRoleAdmin}."
      },
      "grantRole(bytes32,address)": {
        "details": "Grants `role` to `account`. If `account` had not been already granted `role`, emits a {RoleGranted} event. Requirements: - the caller must have ``role``'s admin role."
      },
      "hasRole(bytes32,address)": {
        "details": "Returns `true` if `account` has been granted `role`."
      },
      "isApprovedForAll(address,address)": {
        "details": "See {IERC721-isApprovedForAll}."
      },
      "name()": {
        "details": "See {IERC721Metadata-name}."
      },
      "ownerOf(uint256)": {
        "details": "See {IERC721-ownerOf}."
      },
      "paused()": {
        "details": "Returns true if the contract is paused, and false otherwise."
      },
      "renounceRole(bytes32,address)": {
        "details": "Revokes `role` from the calling account. Roles are often managed via {grantRole} and {revokeRole}: this function's purpose is to provide a mechanism for accounts to lose their privileges if they are compromised (such as when a trusted device is misplaced). If the calling account had been granted `role`, emits a {RoleRevoked} event. Requirements: - the caller must be `account`."
      },
      "revokeRole(bytes32,address)": {
        "details": "Revokes `role` from `account`. If `account` had been granted `role`, emits a {RoleRevoked} event. Requirements: - the caller must have ``role``'s admin role."
      },
      "safeTransferFrom(address,address,uint256)": {
        "details": "See {IERC721-safeTransferFrom}."
      },
      "safeTransferFrom(address,address,uint256,bytes)": {
        "details": "See {IERC721-safeTransferFrom}."
      },
      "setApprovalForAll(address,bool)": {
        "details": "See {IERC721-setApprovalForAll}."
      },
      "symbol()": {
        "details": "See {IERC721Metadata-symbol}."
      },
      "tokenByIndex(uint256)": {
        "details": "See {IERC721Enumerable-tokenByIndex}."
      },
      "tokenOfOwnerByIndex(address,uint256)": {
        "details": "See {IERC721Enumerable-tokenOfOwnerByIndex}."
      },
      "totalSupply()": {
        "details": "See {IERC721Enumerable-totalSupply}."
      },
      "transferFrom(address,address,uint256)": {
        "details": "See {IERC721-transferFrom}."
      }
    },
    "version": 1
  },
  "userdoc": {
    "events": {
      "mintFeeChanged(uint256)": {
        "notice": "Events "
      }
    },
    "kind": "user",
    "methods": {},
    "version": 1
  }
}